{
  "_format": "hh-sol-artifact-1",
  "contractName": "EscrowDst",
  "sourceName": "contracts/1inch/EscrowDst.sol",
  "abi": [
    {
      "inputs": [
        {
          "internalType": "uint32",
          "name": "rescueDelay",
          "type": "uint32"
        },
        {
          "internalType": "contract IERC20",
          "name": "accessToken",
          "type": "address"
        }
      ],
      "stateMutability": "nonpayable",
      "type": "constructor"
    },
    {
      "inputs": [],
      "name": "InvalidCaller",
      "type": "error"
    },
    {
      "inputs": [],
      "name": "InvalidImmutables",
      "type": "error"
    },
    {
      "inputs": [],
      "name": "InvalidSecret",
      "type": "error"
    },
    {
      "inputs": [],
      "name": "InvalidTime",
      "type": "error"
    },
    {
      "inputs": [],
      "name": "NativeTokenSendingFailure",
      "type": "error"
    },
    {
      "inputs": [],
      "name": "SafeTransferFailed",
      "type": "error"
    },
    {
      "anonymous": false,
      "inputs": [],
      "name": "EscrowCancelled",
      "type": "event"
    },
    {
      "anonymous": false,
      "inputs": [
        {
          "indexed": false,
          "internalType": "bytes32",
          "name": "secret",
          "type": "bytes32"
        }
      ],
      "name": "EscrowWithdrawal",
      "type": "event"
    },
    {
      "anonymous": false,
      "inputs": [
        {
          "indexed": false,
          "internalType": "address",
          "name": "token",
          "type": "address"
        },
        {
          "indexed": false,
          "internalType": "uint256",
          "name": "amount",
          "type": "uint256"
        }
      ],
      "name": "FundsRescued",
      "type": "event"
    },
    {
      "inputs": [],
      "name": "FACTORY",
      "outputs": [
        {
          "internalType": "address",
          "name": "",
          "type": "address"
        }
      ],
      "stateMutability": "view",
      "type": "function"
    },
    {
      "inputs": [],
      "name": "PROXY_BYTECODE_HASH",
      "outputs": [
        {
          "internalType": "bytes32",
          "name": "",
          "type": "bytes32"
        }
      ],
      "stateMutability": "view",
      "type": "function"
    },
    {
      "inputs": [],
      "name": "RESCUE_DELAY",
      "outputs": [
        {
          "internalType": "uint256",
          "name": "",
          "type": "uint256"
        }
      ],
      "stateMutability": "view",
      "type": "function"
    },
    {
      "inputs": [
        {
          "components": [
            {
              "internalType": "bytes32",
              "name": "orderHash",
              "type": "bytes32"
            },
            {
              "internalType": "bytes32",
              "name": "hashlock",
              "type": "bytes32"
            },
            {
              "internalType": "Address",
              "name": "maker",
              "type": "uint256"
            },
            {
              "internalType": "Address",
              "name": "taker",
              "type": "uint256"
            },
            {
              "internalType": "Address",
              "name": "token",
              "type": "uint256"
            },
            {
              "internalType": "uint256",
              "name": "amount",
              "type": "uint256"
            },
            {
              "internalType": "uint256",
              "name": "safetyDeposit",
              "type": "uint256"
            },
            {
              "internalType": "Timelocks",
              "name": "timelocks",
              "type": "uint256"
            },
            {
              "internalType": "bytes",
              "name": "parameters",
              "type": "bytes"
            }
          ],
          "internalType": "struct IBaseEscrow.Immutables",
          "name": "immutables",
          "type": "tuple"
        }
      ],
      "name": "cancel",
      "outputs": [],
      "stateMutability": "nonpayable",
      "type": "function"
    },
    {
      "inputs": [
        {
          "internalType": "bytes32",
          "name": "secret",
          "type": "bytes32"
        },
        {
          "components": [
            {
              "internalType": "bytes32",
              "name": "orderHash",
              "type": "bytes32"
            },
            {
              "internalType": "bytes32",
              "name": "hashlock",
              "type": "bytes32"
            },
            {
              "internalType": "Address",
              "name": "maker",
              "type": "uint256"
            },
            {
              "internalType": "Address",
              "name": "taker",
              "type": "uint256"
            },
            {
              "internalType": "Address",
              "name": "token",
              "type": "uint256"
            },
            {
              "internalType": "uint256",
              "name": "amount",
              "type": "uint256"
            },
            {
              "internalType": "uint256",
              "name": "safetyDeposit",
              "type": "uint256"
            },
            {
              "internalType": "Timelocks",
              "name": "timelocks",
              "type": "uint256"
            },
            {
              "internalType": "bytes",
              "name": "parameters",
              "type": "bytes"
            }
          ],
          "internalType": "struct IBaseEscrow.Immutables",
          "name": "immutables",
          "type": "tuple"
        }
      ],
      "name": "publicWithdraw",
      "outputs": [],
      "stateMutability": "nonpayable",
      "type": "function"
    },
    {
      "inputs": [
        {
          "internalType": "address",
          "name": "token",
          "type": "address"
        },
        {
          "internalType": "uint256",
          "name": "amount",
          "type": "uint256"
        },
        {
          "components": [
            {
              "internalType": "bytes32",
              "name": "orderHash",
              "type": "bytes32"
            },
            {
              "internalType": "bytes32",
              "name": "hashlock",
              "type": "bytes32"
            },
            {
              "internalType": "Address",
              "name": "maker",
              "type": "uint256"
            },
            {
              "internalType": "Address",
              "name": "taker",
              "type": "uint256"
            },
            {
              "internalType": "Address",
              "name": "token",
              "type": "uint256"
            },
            {
              "internalType": "uint256",
              "name": "amount",
              "type": "uint256"
            },
            {
              "internalType": "uint256",
              "name": "safetyDeposit",
              "type": "uint256"
            },
            {
              "internalType": "Timelocks",
              "name": "timelocks",
              "type": "uint256"
            },
            {
              "internalType": "bytes",
              "name": "parameters",
              "type": "bytes"
            }
          ],
          "internalType": "struct IBaseEscrow.Immutables",
          "name": "immutables",
          "type": "tuple"
        }
      ],
      "name": "rescueFunds",
      "outputs": [],
      "stateMutability": "nonpayable",
      "type": "function"
    },
    {
      "inputs": [
        {
          "internalType": "bytes32",
          "name": "secret",
          "type": "bytes32"
        },
        {
          "components": [
            {
              "internalType": "bytes32",
              "name": "orderHash",
              "type": "bytes32"
            },
            {
              "internalType": "bytes32",
              "name": "hashlock",
              "type": "bytes32"
            },
            {
              "internalType": "Address",
              "name": "maker",
              "type": "uint256"
            },
            {
              "internalType": "Address",
              "name": "taker",
              "type": "uint256"
            },
            {
              "internalType": "Address",
              "name": "token",
              "type": "uint256"
            },
            {
              "internalType": "uint256",
              "name": "amount",
              "type": "uint256"
            },
            {
              "internalType": "uint256",
              "name": "safetyDeposit",
              "type": "uint256"
            },
            {
              "internalType": "Timelocks",
              "name": "timelocks",
              "type": "uint256"
            },
            {
              "internalType": "bytes",
              "name": "parameters",
              "type": "bytes"
            }
          ],
          "internalType": "struct IBaseEscrow.Immutables",
          "name": "immutables",
          "type": "tuple"
        }
      ],
      "name": "withdraw",
      "outputs": [],
      "stateMutability": "nonpayable",
      "type": "function"
    }
  ],
  "bytecode": "0x610100346100f457601f610cf138819003918201601f19168301916001600160401b038311848410176100f95780849260409485528339810103126100f45780519063ffffffff82168092036100f45760200151906001600160a01b03821682036100f4573360c05260a0526080526e5af43d82803e903d91602b57fd5bf360205230601152763d602d80600a3d3981f3363d3d373d3d3d363d730000003060881c17600052603760092060e052604051610be19081610110823960805181610278015260a051818181608a01526101b8015260c05181818161037301526108bd015260e05181818161033a01526108920152f35b600080fd5b634e487b7160e01b600052604160045260246000fdfe608060408181526004918236101561001657600080fd5b60009260e08435811c9283632537a347146103a2575082632dd310001461035d57826334862b6a146103215782633e99ca75146102495782635e504d031461013d57826378a5e1a1146100b157505063f56cd69c1461007457600080fd5b346100ad57816003193601126100ad57602090517f00000000000000000000000000000000000000000000000000000000000000008152f35b5080fd5b83859134610139576100c23661047d565b92909160608401356001600160a01b031633036101295763ffffffff8185013580921c9160801c168101809111610116574210610107575090610104916104f1565b80f35b516337bf561360e11b81528490fd5b634e487b7160e01b855260118652602485fd5b81516348f5c3ed60e01b81528690fd5b8280fd5b838591346101395760031990606036830112610245578435946001600160a01b038087169390929084880361024157602435936044359167ffffffffffffffff831161023d5761012090833603011261023957606482013516330361022957806101b26101ad60e493860161083a565b610889565b0135901c7f000000000000000000000000000000000000000000000000000000000000000001421061021b575061020d817fc4474c2790e13695f6d2b6f1d8e164290b55370f87a542fd7711abe0a1bf40ac9596339061093a565b82519182526020820152a180f35b83516337bf561360e11b8152fd5b85516348f5c3ed60e01b81528390fd5b8780fd5b8880fd5b8680fd5b8380fd5b838591346101395761025a3661047d565b83516370a0823160e01b8152338782015290939192906020816024817f00000000000000000000000000000000000000000000000000000000000000006001600160a01b03165afa9081156103175786916102e1575b50156101295763ffffffff8185013580921c9160a01c168101809111610116574210610107575090610104916104f1565b90506020813d60201161030f575b816102fc602093836104b9565b8101031261030b5751876102b0565b8580fd5b3d91506102ef565b83513d88823e3d90fd5b505050346100ad57816003193601126100ad57602090517f00000000000000000000000000000000000000000000000000000000000000008152f35b505050346100ad57816003193601126100ad57517f00000000000000000000000000000000000000000000000000000000000000006001600160a01b03168152602090f35b828587923461024557600319926020368501126104795780359367ffffffffffffffff851161030b57610120908536030112610479576001600160a01b039260648501358416923384900361046b57506104006101ad86840161083a565b61040d60e486013561090a565b421061045e578561043760c48761042f60a48201358860848401358b1661093a565b0135336109db565b7f6e3be9294e58d10b9c8053cfd5e09871b67e442fe394d6b0870d336b9df984a98180a180f35b516337bf561360e11b8152fd5b6348f5c3ed60e01b81529050fd5b8480fd5b906003196040818401126104b457600435926024359167ffffffffffffffff83116104b45782610120920301126104b45760040190565b600080fd5b90601f8019910116810190811067ffffffffffffffff8211176104db57604052565b634e487b7160e01b600052604160045260246000fd5b91909161050160e084013561090a565b421015610828576105146101ad8461083a565b60209060008181528285013583822003610816576105323686610a2b565b9061056873__$e389fbfae8dedbddaed0f3a508f83b82ce$__8560409485518094819263cc51c71760e01b835260048301610af8565b0381845af491821561080c5783926107db575b506105a4928661058b368b610a2b565b86518096819263259f481160e21b835260048301610af8565b0381855af49384156107cf5781946107a0575b5082610707575b83610629575b50508661042f6106086106229461060360c09560a07fe346f5c97a360db5188bfa5d3ec5f0583abde420c6ba4d08b6cfe61addc171059c9d0135610b9e565b610b9e565b6001600160a01b038684013581169060808501351661093a565b51908152a1565b6001600160a01b039161065d908890610642368d610a2b565b9088518080958194636e30c3eb60e01b835260048301610af8565b03915af49182156106fc5780926106c7575b50506106088461060360c0956106b861062298877fe346f5c97a360db5188bfa5d3ec5f0583abde420c6ba4d08b6cfe61addc171059e9f9861042f98169060808a01351661093a565b955050945050819897506105c4565b9091508782813d83116106f5575b6106df81836104b9565b810103126106f25750516106088461066f565b80fd5b503d6106d5565b8651903d90823e3d90fd5b6001600160a01b036107368861071d368d610a2b565b88518093819263505ba09b60e01b835260048301610af8565b0381875af4908115610796579085918491610765575b50918061076093169060808d01351661093a565b6105be565b8092508a8092503d831161078f575b61077e81836104b9565b81010312610139575184908261074c565b503d610774565b87513d85823e3d90fd5b9093508681813d83116107c8575b6107b881836104b9565b81010312610245575192386105b7565b503d6107ae565b508451903d90823e3d90fd5b9091508581813d8311610805575b6107f381836104b9565b810103126101395751906105a461057b565b503d6107e9565b84513d85823e3d90fd5b60405163abab6bd760e01b8152600490fd5b6040516337bf561360e11b8152600490fd5b61010080820135601e19833603018112156104b45782019081359167ffffffffffffffff83116104b4576020019180360383136104b45780604051938437822090610120809484378201522090565b600b90604051907f0000000000000000000000000000000000000000000000000000000000000000604083015260208201527f000000000000000000000000000000000000000000000000000000000000000081520160ff8153605590206001600160a01b031630036108f857565b604051635134a42560e11b8152600490fd5b63ffffffff8160e01c9160c01c1681018091116109245790565b634e487b7160e01b600052601160045260246000fd5b6001600160a01b03169190826109565761095492506109db565b565b9060446020926000926040519163a9059cbb60e01b83526004830152602482015282855af1908161099c575b501561098a57565b60405163fb7f507960e01b8152600490fd5b90503d156109b75750600160005114601f3d11165b38610982565b3b15156109b1565b67ffffffffffffffff81116104db57601f01601f191660200190565b600080809381935af13d15610a26573d6109f4816109bf565b90610a0260405192836104b9565b8152600060203d92013e5b15610a1457565b604051638a0332d560e01b8152600490fd5b610a0d565b91906101209283818303126104b45760405167ffffffffffffffff948101858111828210176104db57604052809482358252602090818401358284015260408401356040840152606084013560608401526080840135608084015260a084013560a084015260c084013560c084015260e084013560e084015261010093848101359182116104b457019084601f830112156104b4578135610acb816109bf565b95610ad960405197886104b9565b8187528282850101116104b45780826000940183880137850101520152565b6020916020825280516020830152602081015160408301526040810151606083015260608101516080830152608081015160a083015260a081015160c083015260c081015160e083015260e0810151906101009182840152015191610120808301528251928361014084015260005b848110610b8957505050610160916000838284010152601f8019910116010190565b81810183015184820161016001528201610b67565b919082039182116109245756fea26469706673582212200e618990f452d48c0db22d51cc498a6b3cf06d354bc6062d20337a62a647301d64736f6c63430008170033",
  "linkReferences": {
    "contracts/1inch/libraries/ImmutablesLib.sol": {
      "ImmutablesLib": [
        {
          "length": 20,
          "start": 1608
        }
      ]
    }
  },
  "deployedLinkReferences": {
    "contracts/1inch/libraries/ImmutablesLib.sol": {
      "ImmutablesLib": [
        {
          "length": 20,
          "start": 1336
        }
      ]
    }
  }
}