{
  "_format": "hh-sol-artifact-1",
  "contractName": "PreimagePredicate",
  "sourceName": "contracts/evm/PrimagePredicate.sol",
  "abi": [
    {
      "inputs": [
        {
          "internalType": "bytes32",
          "name": "secretHash",
          "type": "bytes32"
        },
        {
          "internalType": "uint256",
          "name": "expiry",
          "type": "uint256"
        },
        {
          "internalType": "bytes",
          "name": "preimage",
          "type": "bytes"
        }
      ],
      "name": "check",
      "outputs": [
        {
          "internalType": "bool",
          "name": "",
          "type": "bool"
        }
      ],
      "stateMutability": "view",
      "type": "function"
    }
  ],
  "bytecode": "0x608080604052346100165761014b908161001c8239f35b600080fdfe6080604052600436101561001257600080fd5b6000803560e01c634020a3011461002857600080fd5b3461008f57606036600319011261008f5760443567ffffffffffffffff9182821161008f573660238301121561008f57816004013592831161008f57366024848401011161008f5760206100858460248501602435600435610092565b6040519015158152f35b80fd5b9290421161010d5767ffffffffffffffff908181116100f75760405191601f8201601f19908116603f01168301908111838210176100f757604052808252602082019236828201116100f257816000926020928637830101525190201490565b600080fd5b634e487b7160e01b600052604160045260246000fd5b50505060009056fea2646970667358221220bec8868e0762eb26055beb5a6c31e4caa2c938285b0b6e355672e26fb423451064736f6c63430008170033",
  "linkReferences": {},
  "deployedLinkReferences": {}
}