{
  "_format": "hh-sol-artifact-1",
  "contractName": "PreimagePredicate",
  "sourceName": "contracts/evm/PrimagePredicate.sol",
  "abi": [
    {
      "inputs": [
        {
          "internalType": "bytes32",
          "name": "secretHash",
          "type": "bytes32"
        },
        {
          "internalType": "uint256",
          "name": "expiry",
          "type": "uint256"
        },
        {
          "internalType": "bytes",
          "name": "preimage",
          "type": "bytes"
        }
      ],
      "name": "check",
      "outputs": [
        {
          "internalType": "bool",
          "name": "",
          "type": "bool"
        }
      ],
      "stateMutability": "view",
      "type": "function"
    }
  ],
  "bytecode": "0x608060405234801561001057600080fd5b50610154806100206000396000f3fe608060405234801561001057600080fd5b506004361061002b5760003560e01c80634020a30114610030575b600080fd5b61004361003e36600461008e565b610057565b604051901515815260200160405180910390f35b60008342111561006957506000610086565b84838360405161007a92919061010e565b60405180910390201490505b949350505050565b600080600080606085870312156100a457600080fd5b8435935060208501359250604085013567ffffffffffffffff808211156100ca57600080fd5b818701915087601f8301126100de57600080fd5b8135818111156100ed57600080fd5b8860208285010111156100ff57600080fd5b95989497505060200194505050565b818382376000910190815291905056fea2646970667358221220008b8cce9563139de2857e1f6a7d93a04f7b6b734829b867bdab91113ced584364736f6c63430008140033",
  "linkReferences": {},
  "deployedLinkReferences": {}
}