{"contracts/evm/ETH_HTLC.sol":{"EthHTLC":{"abi":[{"anonymous":false,"inputs":[{"indexed":true,"internalType":"bytes32","name":"id","type":"bytes32"},{"indexed":true,"internalType":"address","name":"maker","type":"address"},{"indexed":false,"internalType":"address","name":"token","type":"address"},{"indexed":false,"internalType":"uint256","name":"amount","type":"uint256"},{"indexed":false,"internalType":"bytes32","name":"hashlock","type":"bytes32"},{"indexed":false,"internalType":"uint256","name":"timelock","type":"uint256"}],"name":"NewSwap","type":"event"},{"anonymous":false,"inputs":[{"indexed":true,"internalType":"bytes32","name":"id","type":"bytes32"}],"name":"Refund","type":"event"},{"anonymous":false,"inputs":[{"indexed":true,"internalType":"bytes32","name":"id","type":"bytes32"},{"indexed":false,"internalType":"bytes32","name":"preimage","type":"bytes32"},{"indexed":true,"internalType":"address","name":"to","type":"address"}],"name":"Withdraw","type":"event"},{"inputs":[{"internalType":"bytes32","name":"id","type":"bytes32"},{"internalType":"address","name":"token","type":"address"},{"internalType":"uint256","name":"amount","type":"uint256"},{"internalType":"bytes32","name":"hashlock","type":"bytes32"},{"internalType":"uint256","name":"timelock","type":"uint256"}],"name":"newSwap","outputs":[],"stateMutability":"nonpayable","type":"function"},{"inputs":[{"internalType":"bytes32","name":"id","type":"bytes32"}],"name":"refund","outputs":[],"stateMutability":"nonpayable","type":"function"},{"inputs":[{"internalType":"bytes32","name":"","type":"bytes32"}],"name":"swaps","outputs":[{"internalType":"address","name":"maker","type":"address"},{"internalType":"address","name":"token","type":"address"},{"internalType":"uint256","name":"amount","type":"uint256"},{"internalType":"bytes32","name":"hashlock","type":"bytes32"},{"internalType":"uint256","name":"timelock","type":"uint256"},{"internalType":"bool","name":"withdrawn","type":"bool"}],"stateMutability":"view","type":"function"},{"inputs":[{"internalType":"bytes32","name":"id","type":"bytes32"},{"internalType":"bytes32","name":"preimage","type":"bytes32"}],"name":"withdraw","outputs":[],"stateMutability":"nonpayable","type":"function"}],"evm":{"bytecode":{"linkReferences":{},"object":"6080806040523461001657610667908161001c8239f35b600080fdfe608060408181526004908136101561001657600080fd5b600092833560e01c908163267e6d97146103d45750806363615149146101ec5780637249fbb6146100be5763eb84e7f21461005057600080fd5b346100ba5760203660031901126100ba578060c09383358152806020522060018060a01b039283825416936001830154169260028301549060ff600560038601549486015495015416948151968752602087015285015260608401526080830152151560a0820152f35b8280fd5b50346100ba57602090816003193601126101e8578235928385528483528185206005810180546100f160ff8216156105f1565b8383015442106101b95760ff191660019081179091558101548154600290920154845163a9059cbb60e01b81526001600160a01b039384169481019485526020850191909152939285928592169082908990829060400103925af19081156101b05750610182575b50507f3fbd469ec3a5ce074f975f76ce27e727ba21c99176917b97ae2e713695582a128280a280f35b816101a192903d106101a9575b610199818361059c565b8101906105d4565b503880610159565b503d61018f565b513d86823e3d90fd5b845162461bcd60e51b81528085018790526009602482015268746f6f206561726c7960b81b6044820152606490fd5b8380fd5b509190346103d057826003193601126103d05780356024359181845260209084825285852060058101805461022460ff8216156105f1565b885187868201528581528981019080821067ffffffffffffffff8311176103bd57818a9188938d528c8151845b8181106103a357508490830191820152039060025afa1561039957875160038401540361036357838301544210156103335760ff19166001908117909155810154600290910154875163a9059cbb60e01b815233938101938452602084019190915295969183918791604090839003019082908a906001600160a01b03165af1948515610329577f10d00ecccaed0cce03368ed746d35d162eafc64858df0bda1575f055eef07a1b93949561030c575b50519384523393a380f35b61032290833d85116101a957610199818361059c565b5038610301565b81513d88823e3d90fd5b885162461bcd60e51b8152808501869052600a6024820152691d1a5b595b1bd8dad95960b21b6044820152606490fd5b885162461bcd60e51b8152808501869052601060248201526f696e76616c696420707265696d61676560801b6044820152606490fd5b88513d89823e3d90fd5b808401808801519301929092528a958e95508f9201610251565b634e487b7160e01b8a526041865260248afd5b5080fd5b91929050346101e85760a03660031901126101e8576001600160a01b0360243581811694833594909186900361059857604435906064359360843595878a526020928a845282868c20541661056b575084516323b872dd60e01b815233828201523060248201526044810185905283816064818e8e5af1801561056157610544575b5084519160c0830183811067ffffffffffffffff821117610531579188888d8d8d97956005978c52338752898701918252808c808901948d865260608a0196875260808a0197885260a08a019b818d528152808d5220975116906bffffffffffffffffffffffff60a01b918289541617885560018801925116908254161790555160028501555160038401555190820155019051151560ff80198354169116179055825196875286015284015260608301527f9a28a6867cb98cb878d32dff82f780ffdab8c2c739daeb18f416835dcf7276c660803393a380f35b634e487b7160e01b8c526041835260248cfd5b61055a90843d86116101a957610199818361059c565b5038610456565b86513d8d823e3d90fd5b8360649262461bcd60e51b8352820152600b60248201526a737761702065786973747360a81b6044820152fd5b8680fd5b90601f8019910116810190811067ffffffffffffffff8211176105be57604052565b634e487b7160e01b600052604160045260246000fd5b908160209103126105ec575180151581036105ec5790565b600080fd5b156105f857565b60405162461bcd60e51b815260206004820152601160248201527030b63932b0b23c903bb4ba34323930bbb760791b6044820152606490fdfea2646970667358221220a1d999c4252814a873720cd549277757b88af97f10c96fa86fb9eed4b3c5b50264736f6c63430008170033","opcodes":"PUSH1 0x80 DUP1 PUSH1 0x40 MSTORE CALLVALUE PUSH2 0x16 JUMPI PUSH2 0x667 SWAP1 DUP2 PUSH2 0x1C DUP3 CODECOPY RETURN JUMPDEST PUSH1 0x0 DUP1 REVERT INVALID PUSH1 0x80 PUSH1 0x40 DUP2 DUP2 MSTORE PUSH1 0x4 SWAP1 DUP2 CALLDATASIZE LT ISZERO PUSH2 0x16 JUMPI PUSH1 0x0 DUP1 REVERT JUMPDEST PUSH1 0x0 SWAP3 DUP4 CALLDATALOAD PUSH1 0xE0 SHR SWAP1 DUP2 PUSH4 0x267E6D97 EQ PUSH2 0x3D4 JUMPI POP DUP1 PUSH4 0x63615149 EQ PUSH2 0x1EC JUMPI DUP1 PUSH4 0x7249FBB6 EQ PUSH2 0xBE JUMPI PUSH4 0xEB84E7F2 EQ PUSH2 0x50 JUMPI PUSH1 0x0 DUP1 REVERT JUMPDEST CALLVALUE PUSH2 0xBA JUMPI PUSH1 0x20 CALLDATASIZE PUSH1 0x3 NOT ADD SLT PUSH2 0xBA JUMPI DUP1 PUSH1 0xC0 SWAP4 DUP4 CALLDATALOAD DUP2 MSTORE DUP1 PUSH1 0x20 MSTORE KECCAK256 PUSH1 0x1 DUP1 PUSH1 0xA0 SHL SUB SWAP3 DUP4 DUP3 SLOAD AND SWAP4 PUSH1 0x1 DUP4 ADD SLOAD AND SWAP3 PUSH1 0x2 DUP4 ADD SLOAD SWAP1 PUSH1 0xFF PUSH1 0x5 PUSH1 0x3 DUP7 ADD SLOAD SWAP5 DUP7 ADD SLOAD SWAP6 ADD SLOAD AND SWAP5 DUP2 MLOAD SWAP7 DUP8 MSTORE PUSH1 0x20 DUP8 ADD MSTORE DUP6 ADD MSTORE PUSH1 0x60 DUP5 ADD MSTORE PUSH1 0x80 DUP4 ADD MSTORE ISZERO ISZERO PUSH1 0xA0 DUP3 ADD MSTORE RETURN JUMPDEST DUP3 DUP1 REVERT JUMPDEST POP CALLVALUE PUSH2 0xBA JUMPI PUSH1 0x20 SWAP1 DUP2 PUSH1 0x3 NOT CALLDATASIZE ADD SLT PUSH2 0x1E8 JUMPI DUP3 CALLDATALOAD SWAP3 DUP4 DUP6 MSTORE DUP5 DUP4 MSTORE DUP2 DUP6 KECCAK256 PUSH1 0x5 DUP2 ADD DUP1 SLOAD PUSH2 0xF1 PUSH1 0xFF DUP3 AND ISZERO PUSH2 0x5F1 JUMP JUMPDEST DUP4 DUP4 ADD SLOAD TIMESTAMP LT PUSH2 0x1B9 JUMPI PUSH1 0xFF NOT AND PUSH1 0x1 SWAP1 DUP2 OR SWAP1 SWAP2 SSTORE DUP2 ADD SLOAD DUP2 SLOAD PUSH1 0x2 SWAP1 SWAP3 ADD SLOAD DUP5 MLOAD PUSH4 0xA9059CBB PUSH1 0xE0 SHL DUP2 MSTORE PUSH1 0x1 PUSH1 0x1 PUSH1 0xA0 SHL SUB SWAP4 DUP5 AND SWAP5 DUP2 ADD SWAP5 DUP6 MSTORE PUSH1 0x20 DUP6 ADD SWAP2 SWAP1 SWAP2 MSTORE SWAP4 SWAP3 DUP6 SWAP3 DUP6 SWAP3 AND SWAP1 DUP3 SWAP1 DUP10 SWAP1 DUP3 SWAP1 PUSH1 0x40 ADD SUB SWAP3 GAS CALL SWAP1 DUP2 ISZERO PUSH2 0x1B0 JUMPI POP PUSH2 0x182 JUMPI JUMPDEST POP POP PUSH32 0x3FBD469EC3A5CE074F975F76CE27E727BA21C99176917B97AE2E713695582A12 DUP3 DUP1 LOG2 DUP1 RETURN JUMPDEST DUP2 PUSH2 0x1A1 SWAP3 SWAP1 RETURNDATASIZE LT PUSH2 0x1A9 JUMPI JUMPDEST PUSH2 0x199 DUP2 DUP4 PUSH2 0x59C JUMP JUMPDEST DUP2 ADD SWAP1 PUSH2 0x5D4 JUMP JUMPDEST POP CODESIZE DUP1 PUSH2 0x159 JUMP JUMPDEST POP RETURNDATASIZE PUSH2 0x18F JUMP JUMPDEST MLOAD RETURNDATASIZE DUP7 DUP3 RETURNDATACOPY RETURNDATASIZE SWAP1 REVERT JUMPDEST DUP5 MLOAD PUSH3 0x461BCD PUSH1 0xE5 SHL DUP2 MSTORE DUP1 DUP6 ADD DUP8 SWAP1 MSTORE PUSH1 0x9 PUSH1 0x24 DUP3 ADD MSTORE PUSH9 0x746F6F206561726C79 PUSH1 0xB8 SHL PUSH1 0x44 DUP3 ADD MSTORE PUSH1 0x64 SWAP1 REVERT JUMPDEST DUP4 DUP1 REVERT JUMPDEST POP SWAP2 SWAP1 CALLVALUE PUSH2 0x3D0 JUMPI DUP3 PUSH1 0x3 NOT CALLDATASIZE ADD SLT PUSH2 0x3D0 JUMPI DUP1 CALLDATALOAD PUSH1 0x24 CALLDATALOAD SWAP2 DUP2 DUP5 MSTORE PUSH1 0x20 SWAP1 DUP5 DUP3 MSTORE DUP6 DUP6 KECCAK256 PUSH1 0x5 DUP2 ADD DUP1 SLOAD PUSH2 0x224 PUSH1 0xFF DUP3 AND ISZERO PUSH2 0x5F1 JUMP JUMPDEST DUP9 MLOAD DUP8 DUP7 DUP3 ADD MSTORE DUP6 DUP2 MSTORE DUP10 DUP2 ADD SWAP1 DUP1 DUP3 LT PUSH8 0xFFFFFFFFFFFFFFFF DUP4 GT OR PUSH2 0x3BD JUMPI DUP2 DUP11 SWAP2 DUP9 SWAP4 DUP14 MSTORE DUP13 DUP2 MLOAD DUP5 JUMPDEST DUP2 DUP2 LT PUSH2 0x3A3 JUMPI POP DUP5 SWAP1 DUP4 ADD SWAP2 DUP3 ADD MSTORE SUB SWAP1 PUSH1 0x2 GAS STATICCALL ISZERO PUSH2 0x399 JUMPI DUP8 MLOAD PUSH1 0x3 DUP5 ADD SLOAD SUB PUSH2 0x363 JUMPI DUP4 DUP4 ADD SLOAD TIMESTAMP LT ISZERO PUSH2 0x333 JUMPI PUSH1 0xFF NOT AND PUSH1 0x1 SWAP1 DUP2 OR SWAP1 SWAP2 SSTORE DUP2 ADD SLOAD PUSH1 0x2 SWAP1 SWAP2 ADD SLOAD DUP8 MLOAD PUSH4 0xA9059CBB PUSH1 0xE0 SHL DUP2 MSTORE CALLER SWAP4 DUP2 ADD SWAP4 DUP5 MSTORE PUSH1 0x20 DUP5 ADD SWAP2 SWAP1 SWAP2 MSTORE SWAP6 SWAP7 SWAP2 DUP4 SWAP2 DUP8 SWAP2 PUSH1 0x40 SWAP1 DUP4 SWAP1 SUB ADD SWAP1 DUP3 SWAP1 DUP11 SWAP1 PUSH1 0x1 PUSH1 0x1 PUSH1 0xA0 SHL SUB AND GAS CALL SWAP5 DUP6 ISZERO PUSH2 0x329 JUMPI PUSH32 0x10D00ECCCAED0CCE03368ED746D35D162EAFC64858DF0BDA1575F055EEF07A1B SWAP4 SWAP5 SWAP6 PUSH2 0x30C JUMPI JUMPDEST POP MLOAD SWAP4 DUP5 MSTORE CALLER SWAP4 LOG3 DUP1 RETURN JUMPDEST PUSH2 0x322 SWAP1 DUP4 RETURNDATASIZE DUP6 GT PUSH2 0x1A9 JUMPI PUSH2 0x199 DUP2 DUP4 PUSH2 0x59C JUMP JUMPDEST POP CODESIZE PUSH2 0x301 JUMP JUMPDEST DUP2 MLOAD RETURNDATASIZE DUP9 DUP3 RETURNDATACOPY RETURNDATASIZE SWAP1 REVERT JUMPDEST DUP9 MLOAD PUSH3 0x461BCD PUSH1 0xE5 SHL DUP2 MSTORE DUP1 DUP6 ADD DUP7 SWAP1 MSTORE PUSH1 0xA PUSH1 0x24 DUP3 ADD MSTORE PUSH10 0x1D1A5B595B1BD8DAD959 PUSH1 0xB2 SHL PUSH1 0x44 DUP3 ADD MSTORE PUSH1 0x64 SWAP1 REVERT JUMPDEST DUP9 MLOAD PUSH3 0x461BCD PUSH1 0xE5 SHL DUP2 MSTORE DUP1 DUP6 ADD DUP7 SWAP1 MSTORE PUSH1 0x10 PUSH1 0x24 DUP3 ADD MSTORE PUSH16 0x696E76616C696420707265696D616765 PUSH1 0x80 SHL PUSH1 0x44 DUP3 ADD MSTORE PUSH1 0x64 SWAP1 REVERT JUMPDEST DUP9 MLOAD RETURNDATASIZE DUP10 DUP3 RETURNDATACOPY RETURNDATASIZE SWAP1 REVERT JUMPDEST DUP1 DUP5 ADD DUP1 DUP9 ADD MLOAD SWAP4 ADD SWAP3 SWAP1 SWAP3 MSTORE DUP11 SWAP6 DUP15 SWAP6 POP DUP16 SWAP3 ADD PUSH2 0x251 JUMP JUMPDEST PUSH4 0x4E487B71 PUSH1 0xE0 SHL DUP11 MSTORE PUSH1 0x41 DUP7 MSTORE PUSH1 0x24 DUP11 REVERT JUMPDEST POP DUP1 REVERT JUMPDEST SWAP2 SWAP3 SWAP1 POP CALLVALUE PUSH2 0x1E8 JUMPI PUSH1 0xA0 CALLDATASIZE PUSH1 0x3 NOT ADD SLT PUSH2 0x1E8 JUMPI PUSH1 0x1 PUSH1 0x1 PUSH1 0xA0 SHL SUB PUSH1 0x24 CALLDATALOAD DUP2 DUP2 AND SWAP5 DUP4 CALLDATALOAD SWAP5 SWAP1 SWAP2 DUP7 SWAP1 SUB PUSH2 0x598 JUMPI PUSH1 0x44 CALLDATALOAD SWAP1 PUSH1 0x64 CALLDATALOAD SWAP4 PUSH1 0x84 CALLDATALOAD SWAP6 DUP8 DUP11 MSTORE PUSH1 0x20 SWAP3 DUP11 DUP5 MSTORE DUP3 DUP7 DUP13 KECCAK256 SLOAD AND PUSH2 0x56B JUMPI POP DUP5 MLOAD PUSH4 0x23B872DD PUSH1 0xE0 SHL DUP2 MSTORE CALLER DUP3 DUP3 ADD MSTORE ADDRESS PUSH1 0x24 DUP3 ADD MSTORE PUSH1 0x44 DUP2 ADD DUP6 SWAP1 MSTORE DUP4 DUP2 PUSH1 0x64 DUP2 DUP15 DUP15 GAS CALL DUP1 ISZERO PUSH2 0x561 JUMPI PUSH2 0x544 JUMPI JUMPDEST POP DUP5 MLOAD SWAP2 PUSH1 0xC0 DUP4 ADD DUP4 DUP2 LT PUSH8 0xFFFFFFFFFFFFFFFF DUP3 GT OR PUSH2 0x531 JUMPI SWAP2 DUP9 DUP9 DUP14 DUP14 DUP14 SWAP8 SWAP6 PUSH1 0x5 SWAP8 DUP13 MSTORE CALLER DUP8 MSTORE DUP10 DUP8 ADD SWAP2 DUP3 MSTORE DUP1 DUP13 DUP1 DUP10 ADD SWAP5 DUP14 DUP7 MSTORE PUSH1 0x60 DUP11 ADD SWAP7 DUP8 MSTORE PUSH1 0x80 DUP11 ADD SWAP8 DUP9 MSTORE PUSH1 0xA0 DUP11 ADD SWAP12 DUP2 DUP14 MSTORE DUP2 MSTORE DUP1 DUP14 MSTORE KECCAK256 SWAP8 MLOAD AND SWAP1 PUSH12 0xFFFFFFFFFFFFFFFFFFFFFFFF PUSH1 0xA0 SHL SWAP2 DUP3 DUP10 SLOAD AND OR DUP9 SSTORE PUSH1 0x1 DUP9 ADD SWAP3 MLOAD AND SWAP1 DUP3 SLOAD AND OR SWAP1 SSTORE MLOAD PUSH1 0x2 DUP6 ADD SSTORE MLOAD PUSH1 0x3 DUP5 ADD SSTORE MLOAD SWAP1 DUP3 ADD SSTORE ADD SWAP1 MLOAD ISZERO ISZERO PUSH1 0xFF DUP1 NOT DUP4 SLOAD AND SWAP2 AND OR SWAP1 SSTORE DUP3 MLOAD SWAP7 DUP8 MSTORE DUP7 ADD MSTORE DUP5 ADD MSTORE PUSH1 0x60 DUP4 ADD MSTORE PUSH32 0x9A28A6867CB98CB878D32DFF82F780FFDAB8C2C739DAEB18F416835DCF7276C6 PUSH1 0x80 CALLER SWAP4 LOG3 DUP1 RETURN JUMPDEST PUSH4 0x4E487B71 PUSH1 0xE0 SHL DUP13 MSTORE PUSH1 0x41 DUP4 MSTORE PUSH1 0x24 DUP13 REVERT JUMPDEST PUSH2 0x55A SWAP1 DUP5 RETURNDATASIZE DUP7 GT PUSH2 0x1A9 JUMPI PUSH2 0x199 DUP2 DUP4 PUSH2 0x59C JUMP JUMPDEST POP CODESIZE PUSH2 0x456 JUMP JUMPDEST DUP7 MLOAD RETURNDATASIZE DUP14 DUP3 RETURNDATACOPY RETURNDATASIZE SWAP1 REVERT JUMPDEST DUP4 PUSH1 0x64 SWAP3 PUSH3 0x461BCD PUSH1 0xE5 SHL DUP4 MSTORE DUP3 ADD MSTORE PUSH1 0xB PUSH1 0x24 DUP3 ADD MSTORE PUSH11 0x7377617020657869737473 PUSH1 0xA8 SHL PUSH1 0x44 DUP3 ADD MSTORE REVERT JUMPDEST DUP7 DUP1 REVERT JUMPDEST SWAP1 PUSH1 0x1F DUP1 NOT SWAP2 ADD AND DUP2 ADD SWAP1 DUP2 LT PUSH8 0xFFFFFFFFFFFFFFFF DUP3 GT OR PUSH2 0x5BE JUMPI PUSH1 0x40 MSTORE JUMP JUMPDEST PUSH4 0x4E487B71 PUSH1 0xE0 SHL PUSH1 0x0 MSTORE PUSH1 0x41 PUSH1 0x4 MSTORE PUSH1 0x24 PUSH1 0x0 REVERT JUMPDEST SWAP1 DUP2 PUSH1 0x20 SWAP2 SUB SLT PUSH2 0x5EC JUMPI MLOAD DUP1 ISZERO ISZERO DUP2 SUB PUSH2 0x5EC JUMPI SWAP1 JUMP JUMPDEST PUSH1 0x0 DUP1 REVERT JUMPDEST ISZERO PUSH2 0x5F8 JUMPI JUMP JUMPDEST PUSH1 0x40 MLOAD PUSH3 0x461BCD PUSH1 0xE5 SHL DUP2 MSTORE PUSH1 0x20 PUSH1 0x4 DUP3 ADD MSTORE PUSH1 0x11 PUSH1 0x24 DUP3 ADD MSTORE PUSH17 0x30B63932B0B23C903BB4BA34323930BBB7 PUSH1 0x79 SHL PUSH1 0x44 DUP3 ADD MSTORE PUSH1 0x64 SWAP1 REVERT INVALID LOG2 PUSH5 0x6970667358 0x22 SLT KECCAK256 LOG1 0xD9 SWAP10 0xC4 0x25 0x28 EQ 0xA8 PUSH20 0x720CD549277757B88AF97F10C96FA86FB9EED4B3 0xC5 0xB5 MUL PUSH5 0x736F6C6343 STOP ADDMOD OR STOP CALLER "},"methodIdentifiers":{"newSwap(bytes32,address,uint256,bytes32,uint256)":"267e6d97","refund(bytes32)":"7249fbb6","swaps(bytes32)":"eb84e7f2","withdraw(bytes32,bytes32)":"63615149"}}}}}