{
  "_format": "hh-sol-artifact-1",
  "contractName": "EscrowFactory",
  "sourceName": "contracts/1inch/EscrowFactory.sol",
  "abi": [
    {
      "inputs": [
        {
          "internalType": "address",
          "name": "limitOrderProtocol",
          "type": "address"
        },
        {
          "internalType": "contract IERC20",
          "name": "accessToken",
          "type": "address"
        },
        {
          "internalType": "address",
          "name": "owner",
          "type": "address"
        },
        {
          "internalType": "uint32",
          "name": "rescueDelaySrc",
          "type": "uint32"
        },
        {
          "internalType": "uint32",
          "name": "rescueDelayDst",
          "type": "uint32"
        }
      ],
      "stateMutability": "nonpayable",
      "type": "constructor"
    },
    {
      "inputs": [],
      "name": "AccessDenied",
      "type": "error"
    },
    {
      "inputs": [],
      "name": "AllowedTimeViolation",
      "type": "error"
    },
    {
      "inputs": [],
      "name": "ETHTransferFailed",
      "type": "error"
    },
    {
      "inputs": [],
      "name": "EthTransferFailed",
      "type": "error"
    },
    {
      "inputs": [],
      "name": "FailedDeployment",
      "type": "error"
    },
    {
      "inputs": [],
      "name": "InconsistentFee",
      "type": "error"
    },
    {
      "inputs": [],
      "name": "InsufficientBalance",
      "type": "error"
    },
    {
      "inputs": [
        {
          "internalType": "uint256",
          "name": "balance",
          "type": "uint256"
        },
        {
          "internalType": "uint256",
          "name": "needed",
          "type": "uint256"
        }
      ],
      "name": "InsufficientBalance",
      "type": "error"
    },
    {
      "inputs": [],
      "name": "InsufficientEscrowBalance",
      "type": "error"
    },
    {
      "inputs": [],
      "name": "InvalidCreationTime",
      "type": "error"
    },
    {
      "inputs": [],
      "name": "InvalidEstimatedTakingAmount",
      "type": "error"
    },
    {
      "inputs": [],
      "name": "InvalidIntegratorShare",
      "type": "error"
    },
    {
      "inputs": [],
      "name": "InvalidPartialFill",
      "type": "error"
    },
    {
      "inputs": [],
      "name": "InvalidProof",
      "type": "error"
    },
    {
      "inputs": [],
      "name": "InvalidProtocolSurplusFee",
      "type": "error"
    },
    {
      "inputs": [],
      "name": "InvalidSecretsAmount",
      "type": "error"
    },
    {
      "inputs": [],
      "name": "InvalidWhitelistDiscountNumerator",
      "type": "error"
    },
    {
      "inputs": [],
      "name": "OnlyLimitOrderProtocol",
      "type": "error"
    },
    {
      "inputs": [],
      "name": "OnlyWhitelistOrAccessToken",
      "type": "error"
    },
    {
      "inputs": [
        {
          "internalType": "address",
          "name": "owner",
          "type": "address"
        }
      ],
      "name": "OwnableInvalidOwner",
      "type": "error"
    },
    {
      "inputs": [
        {
          "internalType": "address",
          "name": "account",
          "type": "address"
        }
      ],
      "name": "OwnableUnauthorizedAccount",
      "type": "error"
    },
    {
      "inputs": [],
      "name": "SafeTransferFailed",
      "type": "error"
    },
    {
      "inputs": [],
      "name": "SafeTransferFromFailed",
      "type": "error"
    },
    {
      "anonymous": false,
      "inputs": [
        {
          "indexed": false,
          "internalType": "address",
          "name": "escrow",
          "type": "address"
        },
        {
          "indexed": false,
          "internalType": "bytes32",
          "name": "hashlock",
          "type": "bytes32"
        },
        {
          "indexed": false,
          "internalType": "Address",
          "name": "taker",
          "type": "uint256"
        }
      ],
      "name": "DstEscrowCreated",
      "type": "event"
    },
    {
      "anonymous": false,
      "inputs": [
        {
          "indexed": true,
          "internalType": "address",
          "name": "previousOwner",
          "type": "address"
        },
        {
          "indexed": true,
          "internalType": "address",
          "name": "newOwner",
          "type": "address"
        }
      ],
      "name": "OwnershipTransferred",
      "type": "event"
    },
    {
      "anonymous": false,
      "inputs": [
        {
          "components": [
            {
              "internalType": "bytes32",
              "name": "orderHash",
              "type": "bytes32"
            },
            {
              "internalType": "bytes32",
              "name": "hashlock",
              "type": "bytes32"
            },
            {
              "internalType": "Address",
              "name": "maker",
              "type": "uint256"
            },
            {
              "internalType": "Address",
              "name": "taker",
              "type": "uint256"
            },
            {
              "internalType": "Address",
              "name": "token",
              "type": "uint256"
            },
            {
              "internalType": "uint256",
              "name": "amount",
              "type": "uint256"
            },
            {
              "internalType": "uint256",
              "name": "safetyDeposit",
              "type": "uint256"
            },
            {
              "internalType": "Timelocks",
              "name": "timelocks",
              "type": "uint256"
            },
            {
              "internalType": "bytes",
              "name": "parameters",
              "type": "bytes"
            }
          ],
          "indexed": false,
          "internalType": "struct IBaseEscrow.Immutables",
          "name": "srcImmutables",
          "type": "tuple"
        },
        {
          "components": [
            {
              "internalType": "Address",
              "name": "maker",
              "type": "uint256"
            },
            {
              "internalType": "uint256",
              "name": "amount",
              "type": "uint256"
            },
            {
              "internalType": "Address",
              "name": "token",
              "type": "uint256"
            },
            {
              "internalType": "uint256",
              "name": "safetyDeposit",
              "type": "uint256"
            },
            {
              "internalType": "uint256",
              "name": "chainId",
              "type": "uint256"
            },
            {
              "internalType": "bytes",
              "name": "parameters",
              "type": "bytes"
            }
          ],
          "indexed": false,
          "internalType": "struct IEscrowFactory.DstImmutablesComplement",
          "name": "dstImmutablesComplement",
          "type": "tuple"
        }
      ],
      "name": "SrcEscrowCreated",
      "type": "event"
    },
    {
      "inputs": [],
      "name": "ESCROW_DST_IMPLEMENTATION",
      "outputs": [
        {
          "internalType": "address",
          "name": "",
          "type": "address"
        }
      ],
      "stateMutability": "view",
      "type": "function"
    },
    {
      "inputs": [],
      "name": "ESCROW_SRC_IMPLEMENTATION",
      "outputs": [
        {
          "internalType": "address",
          "name": "",
          "type": "address"
        }
      ],
      "stateMutability": "view",
      "type": "function"
    },
    {
      "inputs": [
        {
          "components": [
            {
              "internalType": "bytes32",
              "name": "orderHash",
              "type": "bytes32"
            },
            {
              "internalType": "bytes32",
              "name": "hashlock",
              "type": "bytes32"
            },
            {
              "internalType": "Address",
              "name": "maker",
              "type": "uint256"
            },
            {
              "internalType": "Address",
              "name": "taker",
              "type": "uint256"
            },
            {
              "internalType": "Address",
              "name": "token",
              "type": "uint256"
            },
            {
              "internalType": "uint256",
              "name": "amount",
              "type": "uint256"
            },
            {
              "internalType": "uint256",
              "name": "safetyDeposit",
              "type": "uint256"
            },
            {
              "internalType": "Timelocks",
              "name": "timelocks",
              "type": "uint256"
            },
            {
              "internalType": "bytes",
              "name": "parameters",
              "type": "bytes"
            }
          ],
          "internalType": "struct IBaseEscrow.Immutables",
          "name": "immutables",
          "type": "tuple"
        }
      ],
      "name": "addressOfEscrowDst",
      "outputs": [
        {
          "internalType": "address",
          "name": "",
          "type": "address"
        }
      ],
      "stateMutability": "view",
      "type": "function"
    },
    {
      "inputs": [
        {
          "components": [
            {
              "internalType": "bytes32",
              "name": "orderHash",
              "type": "bytes32"
            },
            {
              "internalType": "bytes32",
              "name": "hashlock",
              "type": "bytes32"
            },
            {
              "internalType": "Address",
              "name": "maker",
              "type": "uint256"
            },
            {
              "internalType": "Address",
              "name": "taker",
              "type": "uint256"
            },
            {
              "internalType": "Address",
              "name": "token",
              "type": "uint256"
            },
            {
              "internalType": "uint256",
              "name": "amount",
              "type": "uint256"
            },
            {
              "internalType": "uint256",
              "name": "safetyDeposit",
              "type": "uint256"
            },
            {
              "internalType": "Timelocks",
              "name": "timelocks",
              "type": "uint256"
            },
            {
              "internalType": "bytes",
              "name": "parameters",
              "type": "bytes"
            }
          ],
          "internalType": "struct IBaseEscrow.Immutables",
          "name": "immutables",
          "type": "tuple"
        }
      ],
      "name": "addressOfEscrowSrc",
      "outputs": [
        {
          "internalType": "address",
          "name": "",
          "type": "address"
        }
      ],
      "stateMutability": "view",
      "type": "function"
    },
    {
      "inputs": [
        {
          "components": [
            {
              "internalType": "bytes32",
              "name": "orderHash",
              "type": "bytes32"
            },
            {
              "internalType": "bytes32",
              "name": "hashlock",
              "type": "bytes32"
            },
            {
              "internalType": "Address",
              "name": "maker",
              "type": "uint256"
            },
            {
              "internalType": "Address",
              "name": "taker",
              "type": "uint256"
            },
            {
              "internalType": "Address",
              "name": "token",
              "type": "uint256"
            },
            {
              "internalType": "uint256",
              "name": "amount",
              "type": "uint256"
            },
            {
              "internalType": "uint256",
              "name": "safetyDeposit",
              "type": "uint256"
            },
            {
              "internalType": "Timelocks",
              "name": "timelocks",
              "type": "uint256"
            },
            {
              "internalType": "bytes",
              "name": "parameters",
              "type": "bytes"
            }
          ],
          "internalType": "struct IBaseEscrow.Immutables",
          "name": "dstImmutables",
          "type": "tuple"
        },
        {
          "internalType": "uint256",
          "name": "srcCancellationTimestamp",
          "type": "uint256"
        }
      ],
      "name": "createDstEscrow",
      "outputs": [],
      "stateMutability": "payable",
      "type": "function"
    },
    {
      "inputs": [
        {
          "components": [
            {
              "internalType": "uint256",
              "name": "salt",
              "type": "uint256"
            },
            {
              "internalType": "Address",
              "name": "maker",
              "type": "uint256"
            },
            {
              "internalType": "Address",
              "name": "receiver",
              "type": "uint256"
            },
            {
              "internalType": "Address",
              "name": "makerAsset",
              "type": "uint256"
            },
            {
              "internalType": "Address",
              "name": "takerAsset",
              "type": "uint256"
            },
            {
              "internalType": "uint256",
              "name": "makingAmount",
              "type": "uint256"
            },
            {
              "internalType": "uint256",
              "name": "takingAmount",
              "type": "uint256"
            },
            {
              "internalType": "MakerTraits",
              "name": "makerTraits",
              "type": "uint256"
            }
          ],
          "internalType": "struct IOrderMixin.Order",
          "name": "order",
          "type": "tuple"
        },
        {
          "internalType": "bytes",
          "name": "extension",
          "type": "bytes"
        },
        {
          "internalType": "bytes32",
          "name": "orderHash",
          "type": "bytes32"
        },
        {
          "internalType": "address",
          "name": "taker",
          "type": "address"
        },
        {
          "internalType": "uint256",
          "name": "takingAmount",
          "type": "uint256"
        },
        {
          "internalType": "uint256",
          "name": "remainingMakingAmount",
          "type": "uint256"
        },
        {
          "internalType": "bytes",
          "name": "extraData",
          "type": "bytes"
        }
      ],
      "name": "getMakingAmount",
      "outputs": [
        {
          "internalType": "uint256",
          "name": "",
          "type": "uint256"
        }
      ],
      "stateMutability": "view",
      "type": "function"
    },
    {
      "inputs": [
        {
          "components": [
            {
              "internalType": "uint256",
              "name": "salt",
              "type": "uint256"
            },
            {
              "internalType": "Address",
              "name": "maker",
              "type": "uint256"
            },
            {
              "internalType": "Address",
              "name": "receiver",
              "type": "uint256"
            },
            {
              "internalType": "Address",
              "name": "makerAsset",
              "type": "uint256"
            },
            {
              "internalType": "Address",
              "name": "takerAsset",
              "type": "uint256"
            },
            {
              "internalType": "uint256",
              "name": "makingAmount",
              "type": "uint256"
            },
            {
              "internalType": "uint256",
              "name": "takingAmount",
              "type": "uint256"
            },
            {
              "internalType": "MakerTraits",
              "name": "makerTraits",
              "type": "uint256"
            }
          ],
          "internalType": "struct IOrderMixin.Order",
          "name": "order",
          "type": "tuple"
        },
        {
          "internalType": "bytes",
          "name": "extension",
          "type": "bytes"
        },
        {
          "internalType": "bytes32",
          "name": "orderHash",
          "type": "bytes32"
        },
        {
          "internalType": "address",
          "name": "taker",
          "type": "address"
        },
        {
          "internalType": "uint256",
          "name": "makingAmount",
          "type": "uint256"
        },
        {
          "internalType": "uint256",
          "name": "remainingMakingAmount",
          "type": "uint256"
        },
        {
          "internalType": "bytes",
          "name": "extraData",
          "type": "bytes"
        }
      ],
      "name": "getTakingAmount",
      "outputs": [
        {
          "internalType": "uint256",
          "name": "",
          "type": "uint256"
        }
      ],
      "stateMutability": "view",
      "type": "function"
    },
    {
      "inputs": [
        {
          "internalType": "bytes32",
          "name": "key",
          "type": "bytes32"
        }
      ],
      "name": "lastValidated",
      "outputs": [
        {
          "internalType": "uint256",
          "name": "index",
          "type": "uint256"
        },
        {
          "internalType": "bytes32",
          "name": "leaf",
          "type": "bytes32"
        }
      ],
      "stateMutability": "view",
      "type": "function"
    },
    {
      "inputs": [],
      "name": "owner",
      "outputs": [
        {
          "internalType": "address",
          "name": "",
          "type": "address"
        }
      ],
      "stateMutability": "view",
      "type": "function"
    },
    {
      "inputs": [
        {
          "components": [
            {
              "internalType": "uint256",
              "name": "salt",
              "type": "uint256"
            },
            {
              "internalType": "Address",
              "name": "maker",
              "type": "uint256"
            },
            {
              "internalType": "Address",
              "name": "receiver",
              "type": "uint256"
            },
            {
              "internalType": "Address",
              "name": "makerAsset",
              "type": "uint256"
            },
            {
              "internalType": "Address",
              "name": "takerAsset",
              "type": "uint256"
            },
            {
              "internalType": "uint256",
              "name": "makingAmount",
              "type": "uint256"
            },
            {
              "internalType": "uint256",
              "name": "takingAmount",
              "type": "uint256"
            },
            {
              "internalType": "MakerTraits",
              "name": "makerTraits",
              "type": "uint256"
            }
          ],
          "internalType": "struct IOrderMixin.Order",
          "name": "order",
          "type": "tuple"
        },
        {
          "internalType": "bytes",
          "name": "extension",
          "type": "bytes"
        },
        {
          "internalType": "bytes32",
          "name": "orderHash",
          "type": "bytes32"
        },
        {
          "internalType": "address",
          "name": "taker",
          "type": "address"
        },
        {
          "internalType": "uint256",
          "name": "makingAmount",
          "type": "uint256"
        },
        {
          "internalType": "uint256",
          "name": "takingAmount",
          "type": "uint256"
        },
        {
          "internalType": "uint256",
          "name": "remainingMakingAmount",
          "type": "uint256"
        },
        {
          "internalType": "bytes",
          "name": "extraData",
          "type": "bytes"
        }
      ],
      "name": "postInteraction",
      "outputs": [],
      "stateMutability": "nonpayable",
      "type": "function"
    },
    {
      "inputs": [],
      "name": "renounceOwnership",
      "outputs": [],
      "stateMutability": "nonpayable",
      "type": "function"
    },
    {
      "inputs": [
        {
          "internalType": "contract IERC20",
          "name": "token",
          "type": "address"
        },
        {
          "internalType": "uint256",
          "name": "amount",
          "type": "uint256"
        }
      ],
      "name": "rescueFunds",
      "outputs": [],
      "stateMutability": "nonpayable",
      "type": "function"
    },
    {
      "inputs": [
        {
          "components": [
            {
              "internalType": "uint256",
              "name": "salt",
              "type": "uint256"
            },
            {
              "internalType": "Address",
              "name": "maker",
              "type": "uint256"
            },
            {
              "internalType": "Address",
              "name": "receiver",
              "type": "uint256"
            },
            {
              "internalType": "Address",
              "name": "makerAsset",
              "type": "uint256"
            },
            {
              "internalType": "Address",
              "name": "takerAsset",
              "type": "uint256"
            },
            {
              "internalType": "uint256",
              "name": "makingAmount",
              "type": "uint256"
            },
            {
              "internalType": "uint256",
              "name": "takingAmount",
              "type": "uint256"
            },
            {
              "internalType": "MakerTraits",
              "name": "makerTraits",
              "type": "uint256"
            }
          ],
          "internalType": "struct IOrderMixin.Order",
          "name": "",
          "type": "tuple"
        },
        {
          "internalType": "bytes",
          "name": "extension",
          "type": "bytes"
        },
        {
          "internalType": "bytes32",
          "name": "orderHash",
          "type": "bytes32"
        },
        {
          "internalType": "address",
          "name": "",
          "type": "address"
        },
        {
          "internalType": "uint256",
          "name": "",
          "type": "uint256"
        },
        {
          "internalType": "uint256",
          "name": "",
          "type": "uint256"
        },
        {
          "internalType": "uint256",
          "name": "",
          "type": "uint256"
        },
        {
          "internalType": "bytes",
          "name": "extraData",
          "type": "bytes"
        }
      ],
      "name": "takerInteraction",
      "outputs": [],
      "stateMutability": "nonpayable",
      "type": "function"
    },
    {
      "inputs": [
        {
          "internalType": "address",
          "name": "newOwner",
          "type": "address"
        }
      ],
      "name": "transferOwnership",
      "outputs": [],
      "stateMutability": "nonpayable",
      "type": "function"
    },
    {
      "stateMutability": "payable",
      "type": "receive"
    }
  ],
  "bytecode": "0x61018034620002e9576001600160401b03601f62003c2438819003918201601f19168401919083831185841017620002ee578160a09286926040958652833981010312620002e957620000528362000304565b602084015190926001600160a01b03918281168103620002e9576200007984870162000304565b95836200009760806200008f6060850162000319565b930162000319565b9716908115620002d157600080546001600160a01b03198116841782558751919891939087167f8be0079c531659141344cd1fd0a4f28419497f9722a3daafe3b4186f6b6457e08a80a3806080528760a0528360c05260e052610b798083019083821086831117620002bd57839262000132928692620030ab863963ffffffff90911681526001600160a01b03909116602082015260400190565b039086f0958615620002b3578361010097168752845192610cf180850191858310908311176200029f57918493916200018b93620023ba863963ffffffff90911681526001600160a01b03909116602082015260400190565b039084f0928315620002945750806101209316835262000234620001eb82865116763d602d80600a3d3981f3363d3d373d3d3d363d73000000906e5af43d82803e903d91602b57fd5bf36020528060115260881c17600052603760092090565b91610140928352845116763d602d80600a3d3981f3363d3d373d3d3d363d73000000906e5af43d82803e903d91602b57fd5bf36020528060115260881c17600052603760092090565b91610160928352519261208e94856200032c863960805185610a34015260a05185505060c051856110f0015260e051856105f50152518481816109e40152610ea001525183818161030b015261056b0152518260e0015251816105b50152f35b8251903d90823e3d90fd5b634e487b7160e01b88526041600452602488fd5b84513d87823e3d90fd5b634e487b7160e01b89526041600452602489fd5b8551631e4fbdf760e01b815260006004820152602490fd5b600080fd5b634e487b7160e01b600052604160045260246000fd5b51906001600160a01b0382168203620002e957565b519063ffffffff82168203620002e95756fe6080604052600436101561001b575b361561001957600080fd5b005b6000803560e01c80631d9671c3146111f3578063462ebde214610a135780637040f173146109ce578063715018a61461097457806378e3214f146108385780638da5cb5b14610811578063acf4ce5c146107dd578063adf38ba1146105da578063b4bf21c21461059a578063ba55117714610555578063d7ff8a80146104b7578063ede88f38146101b1578063f2fde38b1461011a5763fd6de035146100c1575061000e565b346101175760206101056100dc6100d736611387565b61157d565b30907f000000000000000000000000000000000000000000000000000000000000000090611a83565b6040516001600160a01b039091168152f35b80fd5b5034610117576020366003190112610117576004356001600160a01b03818116918290036101ac5761014a611551565b811561019357600054826bffffffffffffffffffffffff60a01b821617600055167f8be0079c531659141344cd1fd0a4f28419497f9722a3daafe3b4186f6b6457e0600080a380f35b604051631e4fbdf760e01b815260048101849052602490fd5b600080fd5b506003196040368201126104b3576004356001600160401b03918282116104af5761012090823603011261047d5760848101359160c482013591906001600160a01b0380851690811590602490868361049b575b340361048957604051610217816113d4565b866004013581526020968782019684820135885260448201356040840152606083019a60648301358c52608084015260a083019960a48301358b5260c084015260e083019160e48101358352610104810135918211610485570136602382011215610481578b60048201359161028c83611434565b9261029a60405194856113f0565b8084523688828401011161047d5780888d9301838601378301015261010083015280514260e01b9060018060e01b0316178091526102e784359163ffffffff8160c01c169060e01c611411565b1161046b57610309610100820191610120835191825160208401208552209252565b7f000000000000000000000000000000000000000000000000000000000000000034471061044e5780763d602d80600a3d3981f3363d3d373d3d3d363d7300000062ffffff6e5af43d82803e903d91602b57fd5bf39360881c161760005260781b1787526037600934f590811696871561043c578993156103c3575b837fc30e111dcc74fddc2c3a4d98ffb97adec4485c0a687946bf5b22c2a99c7ff96d60608a8a8d8b519051916040519384528301526040820152a180f35b916064918796989794935190604051926323b872dd60e01b8452336004850152830152604482015282855af1908161041a575b50156104085790913885818080610385565b60405163f405907160e01b8152600490fd5b90503d1561043457506001855114601f3d11165b386103f6565b3b151561042e565b60405163b06ebf3d60e01b8152600490fd5b60405163cf47918160e01b81524760048201523481860152604490fd5b604051637a42074b60e11b8152600490fd5b8280fd5b8b80fd5b8c80fd5b6040516334f5151d60e01b8152600490fd5b6104aa9060a488013590611411565b610205565b8380fd5b5080fd5b5034610117576104fa6105176104e36104ec6104d23661128c565b849c98999295979a919493946115fe565b909c919c611c9d565b99945097929b915099611fd2565b91620186a09101810161050d8184611849565b9209151590611411565b91629896809182019081831161054157602061053985858561050d81846118b3565b604051908152f35b634e487b7160e01b81526011600452602490fd5b50346101175780600319360112610117576040517f00000000000000000000000000000000000000000000000000000000000000006001600160a01b03168152602090f35b50346101175760206101056105b16100d736611387565b30907f000000000000000000000000000000000000000000000000000000000000000090611a83565b5034610117576105e93661130a565b509750939594935050507f00000000000000000000000000000000000000000000000000000000000000006001600160a01b0316330390506107cb5761062e91611a38565b60408051602080820195865292909301609f190135601081901b61ffff1916918401919091526001600160f01b03939192908416919061067b81605e81015b03601f1981018352826113f0565b519020908435601e19863603018112156107c7576001600160401b039490860180358681116107c3576005918160051b3603878201136107bf576040878a013599013597604051888101916001600160401b0360c01b8c60c01b1683528a6028830152602882526060820190828210908211176107a957604052519020928a9291905b82841061076d5750505050160361075b5760018401809411610747576001929183916040519561072d876113b9565b865281860193845286525260408420925183555191015580f35b634e487b7160e01b85526011600452602485fd5b6040516309bde33960e01b8152600490fd5b909192938885831b8401013590818110600014610799578c528852600160408c205b94019291906106fe565b908c528852600160408c2061078f565b634e487b7160e01b600052604160045260246000fd5b8980fd5b8880fd5b8680fd5b604051634ca8886760e01b8152600490fd5b5034610117576020366003190112610117576040809160043581526001602052206001815491015482519182526020820152f35b5034610117578060031936011261011757546040516001600160a01b039091168152602090f35b5034610117576040366003190112610117576004356001600160a01b0381169081810361047d57826024359261086c611551565b83610875575080f35b8015908115610956575b50156108f35750508047106108e1578180808093335af13d156108dc573d6108a681611434565b906108b460405192836113f0565b81528260203d92013e5b156108ca575b38808280f35b60405163b12d13eb60e01b8152600490fd5b6108be565b604051631e9acf1760e31b8152600490fd5b6044602092936040519063a9059cbb60e01b8252336004830152602482015282855af19081610934575b506108c45760405163fb7f507960e01b8152600490fd5b90503d1561094e57506001815114601f3d11165b3861091d565b3b1515610948565b73eeeeeeeeeeeeeeeeeeeeeeeeeeeeeeeeeeeeeeee9150143861087f565b503461011757806003193601126101175761098d611551565b600080546001600160a01b0319811682556001600160a01b03167f8be0079c531659141344cd1fd0a4f28419497f9722a3daafe3b4186f6b6457e08280a380f35b50346101175780600319360112610117576040517f00000000000000000000000000000000000000000000000000000000000000006001600160a01b03168152602090f35b503461011757610a223661130a565b9160018060a09a9793959899969a1b037f00000000000000000000000000000000000000000000000000000000000000001633036111e157826014116111dd57826028116111dd57602719830160c7198401116111c957610a8a60c719840160288601611aac565b60f01c9560c7198401600210156111b5576064602a86013560f81c116111a35760c719840160031161048157610ac760ca198501602b8701611aac565b60f01c9060c71985016005101561118f576064602d87013560f81c1161117d578c9160c719860160061161047d57610b078560cd198801602e8a01611e4b565b929180959195611169575b1590816110c3575b506110b157620186a08a8101811161109c57908f939291818c8e920190610b4091611411565b809c610b4b9261191d565b8c610b5d602a8c013560f81c836117d0565b9c8d93610b699261191d565b90610b7391611411565b90610b7d91611498565b9860138211610f99575b50505050848401609f190191905060e08b0135600160fe1b1615610f92576002823560f01c10610f8057610c27908b60408e8c8251610bed8161066d602082019460018060f01b038c351690869091603e92825261ffff199060101b1660208201520190565b51902081526001602052209160a06020604051610c09816113b9565b600186549687835201549182910152953560f01c920135908d611994565b15610f6e575b60405197610c3a896113d4565b885260208801526020890135604088015260018060a01b03166060870152606088013560808701528660a0870152603f19818301013560801c60c08701524260e01b60018060e01b03601f198385010135161760e08701526040518060208101106001600160401b036020830111176107a9576020810160409081528a82526101008801919091528801356001600160a01b038116610f6857506020880135935b6040519360208501526040840152601482013560601c6060840152813560601c6080840152608083528260a08101106001600160401b0360a0850111176107a95760a083016101608401106001600160401b03610160850111176107a9577f1140dcf80f027f65ebd1c2e98c33e3ebf7ef025d944a079256037cd55271bf9894610e7494610160850160405260a085015260c0840152605f19818301013560e08401526fffffffffffffffffffffffffffffffff603f19828401013516610100840152607f19910101356101208201528061014081015260405191829160408352855160408401526020860151606084015260408601516080840152606086015160a0840152608086015160c084015260a086015160e084015260c086015161010084015260e086015161012084015260c0610140610e2b61010089015161012083880152610160870190611511565b92858403602087015260a0810151845282810151602085015260e08101516040850152610100810151606085015261012081015160808501520151918160a08201520190611511565b0390a161010081018051805160208201208252610120832091526e5af43d82803e903d91602b57fd5bf37f0000000000000000000000000000000000000000000000000000000000000000763d602d80600a3d3981f3363d3d373d3d3d363d7300000062ffffff8260881c161760005260781b17602052603760096000f5926001600160a01b0384161561043c57849160c0853191015111938415610f1f575b505050506104895780f35b6370a0823160e01b83526004529192506020916024908290606001356001600160a01b03165afa8251901560203d1017610f5d571038828180610f14565b6040513d84823e3d90fd5b93610cdb565b604051633aace85d60e21b8152600490fd5b6040516310d629d360e01b8152600490fd5b5035610c2d565b610fa38286611467565b60601c918060141161109857823b15611098578f8f968f8f9388946040519a8b998a9889976323175ef160e11b895260048901610fdf916114a5565b61010488016101e090526101e4880190610ff8926114f0565b6101248701949094526001600160a01b038e166101448701526101648601526101848501526101a484018b9052838203600319016101c48501526110469260131991909101906014016114f0565b03925af1801561108d5761105e575b8b818080610b87565b6001600160401b03819c929c11611079576040529938611055565b634e487b7160e01b82526041600452602482fd5b6040513d8e823e3d90fd5b8480fd5b50634e487b7160e01b8f52601160045260248ffd5b604051630155201f60e01b8152600490fd5b6040516370a0823160e01b81526001600160a01b03898116600483015291925090602090829060249082907f0000000000000000000000000000000000000000000000000000000000000000165afa91821561115d5791611127575b50158f610b1a565b90506020813d602011611155575b81611142602093836113f0565b8101031261115157513861111f565b8f80fd5b3d9150611135565b604051903d90823e3d90fd5b91606490602d8b013560f81c020491610b12565b604051633066a1f160e01b8152600490fd5b634e487b7160e01b8d52603260045260248dfd5b60405163c5374e2d60e01b8152600490fd5b634e487b7160e01b8c52603260045260248cfd5b634e487b7160e01b8b52601160045260248bfd5b8a80fd5b60405163692d508360e11b8152600490fd5b50346101175761123b90611244611224620186a061122d6112133661128c565b849e98999295979b919493946115fe565b909e919e611c9d565b99945097929c915099611d89565b920101906116b3565b90629896809283018093116105415760206105398484611756565b9181601f840112156101ac578235916001600160401b0383116101ac57602083818601950101116101ac57565b9060031982016101c081126101ac57610100136101ac576004916001600160401b0390610104358281116101ac57816112c79160040161125f565b909390926101243592610144356001600160a01b03811681036101ac5792610164359261018435926101a4359182116101ac576113069160040161125f565b9091565b60031981016101e081126101ac57610100136101ac576004916001600160401b03610104358181116101ac57836113439160040161125f565b909390926101243592610144356001600160a01b03811681036101ac5792610164359261018435926101a435926101c4359182116101ac576113069160040161125f565b600319906020818301126101ac57600435916001600160401b0383116101ac5782610120920301126101ac5760040190565b604081019081106001600160401b038211176107a957604052565b61012081019081106001600160401b038211176107a957604052565b90601f801991011681019081106001600160401b038211176107a957604052565b9190820180921161141e57565b634e487b7160e01b600052601160045260246000fd5b6001600160401b0381116107a957601f01601f191660200190565b909392938483116101ac5784116101ac578101920390565b6bffffffffffffffffffffffff19903581811693926014811061148957505050565b60140360031b82901b16169150565b9190820391821161141e57565b60e08091803584526020810135602085015260408101356040850152606081013560608501526080810135608085015260a081013560a085015260c081013560c08501520135910152565b908060209392818452848401376000828201840152601f01601f1916010190565b919082519283825260005b84811061153d575050826000602080949584010152601f8019910116010190565b60208183018101518483018201520161151c565b6000546001600160a01b0316330361156557565b60405163118cdaa760e01b8152336004820152602490fd5b61010080820135601e19833603018112156101ac578201908135916001600160401b0383116101ac576020019180360383136101ac5780604051938437822090610120809484378201522090565b8181029291811591840414171561141e57565b81156115e8570490565b634e487b7160e01b600052601260045260246000fd5b9190806003116101ac57823560e81c816007116101ac57600384013560e01c90801580156116ab575b156116945750506000925b81600b116101ac57600781013560e01c82600e116101ac57826011116101ac576116789260101901916011810191600b600e83013560e81c92013560e81c810190611ad8565b90939092918181111561168b5703929190565b50506000929190565b620f4240916116a49148026115de565b0492611632565b508115611627565b620186a0916000198383099280830292838086109503948086039514611746578483111561172d579082910981600003821680920460028082600302188083028203028083028203028083028203028083028203028083028203028092029003029360018380600003040190848311900302920304170290565b82634e487b71600052156003026011186020526024601cfd5b50509061175392506115de565b90565b62989680916000198383099280830292838086109503948086039514611746578483111561172d579082910981600003821680920460028082600302188083028203028083028203028083028203028083028203028083028203028092029003029360018380600003040190848311900302920304170290565b6000198282098282029182808310920391808303921461183f57816064111561182c577f5c28f5c28f5c28f5c28f5c28f5c28f5c28f5c28f5c28f5c28f5c28f5c28f5c29936064910990828211900360fe1b910360021c170290565b634e487b7160005260116020526024601cfd5b5050606491500490565b90600019818309818302918280831092039180830392146118a757620186a0908282111561182c577f58cd20afa2f05a708ede54b48d3ae685db76b3bb83cf2cf95d4e8fb00bcbe61d940990828211900360fb1b910360051c170290565b5050620186a091500490565b90600019818309818302918280831092039180830392146119115762989680908282111561182c577f5fb648fcc913daa857a27e44a97d3c6bc1193a63a91cc45be5032477ae8d46a5940990828211900360f91b910360071c170290565b50506298968091500490565b90916000198383099280830292838086109503948086039514611746578483111561172d579082910981600003821680920460028082600302188083028203028083028203028083028203028083028203028083028203028092029003029360018380600003040190848311900302920304170290565b9291906119aa846119a58385611498565b611411565b600019919082810190811161141e57836119c7866119cc936115cb565b6115de565b9481036119e657505050506002810180911161141e571490565b808303611a01575b505050506001810180911161141e571490565b611a0b9083611498565b90810190811161141e57611a22926119c7916115cb565b8114611a3157388080806119ee565b5050600090565b91909160208310611a7a5780359063ffffffff8260c01c169160e01c93601f19018411611a69578101602001920390565b6309605a0160e41b60005260046000fd5b50600091508190565b91600b92604051926040840152602083015281520160ff8153605590206001600160a01b031690565b6001600160f01b03199035818116939260028110611ac957505050565b60020360031b82901b16169150565b9492939082868315611bdb57863560f81c96600190856001116101ac576001019760059560001901611b0e81888402818d61144f565b909b909a904211611b26575050505050505050929190565b90919293949580979b9a999850421015611bce579291906000905b828210611b66575050505050611b619394959650820391429003026115de565b929190565b90919293946003908282116101ac57863560e81c91838e116101ac5787013560f01c81019788421115611baa57509096958c01949392840191600419019050611b41565b95509697509450505050611b619495969750828403934290030291420302016115de565b5060009950505050505050565b634e487b7160e01b600052603260045260246000fd5b91909260009369ffffffffffffffffffff60009316938115611c8957803560f81c90600a82600a0260019481600101806001116107c3578181116107c3576001850194611c41929190829061144f565b9890989780945b868610611c59575050505050505050565b8385116104b357803560b01c8314611c7d5794870194600919909301928401611c48565b50959950505050505050565b634e487b7160e01b84526032600452602484fd5b91611ca88284611aac565b60f01c928260021015611bdb57600281013560f81c92606484116111a357806003116101ac57611cdf600219820160038401611aac565b60f01c928160051015611bdb57600583013560f81c926064841161117d57826006116101ac57611d16926005190190600601611bf1565b9196909287611d225750565b60649194020492565b9491611753999794989693611d5692611d47886101c0926114a5565b806101008901528701916114f0565b6101208501979097526001600160a01b03166101408401526101608301526101808201528084036101a0909101526114f0565b91979496909594929160148410611e2f57611da48483611467565b60601c95846014116101ac57602098601496611dde956040519c8d9b8c9a8b9a631d9671c360e01b8c526013190198019660048b01611d2b565b03915afa908115611e2357600091611df4575090565b90506020813d602011611e1b575b81611e0f602093836113f0565b810103126101ac575190565b3d9150611e02565b6040513d6000823e3d90fd5b9695505050505050611753925060a060c083013592013561191d565b600093919269ffffffffffffffffffff1691906004908581356001600160e01b031981811691858910611fbe575b505060e01c9186841015611fab578381013560f81c90600c82600c02988960050180600511611fa757818111611fa75790611ec091816005869c959d98979601979b61144f565b9990999884925b848410611eed57505050505050504210611ede5750565b604051639da6e02560e01b8152fd5b90919293949596869c9b9a99989c50873569ffffffffffffffffffff60b01b80821690600a92838710611f93575b5050824210600014611f3857604051639da6e02560e01b81528f90fd5b60b09e9a9b9c9d9e1c8314611f8357838111611f7f57611f5f906009198501908a01611aac565b60f01c01968284116107c75783019594936001019291600b190190611ec7565b8780fd5b5060019c50505050505050505050565b9080925086840360031b1b16163880611f1b565b8580fd5b634e487b7160e01b825260328452602482fd5b9080925088860360031b1b16163880611e79565b9197949690959492916014841061202757611fed8483611467565b60601c95846014116101ac57602098601496611dde956040519c8d9b8c9a8b9a6301afff1560e71b8c526013190198019660048b01611d2b565b975050505050505060a060c083013592013561204481838561191d565b9181156115e857611753930915159061141156fea26469706673582212209f9f31db15e3a94742ebff2d0342f10b5b7124e97627726417889772c028c31f64736f6c63430008170033610100346100f457601f610cf138819003918201601f19168301916001600160401b038311848410176100f95780849260409485528339810103126100f45780519063ffffffff82168092036100f45760200151906001600160a01b03821682036100f4573360c05260a0526080526e5af43d82803e903d91602b57fd5bf360205230601152763d602d80600a3d3981f3363d3d373d3d3d363d730000003060881c17600052603760092060e052604051610be19081610110823960805181610278015260a051818181608a01526101b8015260c05181818161037301526108bd015260e05181818161033a01526108920152f35b600080fd5b634e487b7160e01b600052604160045260246000fdfe608060408181526004918236101561001657600080fd5b60009260e08435811c9283632537a347146103a2575082632dd310001461035d57826334862b6a146103215782633e99ca75146102495782635e504d031461013d57826378a5e1a1146100b157505063f56cd69c1461007457600080fd5b346100ad57816003193601126100ad57602090517f00000000000000000000000000000000000000000000000000000000000000008152f35b5080fd5b83859134610139576100c23661047d565b92909160608401356001600160a01b031633036101295763ffffffff8185013580921c9160801c168101809111610116574210610107575090610104916104f1565b80f35b516337bf561360e11b81528490fd5b634e487b7160e01b855260118652602485fd5b81516348f5c3ed60e01b81528690fd5b8280fd5b838591346101395760031990606036830112610245578435946001600160a01b038087169390929084880361024157602435936044359167ffffffffffffffff831161023d5761012090833603011261023957606482013516330361022957806101b26101ad60e493860161083a565b610889565b0135901c7f000000000000000000000000000000000000000000000000000000000000000001421061021b575061020d817fc4474c2790e13695f6d2b6f1d8e164290b55370f87a542fd7711abe0a1bf40ac9596339061093a565b82519182526020820152a180f35b83516337bf561360e11b8152fd5b85516348f5c3ed60e01b81528390fd5b8780fd5b8880fd5b8680fd5b8380fd5b838591346101395761025a3661047d565b83516370a0823160e01b8152338782015290939192906020816024817f00000000000000000000000000000000000000000000000000000000000000006001600160a01b03165afa9081156103175786916102e1575b50156101295763ffffffff8185013580921c9160a01c168101809111610116574210610107575090610104916104f1565b90506020813d60201161030f575b816102fc602093836104b9565b8101031261030b5751876102b0565b8580fd5b3d91506102ef565b83513d88823e3d90fd5b505050346100ad57816003193601126100ad57602090517f00000000000000000000000000000000000000000000000000000000000000008152f35b505050346100ad57816003193601126100ad57517f00000000000000000000000000000000000000000000000000000000000000006001600160a01b03168152602090f35b828587923461024557600319926020368501126104795780359367ffffffffffffffff851161030b57610120908536030112610479576001600160a01b039260648501358416923384900361046b57506104006101ad86840161083a565b61040d60e486013561090a565b421061045e578561043760c48761042f60a48201358860848401358b1661093a565b0135336109db565b7f6e3be9294e58d10b9c8053cfd5e09871b67e442fe394d6b0870d336b9df984a98180a180f35b516337bf561360e11b8152fd5b6348f5c3ed60e01b81529050fd5b8480fd5b906003196040818401126104b457600435926024359167ffffffffffffffff83116104b45782610120920301126104b45760040190565b600080fd5b90601f8019910116810190811067ffffffffffffffff8211176104db57604052565b634e487b7160e01b600052604160045260246000fd5b91909161050160e084013561090a565b421015610828576105146101ad8461083a565b60209060008181528285013583822003610816576105323686610a2b565b9061056873__$e389fbfae8dedbddaed0f3a508f83b82ce$__8560409485518094819263cc51c71760e01b835260048301610af8565b0381845af491821561080c5783926107db575b506105a4928661058b368b610a2b565b86518096819263259f481160e21b835260048301610af8565b0381855af49384156107cf5781946107a0575b5082610707575b83610629575b50508661042f6106086106229461060360c09560a07fe346f5c97a360db5188bfa5d3ec5f0583abde420c6ba4d08b6cfe61addc171059c9d0135610b9e565b610b9e565b6001600160a01b038684013581169060808501351661093a565b51908152a1565b6001600160a01b039161065d908890610642368d610a2b565b9088518080958194636e30c3eb60e01b835260048301610af8565b03915af49182156106fc5780926106c7575b50506106088461060360c0956106b861062298877fe346f5c97a360db5188bfa5d3ec5f0583abde420c6ba4d08b6cfe61addc171059e9f9861042f98169060808a01351661093a565b955050945050819897506105c4565b9091508782813d83116106f5575b6106df81836104b9565b810103126106f25750516106088461066f565b80fd5b503d6106d5565b8651903d90823e3d90fd5b6001600160a01b036107368861071d368d610a2b565b88518093819263505ba09b60e01b835260048301610af8565b0381875af4908115610796579085918491610765575b50918061076093169060808d01351661093a565b6105be565b8092508a8092503d831161078f575b61077e81836104b9565b81010312610139575184908261074c565b503d610774565b87513d85823e3d90fd5b9093508681813d83116107c8575b6107b881836104b9565b81010312610245575192386105b7565b503d6107ae565b508451903d90823e3d90fd5b9091508581813d8311610805575b6107f381836104b9565b810103126101395751906105a461057b565b503d6107e9565b84513d85823e3d90fd5b60405163abab6bd760e01b8152600490fd5b6040516337bf561360e11b8152600490fd5b61010080820135601e19833603018112156104b45782019081359167ffffffffffffffff83116104b4576020019180360383136104b45780604051938437822090610120809484378201522090565b600b90604051907f0000000000000000000000000000000000000000000000000000000000000000604083015260208201527f000000000000000000000000000000000000000000000000000000000000000081520160ff8153605590206001600160a01b031630036108f857565b604051635134a42560e11b8152600490fd5b63ffffffff8160e01c9160c01c1681018091116109245790565b634e487b7160e01b600052601160045260246000fd5b6001600160a01b03169190826109565761095492506109db565b565b9060446020926000926040519163a9059cbb60e01b83526004830152602482015282855af1908161099c575b501561098a57565b60405163fb7f507960e01b8152600490fd5b90503d156109b75750600160005114601f3d11165b38610982565b3b15156109b1565b67ffffffffffffffff81116104db57601f01601f191660200190565b600080809381935af13d15610a26573d6109f4816109bf565b90610a0260405192836104b9565b8152600060203d92013e5b15610a1457565b604051638a0332d560e01b8152600490fd5b610a0d565b91906101209283818303126104b45760405167ffffffffffffffff948101858111828210176104db57604052809482358252602090818401358284015260408401356040840152606084013560608401526080840135608084015260a084013560a084015260c084013560c084015260e084013560e084015261010093848101359182116104b457019084601f830112156104b4578135610acb816109bf565b95610ad960405197886104b9565b8187528282850101116104b45780826000940183880137850101520152565b6020916020825280516020830152602081015160408301526040810151606083015260608101516080830152608081015160a083015260a081015160c083015260c081015160e083015260e0810151906101009182840152015191610120808301528251928361014084015260005b848110610b8957505050610160916000838284010152601f8019910116010190565b81810183015184820161016001528201610b67565b919082039182116109245756fea26469706673582212201faa82c8542ad6771023e9138a28f07537183766c109db3c27c6c6bda8c08bf164736f6c63430008170033610100346100fb57601f610b7938819003918201601f19168301916001600160401b038311848410176101005780849260409485528339810103126100fb5780519063ffffffff82168092036100fb5760200151906001600160a01b03821682036100fb573360c05260a0526080526e5af43d82803e903d91602b57fd5bf360205230601152763d602d80600a3d3981f3363d3d373d3d3d363d730000003060881c17600052603760092060e052604051610a629081610117823960805181818161043d01526106cd015260a05181818160a0015261023d015260c0518181816105da0152610900015260e0518181816105a101526108d50152f35b600080fd5b634e487b7160e01b600052604160045260246000fdfe608060408181526004918236101561001657600080fd5b60009260e08435811c928363056fb4771461069a575082632537a347146106095782632dd31000146105c457826334862b6a146105885782633e99ca75146104015782634c345901146102e85782635e504d03146101c957826378a5e1a1146100c757505063f56cd69c1461008a57600080fd5b346100c357816003193601126100c357602090517f00000000000000000000000000000000000000000000000000000000000000008152f35b5080fd5b90929150346101c5576100d9366107c7565b909390916001600160a01b0391906060840135831633036101b65783013561010081610866565b42106101a75761010f90610836565b421015610199576101276101228461087d565b6108cc565b8486526020830135602087200361018b57509161018360c08361017b60209660a07fe346f5c97a360db5188bfa5d3ec5f0583abde420c6ba4d08b6cfe61addc171059997013590339060808501351661094d565b0135336109b6565b51908152a180f35b835163abab6bd760e01b8152fd5b83516337bf561360e11b8152fd5b5083516337bf561360e11b8152fd5b5083516348f5c3ed60e01b8152fd5b8380fd5b838591346102e4576003196060368201126101c5576001600160a01b038535818116939192908490036102e057602435926044359167ffffffffffffffff83116102dc576101209083360301126102d85760648201351633036102c8578061023761012260e4938a0161087d565b0135901c7f00000000000000000000000000000000000000000000000000000000000000000142106102b8577fc4474c2790e13695f6d2b6f1d8e164290b55370f87a542fd7711abe0a1bf40ac93945081156000146102a85761029a81336109b6565b82519182526020820152a180f35b6102b381338461094d565b61029a565b82516337bf561360e11b81528590fd5b84516348f5c3ed60e01b81528790fd5b8680fd5b8780fd5b8580fd5b8280fd5b848285346102e4576003196060368201126101c5578235926001600160a01b03906024359082821682036102d8576044359367ffffffffffffffff85116102dc576101209085360301126102d8578260648501351633036103f35760e484013561035181610866565b42106103e45761036090610836565b4210156103d65761037561012285830161087d565b858752602484013560208820036103c8575060c48361017b602096946101839460a47fe346f5c97a360db5188bfa5d3ec5f0583abde420c6ba4d08b6cfe61addc171059a9801359160848501351661094d565b845163abab6bd760e01b8152fd5b84516337bf561360e11b8152fd5b5084516337bf561360e11b8152fd5b84516348f5c3ed60e01b8152fd5b90849250346102e457610413366107c7565b85516370a0823160e01b815233818501529095602094929390926001600160a01b039286816024817f000000000000000000000000000000000000000000000000000000000000000088165afa90811561057e578891610551575b5015610542578088013580911c63ffffffff82881c16810180911161052f5742106105205761049c90610836565b421015610512576104af6101228861087d565b8386528487013585872003610504575060c08661017b6101839360a07fe346f5c97a360db5188bfa5d3ec5f0583abde420c6ba4d08b6cfe61addc17105999a013590806060850135169060808501351661094d565b825163abab6bd760e01b8152fd5b82516337bf561360e11b8152fd5b5082516337bf561360e11b8152fd5b634e487b7160e01b885260118352602488fd5b5082516348f5c3ed60e01b8152fd5b90508681813d8311610577575b61056881836107fe565b810103126102dc57518961046e565b503d61055e565b85513d8a823e3d90fd5b505050346100c357816003193601126100c357602090517f00000000000000000000000000000000000000000000000000000000000000008152f35b505050346100c357816003193601126100c357517f00000000000000000000000000000000000000000000000000000000000000006001600160a01b03168152602090f35b90929150346101c55761061b3661078f565b926001600160a01b03916060850135831633036105425761063e90850135610836565b421061051257509161017b60c0926106739461065c6101228561087d565b8060a085013592850135169060808501351661094d565b7f6e3be9294e58d10b9c8053cfd5e09871b67e442fe394d6b0870d336b9df984a98180a180f35b849086933461078b576106ac3661078f565b6370a0823160e01b83523382840152936001600160a01b03926020816024817f000000000000000000000000000000000000000000000000000000000000000088165afa90811561078157879161074f575b50156105425763ffffffff8186013580921c9160601c16810180911161073c57421061051257509161017b60c0926106739461065c6101228561087d565b634e487b7160e01b865260118252602486fd5b90506020813d602011610779575b8161076a602093836107fe565b810103126102d85751876106fe565b3d915061075d565b85513d89823e3d90fd5b8480fd5b600319906020818301126107c2576004359167ffffffffffffffff83116107c25782610120920301126107c25760040190565b600080fd5b906003196040818401126107c257600435926024359167ffffffffffffffff83116107c25782610120920301126107c25760040190565b90601f8019910116810190811067ffffffffffffffff82111761082057604052565b634e487b7160e01b600052604160045260246000fd5b63ffffffff8160e01c9160401c1681018091116108505790565b634e487b7160e01b600052601160045260246000fd5b63ffffffff8160e01c911681018091116108505790565b61010080820135601e19833603018112156107c25782019081359167ffffffffffffffff83116107c2576020019180360383136107c25780604051938437822090610120809484378201522090565b600b90604051907f0000000000000000000000000000000000000000000000000000000000000000604083015260208201527f000000000000000000000000000000000000000000000000000000000000000081520160ff8153605590206001600160a01b0316300361093b57565b604051635134a42560e11b8152600490fd5b9160446020926000926040519163a9059cbb60e01b83526004830152602482015282855af19081610993575b501561098157565b60405163fb7f507960e01b8152600490fd5b90503d156109ae5750600160005114601f3d11165b38610979565b3b15156109a8565b60008080809481945af1903d15610a26573d9067ffffffffffffffff8211610a1257604051916109f0601f8201601f1916602001846107fe565b825260203d92013e5b15610a0057565b604051638a0332d560e01b8152600490fd5b634e487b7160e01b81526041600452602490fd5b506109f956fea264697066735822122086ff6e227128538ef1c2dac2a61849d2ed2b7aeaf5027b65fc3f4c4f19821cf664736f6c63430008170033",
  "linkReferences": {
    "contracts/1inch/libraries/ImmutablesLib.sol": {
      "ImmutablesLib": [
        {
          "length": 20,
          "start": 10754
        }
      ]
    }
  },
  "deployedLinkReferences": {}
}