{
  "_format": "hh-sol-artifact-1",
  "contractName": "ChainlinkCalculator",
  "sourceName": "contracts/1inch/extensions/ChainlinkCalculator.sol",
  "abi": [
    {
      "inputs": [],
      "name": "DifferentOracleDecimals",
      "type": "error"
    },
    {
      "inputs": [
        {
          "internalType": "int256",
          "name": "value",
          "type": "int256"
        }
      ],
      "name": "SafeCastOverflowedIntToUint",
      "type": "error"
    },
    {
      "inputs": [],
      "name": "StaleOraclePrice",
      "type": "error"
    },
    {
      "inputs": [
        {
          "internalType": "contract AggregatorV3Interface",
          "name": "oracle1",
          "type": "address"
        },
        {
          "internalType": "contract AggregatorV3Interface",
          "name": "oracle2",
          "type": "address"
        },
        {
          "internalType": "int256",
          "name": "decimalsScale",
          "type": "int256"
        },
        {
          "internalType": "uint256",
          "name": "amount",
          "type": "uint256"
        }
      ],
      "name": "doublePrice",
      "outputs": [
        {
          "internalType": "uint256",
          "name": "result",
          "type": "uint256"
        }
      ],
      "stateMutability": "view",
      "type": "function"
    },
    {
      "inputs": [
        {
          "components": [
            {
              "internalType": "uint256",
              "name": "salt",
              "type": "uint256"
            },
            {
              "internalType": "Address",
              "name": "maker",
              "type": "uint256"
            },
            {
              "internalType": "Address",
              "name": "receiver",
              "type": "uint256"
            },
            {
              "internalType": "Address",
              "name": "makerAsset",
              "type": "uint256"
            },
            {
              "internalType": "Address",
              "name": "takerAsset",
              "type": "uint256"
            },
            {
              "internalType": "uint256",
              "name": "makingAmount",
              "type": "uint256"
            },
            {
              "internalType": "uint256",
              "name": "takingAmount",
              "type": "uint256"
            },
            {
              "internalType": "MakerTraits",
              "name": "makerTraits",
              "type": "uint256"
            }
          ],
          "internalType": "struct IOrderMixin.Order",
          "name": "",
          "type": "tuple"
        },
        {
          "internalType": "bytes",
          "name": "",
          "type": "bytes"
        },
        {
          "internalType": "bytes32",
          "name": "",
          "type": "bytes32"
        },
        {
          "internalType": "address",
          "name": "",
          "type": "address"
        },
        {
          "internalType": "uint256",
          "name": "takingAmount",
          "type": "uint256"
        },
        {
          "internalType": "uint256",
          "name": "",
          "type": "uint256"
        },
        {
          "internalType": "bytes",
          "name": "extraData",
          "type": "bytes"
        }
      ],
      "name": "getMakingAmount",
      "outputs": [
        {
          "internalType": "uint256",
          "name": "",
          "type": "uint256"
        }
      ],
      "stateMutability": "view",
      "type": "function"
    },
    {
      "inputs": [
        {
          "components": [
            {
              "internalType": "uint256",
              "name": "salt",
              "type": "uint256"
            },
            {
              "internalType": "Address",
              "name": "maker",
              "type": "uint256"
            },
            {
              "internalType": "Address",
              "name": "receiver",
              "type": "uint256"
            },
            {
              "internalType": "Address",
              "name": "makerAsset",
              "type": "uint256"
            },
            {
              "internalType": "Address",
              "name": "takerAsset",
              "type": "uint256"
            },
            {
              "internalType": "uint256",
              "name": "makingAmount",
              "type": "uint256"
            },
            {
              "internalType": "uint256",
              "name": "takingAmount",
              "type": "uint256"
            },
            {
              "internalType": "MakerTraits",
              "name": "makerTraits",
              "type": "uint256"
            }
          ],
          "internalType": "struct IOrderMixin.Order",
          "name": "",
          "type": "tuple"
        },
        {
          "internalType": "bytes",
          "name": "",
          "type": "bytes"
        },
        {
          "internalType": "bytes32",
          "name": "",
          "type": "bytes32"
        },
        {
          "internalType": "address",
          "name": "",
          "type": "address"
        },
        {
          "internalType": "uint256",
          "name": "makingAmount",
          "type": "uint256"
        },
        {
          "internalType": "uint256",
          "name": "",
          "type": "uint256"
        },
        {
          "internalType": "bytes",
          "name": "extraData",
          "type": "bytes"
        }
      ],
      "name": "getTakingAmount",
      "outputs": [
        {
          "internalType": "uint256",
          "name": "",
          "type": "uint256"
        }
      ],
      "stateMutability": "view",
      "type": "function"
    }
  ],
  "bytecode": "0x608080604052346100165761072b908161001c8239f35b600080fdfe6080604052600436101561001257600080fd5b6000803560e01c9081631d9671c314610040578163d137823914610045575063d7ff8a801461004057600080fd5b6100c8565b34610092576080366003190112610092576001600160a01b039060043590828216820361009257602435928316830361009257602061008a606435604435868661045a565b604051908152f35b80fd5b9181601f840112156100c35782359167ffffffffffffffff83116100c357602083818601950101116100c357565b600080fd5b346100c35736600319016101c081126100c357610100136100c35767ffffffffffffffff610104358181116100c357610105903690600401610095565b5050610144356001600160a01b038116036100c3576101a4359081116100c35761008a6101386020923690600401610095565b9061016435610239565b90601f8019910116810190811067ffffffffffffffff82111761016457604052565b634e487b7160e01b600052604160045260246000fd5b519069ffffffffffffffffffff821682036100c357565b908160a09103126100c3576101a58161017a565b916020820151916040810151916101c360806060840151930161017a565b90565b818102929181159184041417156101d957565b634e487b7160e01b600052601160045260246000fd5b908160209103126100c3575160ff811681036100c35790565b60ff16604d81116101d957600a0a90565b8115610223570490565b634e487b7160e01b600052601260045260246000fd5b9091806001116100c3578235600160fe1b808216036102a95750806015116100c357806029116100c357806049116100c3576069116100c357816102896102a5926049633b9aca009501356101c6565b906029810135906001601582013560601c91013560601c61045a565b0490565b92816015939293116100c357600181013560601c926035116100c3576015013590604091825194633fabe5a360e21b865260a086600481885afa801561044157600096600091610409575b5061384081018091116101d95742116103f857600160ff1b908116036103ab576103226004926020926101c6565b9383519283809263313ce56760e01b82525afa9182156103a157506103666102a593610360633b9aca00969461036c94600091610372575b50610208565b906101c6565b916106d2565b90610219565b610394915060203d60201161039a575b61038c8183610142565b8101906101ef565b3861035a565b503d610382565b513d6000823e3d90fd5b60049293946103606103666020946103c2946101c6565b9383519283809263313ce56760e01b82525afa9182156103a157509161036c6102a592633b9aca00946000916103725750610208565b8351631510fe5b60e31b8152600490fd5b905061042e91965060a03d60a01161043a575b6104268183610142565b810190610191565b509792505095386102f4565b503d61041c565b84513d6000823e3d90fd5b604d81116101d957600a0a90565b6040805163313ce56760e01b8082526001600160a01b039384169660049593949193909291602091828489818d5afa9384156106c7576000946106a8575b501693855190815281818881885afa91821561069d579160ff92918392600092610680575b505016911603610671578251948591633fabe5a360e21b97888452838760a0998a935afa92831561066657600090600094610641575b506138409384810180911161062c57421161061c5790610360610515926106d2565b9060008113156105ca578691610360610530610535936106d2565b61044c565b965b8585518095819382525afa9182156105bf57600095600093610596575b505081018091116105815742116105745750509061036c6101c3926106d2565b51631510fe5b60e31b8152fd5b601183634e487b7160e01b6000525260246000fd5b80919296506105b19350903d1061043a576104268183610142565b509592505093903880610554565b83513d6000823e3d90fd5b600081989298126105de575b508590610537565b909690600160ff1b811461060757869161036c610530610600936000036106d2565b96906105d6565b601186634e487b7160e01b6000525260246000fd5b8551631510fe5b60e31b81528790fd5b601188634e487b7160e01b6000525260246000fd5b905061065b919350873d891161043a576104268183610142565b5094925050386104f3565b85513d6000823e3d90fd5b50505163274cd55d60e01b8152fd5b6106969250803d1061039a5761038c8183610142565b38806104bd565b86513d6000823e3d90fd5b6106c0919450833d851161039a5761038c8183610142565b9238610498565b87513d6000823e3d90fd5b600081126106dd5790565b60249060405190635467221960e11b82526004820152fdfea2646970667358221220cc111868247abc2a111cda1d791515ea625289c7c6f7f5d1900fe77c5d7f62ff64736f6c63430008170033",
  "linkReferences": {},
  "deployedLinkReferences": {}
}