{
  "_format": "hh-sol-artifact-1",
  "contractName": "SimpleSettlement",
  "sourceName": "@1inch/limit-order-settlement/contracts/SimpleSettlement.sol",
  "abi": [
    {
      "inputs": [
        {
          "internalType": "address",
          "name": "limitOrderProtocol",
          "type": "address"
        },
        {
          "internalType": "contract IERC20",
          "name": "accessToken",
          "type": "address"
        },
        {
          "internalType": "address",
          "name": "weth",
          "type": "address"
        },
        {
          "internalType": "address",
          "name": "owner",
          "type": "address"
        }
      ],
      "stateMutability": "nonpayable",
      "type": "constructor"
    },
    {
      "inputs": [],
      "name": "AllowedTimeViolation",
      "type": "error"
    },
    {
      "inputs": [],
      "name": "ETHTransferFailed",
      "type": "error"
    },
    {
      "inputs": [],
      "name": "EthTransferFailed",
      "type": "error"
    },
    {
      "inputs": [],
      "name": "InconsistentFee",
      "type": "error"
    },
    {
      "inputs": [],
      "name": "InsufficientBalance",
      "type": "error"
    },
    {
      "inputs": [],
      "name": "InvalidEstimatedTakingAmount",
      "type": "error"
    },
    {
      "inputs": [],
      "name": "InvalidIntegratorShare",
      "type": "error"
    },
    {
      "inputs": [],
      "name": "InvalidProtocolSurplusFee",
      "type": "error"
    },
    {
      "inputs": [],
      "name": "InvalidWhitelistDiscountNumerator",
      "type": "error"
    },
    {
      "inputs": [],
      "name": "OnlyLimitOrderProtocol",
      "type": "error"
    },
    {
      "inputs": [],
      "name": "OnlyWhitelistOrAccessToken",
      "type": "error"
    },
    {
      "inputs": [
        {
          "internalType": "address",
          "name": "owner",
          "type": "address"
        }
      ],
      "name": "OwnableInvalidOwner",
      "type": "error"
    },
    {
      "inputs": [
        {
          "internalType": "address",
          "name": "account",
          "type": "address"
        }
      ],
      "name": "OwnableUnauthorizedAccount",
      "type": "error"
    },
    {
      "inputs": [],
      "name": "SafeTransferFailed",
      "type": "error"
    },
    {
      "anonymous": false,
      "inputs": [
        {
          "indexed": true,
          "internalType": "address",
          "name": "previousOwner",
          "type": "address"
        },
        {
          "indexed": true,
          "internalType": "address",
          "name": "newOwner",
          "type": "address"
        }
      ],
      "name": "OwnershipTransferred",
      "type": "event"
    },
    {
      "inputs": [
        {
          "components": [
            {
              "internalType": "uint256",
              "name": "salt",
              "type": "uint256"
            },
            {
              "internalType": "Address",
              "name": "maker",
              "type": "uint256"
            },
            {
              "internalType": "Address",
              "name": "receiver",
              "type": "uint256"
            },
            {
              "internalType": "Address",
              "name": "makerAsset",
              "type": "uint256"
            },
            {
              "internalType": "Address",
              "name": "takerAsset",
              "type": "uint256"
            },
            {
              "internalType": "uint256",
              "name": "makingAmount",
              "type": "uint256"
            },
            {
              "internalType": "uint256",
              "name": "takingAmount",
              "type": "uint256"
            },
            {
              "internalType": "MakerTraits",
              "name": "makerTraits",
              "type": "uint256"
            }
          ],
          "internalType": "struct IOrderMixin.Order",
          "name": "order",
          "type": "tuple"
        },
        {
          "internalType": "bytes",
          "name": "extension",
          "type": "bytes"
        },
        {
          "internalType": "bytes32",
          "name": "orderHash",
          "type": "bytes32"
        },
        {
          "internalType": "address",
          "name": "taker",
          "type": "address"
        },
        {
          "internalType": "uint256",
          "name": "takingAmount",
          "type": "uint256"
        },
        {
          "internalType": "uint256",
          "name": "remainingMakingAmount",
          "type": "uint256"
        },
        {
          "internalType": "bytes",
          "name": "extraData",
          "type": "bytes"
        }
      ],
      "name": "getMakingAmount",
      "outputs": [
        {
          "internalType": "uint256",
          "name": "",
          "type": "uint256"
        }
      ],
      "stateMutability": "view",
      "type": "function"
    },
    {
      "inputs": [
        {
          "components": [
            {
              "internalType": "uint256",
              "name": "salt",
              "type": "uint256"
            },
            {
              "internalType": "Address",
              "name": "maker",
              "type": "uint256"
            },
            {
              "internalType": "Address",
              "name": "receiver",
              "type": "uint256"
            },
            {
              "internalType": "Address",
              "name": "makerAsset",
              "type": "uint256"
            },
            {
              "internalType": "Address",
              "name": "takerAsset",
              "type": "uint256"
            },
            {
              "internalType": "uint256",
              "name": "makingAmount",
              "type": "uint256"
            },
            {
              "internalType": "uint256",
              "name": "takingAmount",
              "type": "uint256"
            },
            {
              "internalType": "MakerTraits",
              "name": "makerTraits",
              "type": "uint256"
            }
          ],
          "internalType": "struct IOrderMixin.Order",
          "name": "order",
          "type": "tuple"
        },
        {
          "internalType": "bytes",
          "name": "extension",
          "type": "bytes"
        },
        {
          "internalType": "bytes32",
          "name": "orderHash",
          "type": "bytes32"
        },
        {
          "internalType": "address",
          "name": "taker",
          "type": "address"
        },
        {
          "internalType": "uint256",
          "name": "makingAmount",
          "type": "uint256"
        },
        {
          "internalType": "uint256",
          "name": "remainingMakingAmount",
          "type": "uint256"
        },
        {
          "internalType": "bytes",
          "name": "extraData",
          "type": "bytes"
        }
      ],
      "name": "getTakingAmount",
      "outputs": [
        {
          "internalType": "uint256",
          "name": "",
          "type": "uint256"
        }
      ],
      "stateMutability": "view",
      "type": "function"
    },
    {
      "inputs": [],
      "name": "owner",
      "outputs": [
        {
          "internalType": "address",
          "name": "",
          "type": "address"
        }
      ],
      "stateMutability": "view",
      "type": "function"
    },
    {
      "inputs": [
        {
          "components": [
            {
              "internalType": "uint256",
              "name": "salt",
              "type": "uint256"
            },
            {
              "internalType": "Address",
              "name": "maker",
              "type": "uint256"
            },
            {
              "internalType": "Address",
              "name": "receiver",
              "type": "uint256"
            },
            {
              "internalType": "Address",
              "name": "makerAsset",
              "type": "uint256"
            },
            {
              "internalType": "Address",
              "name": "takerAsset",
              "type": "uint256"
            },
            {
              "internalType": "uint256",
              "name": "makingAmount",
              "type": "uint256"
            },
            {
              "internalType": "uint256",
              "name": "takingAmount",
              "type": "uint256"
            },
            {
              "internalType": "MakerTraits",
              "name": "makerTraits",
              "type": "uint256"
            }
          ],
          "internalType": "struct IOrderMixin.Order",
          "name": "order",
          "type": "tuple"
        },
        {
          "internalType": "bytes",
          "name": "extension",
          "type": "bytes"
        },
        {
          "internalType": "bytes32",
          "name": "orderHash",
          "type": "bytes32"
        },
        {
          "internalType": "address",
          "name": "taker",
          "type": "address"
        },
        {
          "internalType": "uint256",
          "name": "makingAmount",
          "type": "uint256"
        },
        {
          "internalType": "uint256",
          "name": "takingAmount",
          "type": "uint256"
        },
        {
          "internalType": "uint256",
          "name": "remainingMakingAmount",
          "type": "uint256"
        },
        {
          "internalType": "bytes",
          "name": "extraData",
          "type": "bytes"
        }
      ],
      "name": "postInteraction",
      "outputs": [],
      "stateMutability": "nonpayable",
      "type": "function"
    },
    {
      "inputs": [],
      "name": "renounceOwnership",
      "outputs": [],
      "stateMutability": "nonpayable",
      "type": "function"
    },
    {
      "inputs": [
        {
          "internalType": "contract IERC20",
          "name": "token",
          "type": "address"
        },
        {
          "internalType": "uint256",
          "name": "amount",
          "type": "uint256"
        }
      ],
      "name": "rescueFunds",
      "outputs": [],
      "stateMutability": "nonpayable",
      "type": "function"
    },
    {
      "inputs": [
        {
          "internalType": "address",
          "name": "newOwner",
          "type": "address"
        }
      ],
      "name": "transferOwnership",
      "outputs": [],
      "stateMutability": "nonpayable",
      "type": "function"
    },
    {
      "stateMutability": "payable",
      "type": "receive"
    }
  ],
  "bytecode": "0x60e0346200011357601f620017d138819003918201601f19168301916001600160401b03831184841017620001185780849260809460405283398101031262000113576200004d816200012e565b60208201516001600160a01b0392909183831683036200011357836200008460606200007c604086016200012e565b94016200012e565b168015620000fa57600080546001600160a01b03198116831782556040519616907f8be0079c531659141344cd1fd0a4f28419497f9722a3daafe3b4186f6b6457e09080a360805260a05260c05261168d90816200014482396080518161036d015260a05181610531015260c051816108910152f35b604051631e4fbdf760e01b815260006004820152602490fd5b600080fd5b634e487b7160e01b600052604160045260246000fd5b51906001600160a01b0382168203620001135756fe6080604052600436101561001b575b361561001957600080fd5b005b6000803560e01c80631d9671c3146109ce578063462ebde2146102f5578063715018a61461029b57806378e3214f146101d25780638da5cb5b146101ab578063d7ff8a801461010d5763f2fde38b14610074575061000e565b3461010a57602036600319011261010a576004356001600160a01b0381811691829003610105576100a3610bac565b81156100ec57600054826bffffffffffffffffffffffff60a01b821617600055167f8be0079c531659141344cd1fd0a4f28419497f9722a3daafe3b4186f6b6457e0600080a380f35b604051631e4fbdf760e01b815260048101849052602490fd5b600080fd5b80fd5b503461010a5761015061016d61013961014261012836610a68565b849c98999295979a91949394610c38565b909c919c611260565b99945097929b91509961144e565b91620186a0910181016101638184610e83565b9209151590610ae7565b91629896809182019081831161019757602061018f8585856101638184610eed565b604051908152f35b634e487b7160e01b81526011600452602490fd5b503461010a578060031936011261010a57546040516001600160a01b039091168152602090f35b503461010a57604036600319011261010a576004356001600160a01b038116908181036102975760243591610205610bac565b8261020e578380f35b8015908115610279575b50156102685750804710610256578180808093335af1610236610bd8565b5015610244575b3880808380f35b60405163b12d13eb60e01b8152600490fd5b604051631e9acf1760e31b8152600490fd5b90610274913390610fdb565b61023d565b73eeeeeeeeeeeeeeeeeeeeeeeeeeeeeeeeeeeeeeee91501438610218565b8280fd5b503461010a578060031936011261010a576102b4610bac565b600080546001600160a01b0319811682556001600160a01b03167f8be0079c531659141344cd1fd0a4f28419497f9722a3daafe3b4186f6b6457e08280a380f35b503461010a5736600319016101e081126109ca576101001361010a576101043567ffffffffffffffff81116109ca57610332903690600401610a3a565b90610144356001600160a01b03811690036102975767ffffffffffffffff6101c4351161029757610369366101c435600401610a3a565b91907f00000000000000000000000000000000000000000000000000000000000000006001600160a01b031633036109b85782156109a457826015116106c757826029116106c7576001600160a01b03602435169260298201926028198201929091600160f81b8235811614610969575b506103e5838561106f565b60f01c948360021015610955576064600286013560f81c1161094357836003116107835761041a60021985016003870161106f565b60f01c93806005101561092f576064600587013560f81c1161091d57806006116109195761045490610144359060051901600688016114d4565b959180979197610905575b1580610864575b61085257620186a0888101811161083e5782916104b96104ad60026104a16104966104c3988f6104be9801610ae7565b809e61018435610f57565b93013560f81c83610e0a565b9a8b9461018435610f57565b610ae7565b610fce565b8535966020861061082b575b60c43588106108195789976104fd6104ee846104be8561018435610fce565b9160a435906101643590610f57565b808211610787575b505085602111610783576044356001600160a01b0316300361075f576001600160a01b036084358116907f00000000000000000000000000000000000000000000000000000000000000001681148061074e575b156106f8575061057e93816106e2575b82806106cb575b505061018435030390611044565b601360201983011161058e578380f35b61059f602019830160218501610b22565b60601c9160201981016014116106c757823b156106c757603595610679869261062a96604051998a98899788966323175ef160e11b88526004356004890152602435602489015260443560448901526064356064890152608435608489015260a43560a489015260c43560c489015260e43560e48901526101e06101048901526101e4880191610b8b565b61012480359087015261014480356001600160a01b0316908701526101648035908701526101848035908701526101a4803590870152858103600319016101c487015292603419019101610b8b565b03925af180156106bc57610690575b818180808380f35b67ffffffffffffffff81116106a85760405238610688565b634e487b7160e01b82526041600452602482fd5b6040513d84823e3d90fd5b8480fd5b60156106db92013560601c611044565b3882610570565b6106f382600183013560601c611044565b610569565b92919061071a9481610737575b828061071f575b505061018435030391610fdb565b61057e565b601561073092013560601c86610fdb565b388261070c565b61074982600183013560601c87610fdb565b610705565b5060e435600160f71b161515610559565b9250929550500161077157849261057e565b60405163679a57eb60e01b8152600490fd5b8780fd5b9192909850866020116108155760208801356001600160f81b031981811693916001601f198b01106107fc575b505060648360f81c116107ea578b996107d76107dc926107e29560f81c92610fce565b610e0a565b90610ae7565b903880610505565b60405163200c0aaf60e01b8152600490fd5b60018a900360200160031b82901b1616925038806107b4565b8a80fd5b6040516338e5a2c160e11b8152600490fd5b966000198660200360031b1b16966104cf565b634e487b7160e01b8b52601160045260248bfd5b604051630155201f60e01b8152600490fd5b506040516370a0823160e01b81526001600160a01b036101443581166004830152602090829060249082907f0000000000000000000000000000000000000000000000000000000000000000165afa9081156108fa578b916108c8575b5015610466565b90506020813d6020116108f2575b816108e360209383610b53565b810103126108155751386108c1565b3d91506108d6565b6040513d8d823e3d90fd5b91606490600583013560f81c02049161045f565b8880fd5b604051633066a1f160e01b8152600490fd5b634e487b7160e01b89526032600452602489fd5b60405163c5374e2d60e01b8152600490fd5b634e487b7160e01b88526032600452602488fd5b935091509250610980602819830160298301610b22565b60601c9260281983016014116109a057603d820192603c190191386103da565b8580fd5b634e487b7160e01b85526032600452602485fd5b60405163692d508360e11b8152600490fd5b5080fd5b503461010a57610a1690610a1f6109ff620186a0610a086109ee36610a68565b849e98999295979b91949394610c38565b909e919e611260565b99945097929c91509961138c565b92010190610ced565b906298968092830180931161019757602061018f8484610d90565b9181601f840112156101055782359167ffffffffffffffff8311610105576020838186019501011161010557565b9060031982016101c0811261010557610100136101055760049167ffffffffffffffff90610104358281116101055781610aa491600401610a3a565b909390926101243592610144356001600160a01b03811681036101055792610164359261018435926101a43591821161010557610ae391600401610a3a565b9091565b91908201809211610af457565b634e487b7160e01b600052601160045260246000fd5b90939293848311610105578411610105578101920390565b6bffffffffffffffffffffffff199035818116939260148110610b4457505050565b60140360031b82901b16169150565b90601f8019910116810190811067ffffffffffffffff821117610b7557604052565b634e487b7160e01b600052604160045260246000fd5b908060209392818452848401376000828201840152601f01601f1916010190565b6000546001600160a01b03163303610bc057565b60405163118cdaa760e01b8152336004820152602490fd5b3d15610c13573d9067ffffffffffffffff8211610b755760405191610c07601f8201601f191660200184610b53565b82523d6000602084013e565b606090565b8115610c22570490565b634e487b7160e01b600052601260045260246000fd5b91908060031161010557823560e81c8160071161010557600384013560e01c9080158015610ce5575b15610cce5750506000925b81600b1161010557600781013560e01c82600e11610105578260111161010557610cb29260101901916011810191600b600e83013560e81c92013560e81c81019061109b565b909390929181811115610cc55703929190565b50506000929190565b620f424091610cde914802610c18565b0492610c6c565b508115610c61565b620186a0916000198383099280830292838086109503948086039514610d805784831115610d67579082910981600003821680920460028082600302188083028203028083028203028083028203028083028203028083028203028092029003029360018380600003040190848311900302920304170290565b82634e487b71600052156003026011186020526024601cfd5b505090610d8d9250610c18565b90565b62989680916000198383099280830292838086109503948086039514610d805784831115610d67579082910981600003821680920460028082600302188083028203028083028203028083028203028083028203028083028203028092029003029360018380600003040190848311900302920304170290565b60001982820982820291828083109203918083039214610e79578160641115610e66577f5c28f5c28f5c28f5c28f5c28f5c28f5c28f5c28f5c28f5c28f5c28f5c28f5c29936064910990828211900360fe1b910360021c170290565b634e487b7160005260116020526024601cfd5b5050606491500490565b9060001981830981830291828083109203918083039214610ee157620186a09082821115610e66577f58cd20afa2f05a708ede54b48d3ae685db76b3bb83cf2cf95d4e8fb00bcbe61d940990828211900360fb1b910360051c170290565b5050620186a091500490565b9060001981830981830291828083109203918083039214610f4b57629896809082821115610e66577f5fb648fcc913daa857a27e44a97d3c6bc1193a63a91cc45be5032477ae8d46a5940990828211900360f91b910360071c170290565b50506298968091500490565b90916000198383099280830292838086109503948086039514610d805784831115610d67579082910981600003821680920460028082600302188083028203028083028203028083028203028083028203028083028203028092029003029360018380600003040190848311900302920304170290565b91908203918211610af457565b9160446020926000926040519163a9059cbb60e01b83526004830152602482015282855af19081611021575b501561100f57565b60405163fb7f507960e01b8152600490fd5b90503d1561103c5750600160005114601f3d11165b38611007565b3b1515611036565b600080809381935af1611055610bd8565b501561105d57565b604051630db2c7f160e31b8152600490fd5b6001600160f01b0319903581811693926002811061108c57505050565b60020360031b82901b16169150565b949293908286831561119e57863560f81c96600190856001116101055760010197600595600019016110d181888402818d610b0a565b909b909a9042116110e9575050505050505050929190565b90919293949580979b9a999850421015611191579291906000905b828210611129575050505050611124939495965082039142900302610c18565b929190565b909192939460039082821161010557863560e81c91838e116101055787013560f01c8101978842111561116d57509096958c01949392840191600419019050611104565b95509697509450505050611124949596975082840393429003029142030201610c18565b5060009950505050505050565b634e487b7160e01b600052603260045260246000fd5b91909260009369ffffffffffffffffffff6000931693811561124c57803560f81c90600a82600a026001948160010180600111610919578181116109195760018501946112049291908290610b0a565b9890989780945b86861061121c575050505050505050565b8385116109ca57803560b01c8314611240579487019460091990930192840161120b565b50959950505050505050565b634e487b7160e01b84526032600452602484fd5b9161126b828461106f565b60f01c92826002101561119e57600281013560f81c92606484116109435780600311610105576112a260021982016003840161106f565b60f01c92816005101561119e57600583013560f81c926064841161091d5782600611610105576112d99260051901906006016111b4565b91969092876112e55750565b60649194020492565b9491610d8d9997949896936113599260e06101c09180358a52602081013560208b0152604081013560408b0152606081013560608b0152608081013560808b015260a081013560a08b015260c081013560c08b0152013560e089015280610100890152870191610b8b565b6101208501979097526001600160a01b03166101408401526101608301526101808201528084036101a090910152610b8b565b91979496909594929160148410611432576113a78483610b22565b60601c9584601411610105576020986014966113e1956040519c8d9b8c9a8b9a631d9671c360e01b8c526013190198019660048b016112ee565b03915afa908115611426576000916113f7575090565b90506020813d60201161141e575b8161141260209383610b53565b81010312610105575190565b3d9150611405565b6040513d6000823e3d90fd5b9695505050505050610d8d925060a060c0830135920135610f57565b919794969095949291601484106114a3576114698483610b22565b60601c9584601411610105576020986014966113e1956040519c8d9b8c9a8b9a6301afff1560e71b8c526013190198019660048b016112ee565b975050505050505060a060c08301359201356114c0818385610f57565b918115610c2257610d8d9309151590610ae7565b600093919269ffffffffffffffffffff1691906004908581356001600160e01b031981811691858910611643575b505060e01c9186841015611630578381013560f81c90600c82600c029889600501806005116109a0578181116109a0579061154991816005869c959d98979601979b610b0a565b9990999884925b848410611576575050505050505042106115675750565b604051639da6e02560e01b8152fd5b90919293949596869c9b9a99989c50873569ffffffffffffffffffff60b01b80821690600a9283871061161c575b50508242106000146115c157604051639da6e02560e01b81528f90fd5b60b09e9a9b9c9d9e1c831461160c57838111610783576115e8906009198501908a0161106f565b60f01c01968284116116085783019594936001019291600b190190611550565b8680fd5b5060019c50505050505050505050565b9080925086840360031b1b161638806115a4565b634e487b7160e01b825260328452602482fd5b9080925088860360031b1b1616388061150256fea26469706673582212204c2fa5cc8332feffe4c4a121157a3bfdeb0f5e3ea7746600420a5b9c4c840aaa64736f6c63430008170033",
  "linkReferences": {},
  "deployedLinkReferences": {}
}