{
  "_format": "hh-sol-artifact-1",
  "contractName": "FeeTaker",
  "sourceName": "@1inch/limit-order-protocol-contract/contracts/extensions/FeeTaker.sol",
  "abi": [
    {
      "inputs": [
        {
          "internalType": "address",
          "name": "limitOrderProtocol",
          "type": "address"
        },
        {
          "internalType": "contract IERC20",
          "name": "accessToken",
          "type": "address"
        },
        {
          "internalType": "address",
          "name": "weth",
          "type": "address"
        },
        {
          "internalType": "address",
          "name": "owner",
          "type": "address"
        }
      ],
      "stateMutability": "nonpayable",
      "type": "constructor"
    },
    {
      "inputs": [],
      "name": "ETHTransferFailed",
      "type": "error"
    },
    {
      "inputs": [],
      "name": "EthTransferFailed",
      "type": "error"
    },
    {
      "inputs": [],
      "name": "InconsistentFee",
      "type": "error"
    },
    {
      "inputs": [],
      "name": "InsufficientBalance",
      "type": "error"
    },
    {
      "inputs": [],
      "name": "InvalidIntegratorShare",
      "type": "error"
    },
    {
      "inputs": [],
      "name": "InvalidWhitelistDiscountNumerator",
      "type": "error"
    },
    {
      "inputs": [],
      "name": "OnlyLimitOrderProtocol",
      "type": "error"
    },
    {
      "inputs": [],
      "name": "OnlyWhitelistOrAccessToken",
      "type": "error"
    },
    {
      "inputs": [
        {
          "internalType": "address",
          "name": "owner",
          "type": "address"
        }
      ],
      "name": "OwnableInvalidOwner",
      "type": "error"
    },
    {
      "inputs": [
        {
          "internalType": "address",
          "name": "account",
          "type": "address"
        }
      ],
      "name": "OwnableUnauthorizedAccount",
      "type": "error"
    },
    {
      "inputs": [],
      "name": "SafeTransferFailed",
      "type": "error"
    },
    {
      "anonymous": false,
      "inputs": [
        {
          "indexed": true,
          "internalType": "address",
          "name": "previousOwner",
          "type": "address"
        },
        {
          "indexed": true,
          "internalType": "address",
          "name": "newOwner",
          "type": "address"
        }
      ],
      "name": "OwnershipTransferred",
      "type": "event"
    },
    {
      "inputs": [
        {
          "components": [
            {
              "internalType": "uint256",
              "name": "salt",
              "type": "uint256"
            },
            {
              "internalType": "Address",
              "name": "maker",
              "type": "uint256"
            },
            {
              "internalType": "Address",
              "name": "receiver",
              "type": "uint256"
            },
            {
              "internalType": "Address",
              "name": "makerAsset",
              "type": "uint256"
            },
            {
              "internalType": "Address",
              "name": "takerAsset",
              "type": "uint256"
            },
            {
              "internalType": "uint256",
              "name": "makingAmount",
              "type": "uint256"
            },
            {
              "internalType": "uint256",
              "name": "takingAmount",
              "type": "uint256"
            },
            {
              "internalType": "MakerTraits",
              "name": "makerTraits",
              "type": "uint256"
            }
          ],
          "internalType": "struct IOrderMixin.Order",
          "name": "order",
          "type": "tuple"
        },
        {
          "internalType": "bytes",
          "name": "extension",
          "type": "bytes"
        },
        {
          "internalType": "bytes32",
          "name": "orderHash",
          "type": "bytes32"
        },
        {
          "internalType": "address",
          "name": "taker",
          "type": "address"
        },
        {
          "internalType": "uint256",
          "name": "takingAmount",
          "type": "uint256"
        },
        {
          "internalType": "uint256",
          "name": "remainingMakingAmount",
          "type": "uint256"
        },
        {
          "internalType": "bytes",
          "name": "extraData",
          "type": "bytes"
        }
      ],
      "name": "getMakingAmount",
      "outputs": [
        {
          "internalType": "uint256",
          "name": "",
          "type": "uint256"
        }
      ],
      "stateMutability": "view",
      "type": "function"
    },
    {
      "inputs": [
        {
          "components": [
            {
              "internalType": "uint256",
              "name": "salt",
              "type": "uint256"
            },
            {
              "internalType": "Address",
              "name": "maker",
              "type": "uint256"
            },
            {
              "internalType": "Address",
              "name": "receiver",
              "type": "uint256"
            },
            {
              "internalType": "Address",
              "name": "makerAsset",
              "type": "uint256"
            },
            {
              "internalType": "Address",
              "name": "takerAsset",
              "type": "uint256"
            },
            {
              "internalType": "uint256",
              "name": "makingAmount",
              "type": "uint256"
            },
            {
              "internalType": "uint256",
              "name": "takingAmount",
              "type": "uint256"
            },
            {
              "internalType": "MakerTraits",
              "name": "makerTraits",
              "type": "uint256"
            }
          ],
          "internalType": "struct IOrderMixin.Order",
          "name": "order",
          "type": "tuple"
        },
        {
          "internalType": "bytes",
          "name": "extension",
          "type": "bytes"
        },
        {
          "internalType": "bytes32",
          "name": "orderHash",
          "type": "bytes32"
        },
        {
          "internalType": "address",
          "name": "taker",
          "type": "address"
        },
        {
          "internalType": "uint256",
          "name": "makingAmount",
          "type": "uint256"
        },
        {
          "internalType": "uint256",
          "name": "remainingMakingAmount",
          "type": "uint256"
        },
        {
          "internalType": "bytes",
          "name": "extraData",
          "type": "bytes"
        }
      ],
      "name": "getTakingAmount",
      "outputs": [
        {
          "internalType": "uint256",
          "name": "",
          "type": "uint256"
        }
      ],
      "stateMutability": "view",
      "type": "function"
    },
    {
      "inputs": [],
      "name": "owner",
      "outputs": [
        {
          "internalType": "address",
          "name": "",
          "type": "address"
        }
      ],
      "stateMutability": "view",
      "type": "function"
    },
    {
      "inputs": [
        {
          "components": [
            {
              "internalType": "uint256",
              "name": "salt",
              "type": "uint256"
            },
            {
              "internalType": "Address",
              "name": "maker",
              "type": "uint256"
            },
            {
              "internalType": "Address",
              "name": "receiver",
              "type": "uint256"
            },
            {
              "internalType": "Address",
              "name": "makerAsset",
              "type": "uint256"
            },
            {
              "internalType": "Address",
              "name": "takerAsset",
              "type": "uint256"
            },
            {
              "internalType": "uint256",
              "name": "makingAmount",
              "type": "uint256"
            },
            {
              "internalType": "uint256",
              "name": "takingAmount",
              "type": "uint256"
            },
            {
              "internalType": "MakerTraits",
              "name": "makerTraits",
              "type": "uint256"
            }
          ],
          "internalType": "struct IOrderMixin.Order",
          "name": "order",
          "type": "tuple"
        },
        {
          "internalType": "bytes",
          "name": "extension",
          "type": "bytes"
        },
        {
          "internalType": "bytes32",
          "name": "orderHash",
          "type": "bytes32"
        },
        {
          "internalType": "address",
          "name": "taker",
          "type": "address"
        },
        {
          "internalType": "uint256",
          "name": "makingAmount",
          "type": "uint256"
        },
        {
          "internalType": "uint256",
          "name": "takingAmount",
          "type": "uint256"
        },
        {
          "internalType": "uint256",
          "name": "remainingMakingAmount",
          "type": "uint256"
        },
        {
          "internalType": "bytes",
          "name": "extraData",
          "type": "bytes"
        }
      ],
      "name": "postInteraction",
      "outputs": [],
      "stateMutability": "nonpayable",
      "type": "function"
    },
    {
      "inputs": [],
      "name": "renounceOwnership",
      "outputs": [],
      "stateMutability": "nonpayable",
      "type": "function"
    },
    {
      "inputs": [
        {
          "internalType": "contract IERC20",
          "name": "token",
          "type": "address"
        },
        {
          "internalType": "uint256",
          "name": "amount",
          "type": "uint256"
        }
      ],
      "name": "rescueFunds",
      "outputs": [],
      "stateMutability": "nonpayable",
      "type": "function"
    },
    {
      "inputs": [
        {
          "internalType": "address",
          "name": "newOwner",
          "type": "address"
        }
      ],
      "name": "transferOwnership",
      "outputs": [],
      "stateMutability": "nonpayable",
      "type": "function"
    },
    {
      "stateMutability": "payable",
      "type": "receive"
    }
  ],
  "bytecode": "0x60e03461010657601f61116738819003918201601f19168301916001600160401b0383118484101761010b578084926080946040528339810103126101065761004781610121565b60208201516001600160a01b0392909183831683036101065783610079606061007260408601610121565b9401610121565b1680156100ed57600080546001600160a01b03198116831782556040519616907f8be0079c531659141344cd1fd0a4f28419497f9722a3daafe3b4186f6b6457e09080a360805260a05260c052611031908161013682396080518161032e015260a05181610435015260c051816106ee0152f35b604051631e4fbdf760e01b815260006004820152602490fd5b600080fd5b634e487b7160e01b600052604160045260246000fd5b51906001600160a01b03821682036101065756fe6080604052600436101561001b575b361561001957600080fd5b005b6000803560e01c80631d9671c3146107ca578063462ebde2146102b4578063715018a61461025a57806378e3214f146101915780638da5cb5b1461016a578063d7ff8a801461010d5763f2fde38b14610074575061000e565b3461010a57602036600319011261010a576004356001600160a01b0381811691829003610105576100a3610946565b81156100ec57600054826bffffffffffffffffffffffff60a01b821617600055167f8be0079c531659141344cd1fd0a4f28419497f9722a3daafe3b4186f6b6457e0600080a380f35b604051631e4fbdf760e01b815260048101849052602490fd5b600080fd5b80fd5b503461010a5760206101626101456101376101273661083d565b849394919a98999295979a610a99565b99945097929b915099610f75565b91620186a0910181016101588184610ddd565b9209151590610ebe565b604051908152f35b503461010a578060031936011261010a57546040516001600160a01b039091168152602090f35b503461010a57604036600319011261010a576004356001600160a01b0381169081810361025657602435916101c4610946565b826101cd578380f35b8015908115610238575b50156102275750804710610215578180808093335af16101f5610972565b5015610203575b3880808380f35b60405163b12d13eb60e01b8152600490fd5b604051631e9acf1760e31b8152600490fd5b90610233913390610ee1565b6101fc565b73eeeeeeeeeeeeeeeeeeeeeeeeeeeeeeeeeeeeeeee915014386101d7565b8280fd5b503461010a578060031936011261010a57610273610946565b600080546001600160a01b0319811682556001600160a01b03167f8be0079c531659141344cd1fd0a4f28419497f9722a3daafe3b4186f6b6457e08280a380f35b503461010a5736600319016101e081126107c6576101001361010a576101043567ffffffffffffffff81116107c6576102f190369060040161080f565b909190610144356001600160a01b03811690036107c65767ffffffffffffffff6101c435116107c65761032a366101c43560040161080f565b90937f00000000000000000000000000000000000000000000000000000000000000006001600160a01b031633036107b45781156107a0578160151161079c578160291161079c576001600160a01b0360243516916029860190602819810190600160f81b8835811614610766575b50906103a9916101443591610a99565b959496929193909615806106c1575b6106af57620186a081810180911161069b5761040392916103f46103ed6103e2886103fe95610ebe565b809361018435610e47565b9384610d64565b9561018435610e47565b610ebe565b918281810311610687579697959688966044356001600160a01b03163003610661576001600160a01b036084358116907f000000000000000000000000000000000000000000000000000000000000000016811480610650575b156105f45750610486938291826105de575b8282036105c4575b50039061018435030390610f4a565b60138211610492578380f35b61049c82846108bc565b60601c91806014116105c057823b156105c057601495610572869261052396604051998a98899788966323175ef160e11b88526004356004890152602435602489015260443560448901526064356064890152608435608489015260a43560a489015260c43560c489015260e43560e48901526101e06101048901526101e4880191610925565b61012480359087015261014480356001600160a01b0316908701526101648035908701526101848035908701526101a4803590870152858103600319016101c487015292601319019101610925565b03925af180156105b557610589575b818180808380f35b67ffffffffffffffff81116105a15760405238610581565b634e487b7160e01b82526041600452602482fd5b6040513d84823e3d90fd5b8480fd5b6105d890601584840391013560601c610f4a565b38610477565b6105ef83600183013560601c610f4a565b61046f565b929161061994819282610639575b82820361061e575b50039061018435030391610ee1565b610486565b61063390601584840391013560601c87610ee1565b3861060a565b61064b83600183013560601c88610ee1565b610602565b5060e435600160f71b16151561045d565b509295505081900301610675578492610486565b60405163679a57eb60e01b8152600490fd5b634e487b7160e01b88526011600452602488fd5b634e487b7160e01b8a52601160045260248afd5b604051630155201f60e01b8152600490fd5b506040516370a0823160e01b81526001600160a01b036101443581166004830152602090829060249082907f0000000000000000000000000000000000000000000000000000000000000000165afa90811561075b578a91610725575b50156103b8565b90506020813d602011610753575b81610740602093836108ed565b8101031261074f57513861071e565b8980fd5b3d9150610733565b6040513d8c823e3d90fd5b9350505061077b6028198301602987016108bc565b60601c9160281981016014116105c057603d860190603c19016103a9610399565b8380fd5b634e487b7160e01b84526032600452602484fd5b60405163692d508360e11b8152600490fd5b5080fd5b503461010a576020610162610806620186a06107f86107e83661083d565b849394919b98999295979b610a99565b99945097929c915099610c02565b92010190610cc4565b9181601f840112156101055782359167ffffffffffffffff8311610105576020838186019501011161010557565b9060031982016101c0811261010557610100136101055760049167ffffffffffffffff906101043582811161010557816108799160040161080f565b909390926101243592610144356001600160a01b03811681036101055792610164359261018435926101a435918211610105576108b89160040161080f565b9091565b6bffffffffffffffffffffffff1990358181169392601481106108de57505050565b60140360031b82901b16169150565b90601f8019910116810190811067ffffffffffffffff82111761090f57604052565b634e487b7160e01b600052604160045260246000fd5b908060209392818452848401376000828201840152601f01601f1916010190565b6000546001600160a01b0316330361095a57565b60405163118cdaa760e01b8152336004820152602490fd5b3d156109ad573d9067ffffffffffffffff821161090f57604051916109a1601f8201601f1916602001846108ed565b82523d6000602084013e565b606090565b9291909160009369ffffffffffffffffffff600093169084156107a057803560f81c90600a82600a0296600194888601808711610a49578210610a455788840186019891829003600019019793849087015b868610610a15575050505050505050565b8385116107c657803560b01c8314610a395794870194600919909301928401610a04565b50959950505050505050565b8780fd5b8880fd5b6001600160f01b03199035818116939260028110610a6a57505050565b60020360031b82901b16169150565b8115610a83570490565b634e487b7160e01b600052601260045260246000fd5b91610aa48284610a4d565b60f01c928260021015610b3957600281013560f81c9260648411610b4f578060031161010557610adb600219820160038401610a4d565b60f01c928160051015610b3957600583013560f81c9260648411610b27578260061161010557610b129260051901906006016109b2565b9196909287610b1e5750565b60649194020492565b604051633066a1f160e01b8152600490fd5b634e487b7160e01b600052603260045260246000fd5b60405163c5374e2d60e01b8152600490fd5b9491610bff999794989693610bcc9260e06101c09180358a52602081013560208b0152604081013560408b0152606081013560608b0152608081013560808b015260a081013560a08b015260c081013560c08b0152013560e089015280610100890152870191610925565b6101208501979097526001600160a01b03166101408401526101608301526101808201528084036101a090910152610925565b90565b91979496909594929160148410610ca857610c1d84836108bc565b60601c958460141161010557602098601496610c57956040519c8d9b8c9a8b9a631d9671c360e01b8c526013190198019660048b01610b61565b03915afa908115610c9c57600091610c6d575090565b90506020813d602011610c94575b81610c88602093836108ed565b81010312610105575190565b3d9150610c7b565b6040513d6000823e3d90fd5b9695505050505050610bff925060a060c0830135920135610e47565b620186a0916000198383099280830292838086109503948086039514610d575784831115610d3e579082910981600003821680920460028082600302188083028203028083028203028083028203028083028203028083028203028092029003029360018380600003040190848311900302920304170290565b82634e487b71600052156003026011186020526024601cfd5b505090610bff9250610a79565b60001982820982820291828083109203918083039214610dd3578160641115610dc0577f5c28f5c28f5c28f5c28f5c28f5c28f5c28f5c28f5c28f5c28f5c28f5c28f5c29936064910990828211900360fe1b910360021c170290565b634e487b7160005260116020526024601cfd5b5050606491500490565b9060001981830981830291828083109203918083039214610e3b57620186a09082821115610dc0577f58cd20afa2f05a708ede54b48d3ae685db76b3bb83cf2cf95d4e8fb00bcbe61d940990828211900360fb1b910360051c170290565b5050620186a091500490565b90916000198383099280830292838086109503948086039514610d575784831115610d3e579082910981600003821680920460028082600302188083028203028083028203028083028203028083028203028083028203028092029003029360018380600003040190848311900302920304170290565b91908201809211610ecb57565b634e487b7160e01b600052601160045260246000fd5b9160446020926000926040519163a9059cbb60e01b83526004830152602482015282855af19081610f27575b5015610f1557565b60405163fb7f507960e01b8152600490fd5b90503d15610f425750600160005114601f3d11165b38610f0d565b3b1515610f3c565b600080809381935af1610f5b610972565b5015610f6357565b604051630db2c7f160e31b8152600490fd5b91979496909594929160148410610fca57610f9084836108bc565b60601c958460141161010557602098601496610c57956040519c8d9b8c9a8b9a6301afff1560e71b8c526013190198019660048b01610b61565b975050505050505060a060c0830135920135610fe7818385610e47565b918115610a8357610bff9309151590610ebe56fea264697066735822122056f0e37946fc3202b9f5020718f75e2dad0c4c93902b4e5a31e5b26cf470384d64736f6c63430008170033",
  "linkReferences": {},
  "deployedLinkReferences": {}
}