{
  "_format": "hh-sol-artifact-1",
  "contractName": "PriorityFeeLimiter",
  "sourceName": "contracts/1inch/extensions/PrioirityFeeLimiter.sol",
  "abi": [
    {
      "inputs": [],
      "name": "isPriorityFeeValid",
      "outputs": [
        {
          "internalType": "bool",
          "name": "",
          "type": "bool"
        }
      ],
      "stateMutability": "view",
      "type": "function"
    }
  ],
  "bytecode": "0x608080604052346100155760c0908161001b8239f35b600080fdfe6080806040526004361015601257600080fd5b600090813560e01c630202470814602857600080fd5b3460455781600319360112604557602090603f6049565b15158152f35b5080fd5b483a03640277cf2a0048106000146067576064604648029102111590565b64183cd7f100481015607d57489060011b111590565b606460414802910211159056fea2646970667358221220938416d5a3a473fe8f563619fa33c4edea05a42097bc1b3ec9352e4d5fb6bd6564736f6c63430008170033",
  "linkReferences": {},
  "deployedLinkReferences": {}
}