{
  "_format": "hh-sol-artifact-1",
  "contractName": "ImmutableOwner",
  "sourceName": "contracts/1inch/extensions/ImmutableOwner.sol",
  "abi": [
    {
      "inputs": [
        {
          "internalType": "address",
          "name": "_immutableOwner",
          "type": "address"
        }
      ],
      "stateMutability": "nonpayable",
      "type": "constructor"
    },
    {
      "inputs": [],
      "name": "IOAccessDenied",
      "type": "error"
    },
    {
      "inputs": [],
      "name": "IMMUTABLE_OWNER",
      "outputs": [
        {
          "internalType": "address",
          "name": "",
          "type": "address"
        }
      ],
      "stateMutability": "view",
      "type": "function"
    }
  ],
  "bytecode": "0x60a03461006857601f61012538819003918201601f19168301916001600160401b0383118484101761006d5780849260209460405283398101031261006857516001600160a01b03811681036100685760805260405160a1908161008482396080518160380152f35b600080fd5b634e487b7160e01b600052604160045260246000fdfe6080806040526004361015601257600080fd5b600090813560e01c63f3d1372f14602857600080fd5b34606757816003193601126067577f00000000000000000000000000000000000000000000000000000000000000006001600160a01b03168152602090f35b5080fdfea2646970667358221220eff0be8e3e590615ff5190ed1925d317efff3d52f346407d990268baa1c177cd64736f6c63430008170033",
  "linkReferences": {},
  "deployedLinkReferences": {}
}