{
  "_format": "hh-sol-artifact-1",
  "contractName": "ModuleManager",
  "sourceName": "@gnosis.pm/safe-contracts/contracts/base/ModuleManager.sol",
  "abi": [
    {
      "anonymous": false,
      "inputs": [
        {
          "indexed": false,
          "internalType": "address",
          "name": "module",
          "type": "address"
        }
      ],
      "name": "DisabledModule",
      "type": "event"
    },
    {
      "anonymous": false,
      "inputs": [
        {
          "indexed": false,
          "internalType": "address",
          "name": "module",
          "type": "address"
        }
      ],
      "name": "EnabledModule",
      "type": "event"
    },
    {
      "anonymous": false,
      "inputs": [
        {
          "indexed": true,
          "internalType": "address",
          "name": "module",
          "type": "address"
        }
      ],
      "name": "ExecutionFromModuleFailure",
      "type": "event"
    },
    {
      "anonymous": false,
      "inputs": [
        {
          "indexed": true,
          "internalType": "address",
          "name": "module",
          "type": "address"
        }
      ],
      "name": "ExecutionFromModuleSuccess",
      "type": "event"
    },
    {
      "inputs": [
        {
          "internalType": "address",
          "name": "prevModule",
          "type": "address"
        },
        {
          "internalType": "address",
          "name": "module",
          "type": "address"
        }
      ],
      "name": "disableModule",
      "outputs": [],
      "stateMutability": "nonpayable",
      "type": "function"
    },
    {
      "inputs": [
        {
          "internalType": "address",
          "name": "module",
          "type": "address"
        }
      ],
      "name": "enableModule",
      "outputs": [],
      "stateMutability": "nonpayable",
      "type": "function"
    },
    {
      "inputs": [
        {
          "internalType": "address",
          "name": "to",
          "type": "address"
        },
        {
          "internalType": "uint256",
          "name": "value",
          "type": "uint256"
        },
        {
          "internalType": "bytes",
          "name": "data",
          "type": "bytes"
        },
        {
          "internalType": "enum Enum.Operation",
          "name": "operation",
          "type": "uint8"
        }
      ],
      "name": "execTransactionFromModule",
      "outputs": [
        {
          "internalType": "bool",
          "name": "success",
          "type": "bool"
        }
      ],
      "stateMutability": "nonpayable",
      "type": "function"
    },
    {
      "inputs": [
        {
          "internalType": "address",
          "name": "to",
          "type": "address"
        },
        {
          "internalType": "uint256",
          "name": "value",
          "type": "uint256"
        },
        {
          "internalType": "bytes",
          "name": "data",
          "type": "bytes"
        },
        {
          "internalType": "enum Enum.Operation",
          "name": "operation",
          "type": "uint8"
        }
      ],
      "name": "execTransactionFromModuleReturnData",
      "outputs": [
        {
          "internalType": "bool",
          "name": "success",
          "type": "bool"
        },
        {
          "internalType": "bytes",
          "name": "returnData",
          "type": "bytes"
        }
      ],
      "stateMutability": "nonpayable",
      "type": "function"
    },
    {
      "inputs": [
        {
          "internalType": "address",
          "name": "start",
          "type": "address"
        },
        {
          "internalType": "uint256",
          "name": "pageSize",
          "type": "uint256"
        }
      ],
      "name": "getModulesPaginated",
      "outputs": [
        {
          "internalType": "address[]",
          "name": "array",
          "type": "address[]"
        },
        {
          "internalType": "address",
          "name": "next",
          "type": "address"
        }
      ],
      "stateMutability": "view",
      "type": "function"
    },
    {
      "inputs": [
        {
          "internalType": "address",
          "name": "module",
          "type": "address"
        }
      ],
      "name": "isModuleEnabled",
      "outputs": [
        {
          "internalType": "bool",
          "name": "",
          "type": "bool"
        }
      ],
      "stateMutability": "view",
      "type": "function"
    }
  ],
  "bytecode": "0x608080604052346100165761087e908161001c8239f35b600080fdfe6080604052600436101561001257600080fd5b6000803560e01c9081632d9ad53d1461007a57508063468721a7146100755780635229073f14610070578063610b59251461006b578063cc2f8452146100665763e009cfde1461006157600080fd5b610547565b610451565b610280565b6101fb565b6101d5565b346100ce5760203660031901126100ce576001600160a01b038061009c6100d1565b1691826001141592836100b6575b83151560805260206080f35b604092935081528060205220541615158180806100aa565b80fd5b600435906001600160a01b03821682036100e757565b600080fd5b602435906001600160a01b03821682036100e757565b634e487b7160e01b600052604160045260246000fd5b6040519190601f01601f1916820167ffffffffffffffff81118382101761013e57604052565b610102565b6064359060028210156100e757565b60806003198201126100e7576101666100d1565b916024359167ffffffffffffffff6044358181116100e757826023820112156100e757806004013591821161013e576101a8601f8301601f1916602001610118565b92828452602483830101116100e757816000926024602093018386013783010152906101d2610143565b90565b346100e75760206101f16101e836610152565b9291909161066d565b6040519015158152f35b346100e75761020c6101e836610152565b60405160209160203d8301016040523d82523d6000602084013e60405192839115158252604060208301528251908160408401526000935b828510610267575050606092506000838284010152601f80199101168101030190f35b8481018201518686016060015293810193859350610244565b346100e75760203660031901126100e7576102996100d1565b6102a1610812565b6001600160a01b03818116801515806103ee575b6102be90610731565b6000526000602052604060002054166103c157600160009081526020527fecdf3a3effea5783a3c4c2140e677577666428d44ed9d474a0b3a4c9943f8440906103bc9061036e6103367fada5013122d395ba3c54772283fb069b10426056ef8ca54750cb9bb552a59e7d5b546001600160a01b031690565b6001600160a01b03831660009081526020819052604090205b80546001600160a01b0319166001600160a01b03909216919091179055565b600160009081526020526103a2817fada5013122d395ba3c54772283fb069b10426056ef8ca54750cb9bb552a59e7d61034f565b6040516001600160a01b0390911681529081906020820190565b0390a1005b60405162461bcd60e51b815260206004820152600560248201526423a998981960d91b6044820152606490fd5b5060018114156102b5565b9092919260408201604083528151809152606083019060208093019260005b82811061043457505050602091509360018060a01b0316910152565b84516001600160a01b031684529381019392810192600101610418565b346100e75760403660031901126100e75761046a6100d1565b6024359061047f61047a83610765565b610118565b828152601f1961048e84610765565b013660208301376001600160a01b0391821660009081526020819052604081205490939083165b838116801515908161053b575b5080610532575b1561051b5761050f610329826104f5610515946104e68a8961077d565b6001600160a01b039091169052565b6001600160a01b0316600090815260208190526040902090565b946107a7565b936104b5565b8285815261052e604051928392836103f9565b0390f35b508185106104c9565b600191501415386104c2565b346100e75760403660031901126100e7576105606100d1565b6105686100ec565b90610571610812565b6001600160a01b038281169081151580610662575b61058f90610731565b80831660005260006020526040600020541603610635578161060a6103bc9261034f6105f16103297faab4fa2b463f581b2b32cb3b7e3b704b9ce37cc209b5fb4d77e593ace40542769760018060a01b03166000526000602052604060002090565b9160018060a01b03166000526000602052604060002090565b6001600160a01b038116600090815260208190526040902080546001600160a01b03191690556103a2565b60405162461bcd60e51b8152602060048201526005602482015264475331303360d81b6044820152606490fd5b506001821415610586565b91929092600133141580610710575b156106e35761068c935a936107cc565b9081156106bb57337f6895c13664aa4f67288b25d7a21d7aaa34916e355fb9b6fae0a139a9085becb8600080a2565b337facd2c8702804128fdb0db2bb49f6d127dd0181c13fd45dbfe16de0930e2bd375600080a2565b60405162461bcd60e51b815260206004820152600560248201526411d4cc4c0d60da1b6044820152606490fd5b50336000908152602081905260409020546001600160a01b0316151561067c565b1561073857565b60405162461bcd60e51b8152602060048201526005602482015264475331303160d81b6044820152606490fd5b67ffffffffffffffff811161013e5760051b60200190565b80518210156107915760209160051b010190565b634e487b7160e01b600052603260045260246000fd5b60001981146107b65760010190565b634e487b7160e01b600052601160045260246000fd5b93909360028410156107fc5760009485946001036107f0575060208351930191f490565b9060208451940192f190565b634e487b7160e01b600052602160045260246000fd5b30330361081b57565b60405162461bcd60e51b8152602060048201526005602482015264475330333160d81b6044820152606490fdfea2646970667358221220b904d84f655b6032d1b00c1adf7a0afd64ad15810c29cd85c095dda40f4da9e164736f6c63430008170033",
  "linkReferences": {},
  "deployedLinkReferences": {}
}