{
  "_format": "hh-sol-artifact-1",
  "contractName": "RangeAmountCalculator",
  "sourceName": "contracts/1inch/extensions/RangeAmountCalculator.sol",
  "abi": [
    {
      "inputs": [],
      "name": "IncorrectRange",
      "type": "error"
    },
    {
      "inputs": [
        {
          "components": [
            {
              "internalType": "uint256",
              "name": "salt",
              "type": "uint256"
            },
            {
              "internalType": "Address",
              "name": "maker",
              "type": "uint256"
            },
            {
              "internalType": "Address",
              "name": "receiver",
              "type": "uint256"
            },
            {
              "internalType": "Address",
              "name": "makerAsset",
              "type": "uint256"
            },
            {
              "internalType": "Address",
              "name": "takerAsset",
              "type": "uint256"
            },
            {
              "internalType": "uint256",
              "name": "makingAmount",
              "type": "uint256"
            },
            {
              "internalType": "uint256",
              "name": "takingAmount",
              "type": "uint256"
            },
            {
              "internalType": "MakerTraits",
              "name": "makerTraits",
              "type": "uint256"
            }
          ],
          "internalType": "struct IOrderMixin.Order",
          "name": "order",
          "type": "tuple"
        },
        {
          "internalType": "bytes",
          "name": "",
          "type": "bytes"
        },
        {
          "internalType": "bytes32",
          "name": "",
          "type": "bytes32"
        },
        {
          "internalType": "address",
          "name": "",
          "type": "address"
        },
        {
          "internalType": "uint256",
          "name": "takingAmount",
          "type": "uint256"
        },
        {
          "internalType": "uint256",
          "name": "remainingMakingAmount",
          "type": "uint256"
        },
        {
          "internalType": "bytes",
          "name": "extraData",
          "type": "bytes"
        }
      ],
      "name": "getMakingAmount",
      "outputs": [
        {
          "internalType": "uint256",
          "name": "",
          "type": "uint256"
        }
      ],
      "stateMutability": "pure",
      "type": "function"
    },
    {
      "inputs": [
        {
          "internalType": "uint256",
          "name": "priceStart",
          "type": "uint256"
        },
        {
          "internalType": "uint256",
          "name": "priceEnd",
          "type": "uint256"
        },
        {
          "internalType": "uint256",
          "name": "orderMakingAmount",
          "type": "uint256"
        },
        {
          "internalType": "uint256",
          "name": "takingAmount",
          "type": "uint256"
        },
        {
          "internalType": "uint256",
          "name": "remainingMakingAmount",
          "type": "uint256"
        }
      ],
      "name": "getRangeMakerAmount",
      "outputs": [
        {
          "internalType": "uint256",
          "name": "",
          "type": "uint256"
        }
      ],
      "stateMutability": "pure",
      "type": "function"
    },
    {
      "inputs": [
        {
          "internalType": "uint256",
          "name": "priceStart",
          "type": "uint256"
        },
        {
          "internalType": "uint256",
          "name": "priceEnd",
          "type": "uint256"
        },
        {
          "internalType": "uint256",
          "name": "orderMakingAmount",
          "type": "uint256"
        },
        {
          "internalType": "uint256",
          "name": "makingAmount",
          "type": "uint256"
        },
        {
          "internalType": "uint256",
          "name": "remainingMakingAmount",
          "type": "uint256"
        }
      ],
      "name": "getRangeTakerAmount",
      "outputs": [
        {
          "internalType": "uint256",
          "name": "",
          "type": "uint256"
        }
      ],
      "stateMutability": "pure",
      "type": "function"
    },
    {
      "inputs": [
        {
          "components": [
            {
              "internalType": "uint256",
              "name": "salt",
              "type": "uint256"
            },
            {
              "internalType": "Address",
              "name": "maker",
              "type": "uint256"
            },
            {
              "internalType": "Address",
              "name": "receiver",
              "type": "uint256"
            },
            {
              "internalType": "Address",
              "name": "makerAsset",
              "type": "uint256"
            },
            {
              "internalType": "Address",
              "name": "takerAsset",
              "type": "uint256"
            },
            {
              "internalType": "uint256",
              "name": "makingAmount",
              "type": "uint256"
            },
            {
              "internalType": "uint256",
              "name": "takingAmount",
              "type": "uint256"
            },
            {
              "internalType": "MakerTraits",
              "name": "makerTraits",
              "type": "uint256"
            }
          ],
          "internalType": "struct IOrderMixin.Order",
          "name": "order",
          "type": "tuple"
        },
        {
          "internalType": "bytes",
          "name": "",
          "type": "bytes"
        },
        {
          "internalType": "bytes32",
          "name": "",
          "type": "bytes32"
        },
        {
          "internalType": "address",
          "name": "",
          "type": "address"
        },
        {
          "internalType": "uint256",
          "name": "makingAmount",
          "type": "uint256"
        },
        {
          "internalType": "uint256",
          "name": "remainingMakingAmount",
          "type": "uint256"
        },
        {
          "internalType": "bytes",
          "name": "extraData",
          "type": "bytes"
        }
      ],
      "name": "getTakingAmount",
      "outputs": [
        {
          "internalType": "uint256",
          "name": "",
          "type": "uint256"
        }
      ],
      "stateMutability": "pure",
      "type": "function"
    }
  ],
  "bytecode": "0x608080604052346100165761051c908161001c8239f35b600080fdfe6080604052600436101561001257600080fd5b6000803560e01c80631d9671c3146100c357806390c666d1146100a6578063acaf5316146100895763d7ff8a801461004957600080fd5b3461008657602061007e60a06100736100613661011a565b935093509794509592508101906101bb565b91909201359161034a565b604051908152f35b80fd5b503461008657602061007e61009d36610199565b9392909261034a565b503461008657602061007e6100ba36610199565b939290926101d1565b503461008657602061007e60a06100dc6100613661011a565b9190920135916101d1565b9181601f840112156101155782359167ffffffffffffffff8311610115576020838186019501011161011557565b600080fd5b9060031982016101c0811261011557610100136101155760049167ffffffffffffffff90610104358281116101155781610156916004016100e7565b909390926101243592610144356001600160a01b03811681036101155792610164359261018435926101a43591821161011557610195916004016100e7565b9091565b60a0906003190112610115576004359060243590604435906064359060843590565b9190826040910312610115576020823592013590565b90919293818311156102eb576101e790846102fd565b926101f282846102fd565b670de0b6b3a764000093848202918083048614901517156102d55761022e84610228610221866102349661031d565b958261030a565b926102fd565b9061031d565b9461023f868461030a565b6001600160ff1b03939084821682036102d55761027761027161027d93886102678b8961030a565b049060011b61033d565b8861030a565b9061033d565b908060011b938116036102d557838302928084048514901517156102d5576102ad926102a89161033d565b61031d565b8181029181830414901517156102d5576102d2926102cd6102cd926103c6565b6102fd565b90565b634e487b7160e01b600052601160045260246000fd5b60405163218c997760e21b8152600490fd5b919082039182116102d557565b818102929181159184041417156102d557565b8115610327570490565b634e487b7160e01b600052601260045260246000fd5b919082018092116102d557565b9392919092848411156102eb578461036561036b92846102fd565b946102fd565b6001600160ff1b039390919080851681036102d55761039a92610394856102a89360011b61033d565b9061030a565b91831683036102d5576103bd6103c292671bc16d674ec800009460011b9061033d565b61030a565b0490565b6001808211156104e257610483908083600160801b8110156104d0575b80600160401b60049210156104c3575b6401000000008110156104b6575b620100008110156104a9575b61010081101561049d575b6010811015610491575b101561048a575b600302811c610438818561031d565b01811c610445818561031d565b01811c610452818561031d565b01811c61045f818561031d565b01811c61046c818561031d565b01811c610479818561031d565b01901c809261031d565b8111900390565b811b610429565b811c9160021b91610422565b60081c91811b91610418565b60101c9160081b9161040d565b60201c9160101b91610401565b60401c9160201b916103f3565b50600160401b9050608084901c6103e3565b509056fea264697066735822122053c4ab34c0171d85e84b238a033c8b6c562b9d75fbb355eeacec9a3d10383af064736f6c63430008170033",
  "linkReferences": {},
  "deployedLinkReferences": {}
}