{
  "_format": "hh-sol-artifact-1",
  "contractName": "GuardManager",
  "sourceName": "@gnosis.pm/safe-contracts/contracts/base/GuardManager.sol",
  "abi": [
    {
      "anonymous": false,
      "inputs": [
        {
          "indexed": false,
          "internalType": "address",
          "name": "guard",
          "type": "address"
        }
      ],
      "name": "ChangedGuard",
      "type": "event"
    },
    {
      "inputs": [
        {
          "internalType": "address",
          "name": "guard",
          "type": "address"
        }
      ],
      "name": "setGuard",
      "outputs": [],
      "stateMutability": "nonpayable",
      "type": "function"
    }
  ],
  "bytecode": "0x608080604052346100165761010b908161001c8239f35b600080fdfe6080806040526004361015601257600080fd5b600090813560e01c63e19a9dd914602857600080fd5b3460d157602036600319011260d1576004356001600160a01b0381169182820360cd5730330360a357507f1151116914515bc0891ff9047a6cb32cf902546f83066499bcf8ba33d2353fa2916020917f4a204f620c8c5ccdca3fd54d003badd85ba500436a431f0cbda4f558c93c34c855604051908152a180f35b62461bcd60e51b8152602060048201526005602482015264475330333160d81b6044820152606490fd5b8380fd5b5080fdfea2646970667358221220f7edcc955bbca56b1ff8131903bf969635836d2179f22728c0bcbaa52aabecc364736f6c63430008170033",
  "linkReferences": {},
  "deployedLinkReferences": {}
}