{
  "_format": "hh-sol-artifact-1",
  "contractName": "FallbackManager",
  "sourceName": "@gnosis.pm/safe-contracts/contracts/base/FallbackManager.sol",
  "abi": [
    {
      "anonymous": false,
      "inputs": [
        {
          "indexed": false,
          "internalType": "address",
          "name": "handler",
          "type": "address"
        }
      ],
      "name": "ChangedFallbackHandler",
      "type": "event"
    },
    {
      "stateMutability": "nonpayable",
      "type": "fallback"
    },
    {
      "inputs": [
        {
          "internalType": "address",
          "name": "handler",
          "type": "address"
        }
      ],
      "name": "setFallbackHandler",
      "outputs": [],
      "stateMutability": "nonpayable",
      "type": "function"
    }
  ],
  "bytecode": "0x6080806040523461001657610161908161001c8239f35b600080fdfe60806040526004361015610019575b34156100d857600080fd5b6000803560e01c63f08a032314610030575061000e565b346100d55760203660031901126100d5576004356001600160a01b038116908181036100d1573033036100ab577f6c9a6c4a39284e37ed1cf53d337577d14212a4870fb976a4366c693b939918d5556080527f5ac6c46c93c8d0e53714ba3b53db3e7c046da994313d7ed0d192028bc7c228b060206080a180f35b62461bcd60e51b6080526020608452600560a45264475330333160d81b60c45260646080fd5b8280fd5b80fd5b7f6c9a6c4a39284e37ed1cf53d337577d14212a4870fb976a4366c693b939918d5548015610129576000808092368280373360601b3652818060143601925af13d82803e15610125573d90f35b3d90fd5b00fea264697066735822122061b33818d279e916a5a692766b3348b978b7b9080ae1c6fae97182212c75404e64736f6c63430008170033",
  "linkReferences": {},
  "deployedLinkReferences": {}
}