{
  "_format": "hh-sol-artifact-1",
  "contractName": "ETH_HTLC",
  "sourceName": "contracts/evm/ETH_HTLC.sol",
  "abi": [
    {
      "anonymous": false,
      "inputs": [
        {
          "indexed": true,
          "internalType": "bytes32",
          "name": "swapId",
          "type": "bytes32"
        },
        {
          "indexed": false,
          "internalType": "bytes",
          "name": "preimage",
          "type": "bytes"
        },
        {
          "indexed": false,
          "internalType": "uint256",
          "name": "amount",
          "type": "uint256"
        }
      ],
      "name": "Claimed",
      "type": "event"
    },
    {
      "anonymous": false,
      "inputs": [
        {
          "indexed": true,
          "internalType": "bytes32",
          "name": "swapId",
          "type": "bytes32"
        },
        {
          "indexed": true,
          "internalType": "address",
          "name": "sender",
          "type": "address"
        },
        {
          "indexed": true,
          "internalType": "address",
          "name": "receiver",
          "type": "address"
        },
        {
          "indexed": false,
          "internalType": "uint256",
          "name": "amount",
          "type": "uint256"
        },
        {
          "indexed": false,
          "internalType": "bytes32",
          "name": "secretHash",
          "type": "bytes32"
        },
        {
          "indexed": false,
          "internalType": "uint256",
          "name": "expiry",
          "type": "uint256"
        }
      ],
      "name": "Locked",
      "type": "event"
    },
    {
      "anonymous": false,
      "inputs": [
        {
          "indexed": true,
          "internalType": "bytes32",
          "name": "swapId",
          "type": "bytes32"
        },
        {
          "indexed": false,
          "internalType": "uint256",
          "name": "amount",
          "type": "uint256"
        }
      ],
      "name": "Refunded",
      "type": "event"
    },
    {
      "inputs": [
        {
          "internalType": "bytes32",
          "name": "swapId",
          "type": "bytes32"
        },
        {
          "internalType": "bytes",
          "name": "preimage",
          "type": "bytes"
        }
      ],
      "name": "claim",
      "outputs": [],
      "stateMutability": "nonpayable",
      "type": "function"
    },
    {
      "inputs": [
        {
          "internalType": "bytes32",
          "name": "swapId",
          "type": "bytes32"
        },
        {
          "internalType": "address",
          "name": "receiver",
          "type": "address"
        },
        {
          "internalType": "bytes32",
          "name": "secretHash",
          "type": "bytes32"
        },
        {
          "internalType": "uint256",
          "name": "expiry",
          "type": "uint256"
        }
      ],
      "name": "lock",
      "outputs": [],
      "stateMutability": "payable",
      "type": "function"
    },
    {
      "inputs": [
        {
          "internalType": "bytes32",
          "name": "swapId",
          "type": "bytes32"
        }
      ],
      "name": "refund",
      "outputs": [],
      "stateMutability": "nonpayable",
      "type": "function"
    },
    {
      "inputs": [
        {
          "internalType": "bytes32",
          "name": "",
          "type": "bytes32"
        }
      ],
      "name": "swaps",
      "outputs": [
        {
          "internalType": "address",
          "name": "sender",
          "type": "address"
        },
        {
          "internalType": "address",
          "name": "receiver",
          "type": "address"
        },
        {
          "internalType": "bytes32",
          "name": "secretHash",
          "type": "bytes32"
        },
        {
          "internalType": "uint256",
          "name": "amount",
          "type": "uint256"
        },
        {
          "internalType": "uint256",
          "name": "expiry",
          "type": "uint256"
        },
        {
          "internalType": "bool",
          "name": "refunded",
          "type": "bool"
        }
      ],
      "stateMutability": "view",
      "type": "function"
    }
  ],
  "bytecode": "0x608060405234801561001057600080fd5b506108b5806100206000396000f3fe60806040526004361061003f5760003560e01c80637249fbb6146100445780637742effd14610066578063eb84e7f214610079578063f033102414610117575b600080fd5b34801561005057600080fd5b5061006461005f366004610758565b610137565b005b610064610074366004610771565b610308565b34801561008557600080fd5b506100d9610094366004610758565b6000602081905290815260409020805460018201546002830154600384015460048501546005909501546001600160a01b039485169593909416939192909160ff1686565b604080516001600160a01b0397881681529690951660208701529385019290925260608401526080830152151560a082015260c00160405180910390f35b34801561012357600080fd5b506100646101323660046107ba565b61052f565b600081815260208190526040902080546001600160a01b031633146101905760405162461bcd60e51b815260206004820152600a6024820152693737ba1039b2b73232b960b11b60448201526064015b60405180910390fd5b600581015460ff16156101d85760405162461bcd60e51b815260206004820152601060248201526f185b1c9958591e481c99599d5b99195960821b6044820152606401610187565b806004015442116102195760405162461bcd60e51b815260206004820152600b60248201526a1b9bdd08195e1c1a5c995960aa1b6044820152606401610187565b60058101805460ff1916600117905560038101805460009182905582546040519192916001600160a01b039091169083908381818185875af1925050503d8060008114610282576040519150601f19603f3d011682016040523d82523d6000602084013e610287565b606091505b50509050806102c85760405162461bcd60e51b815260206004820152600d60248201526c1c99599d5b990819985a5b1959609a1b6044820152606401610187565b837f1535ab411323bb41ad642ccf14068bbd78818ed38dd9b4421c927cc6eeb07e2d836040516102fa91815260200190565b60405180910390a250505050565b6000848152602081905260409020546001600160a01b03161561035b5760405162461bcd60e51b815260206004820152600b60248201526a737761702065786973747360a81b6044820152606401610187565b42811161039b5760405162461bcd60e51b815260206004820152600e60248201526d195e1c1a5c9e481a5b881c185cdd60921b6044820152606401610187565b600034116103d95760405162461bcd60e51b815260206004820152600b60248201526a1b9bc8115512081cd95b9d60aa1b6044820152606401610187565b6040518060c00160405280336001600160a01b03168152602001846001600160a01b031681526020018381526020013481526020018281526020016000151581525060008086815260200190815260200160002060008201518160000160006101000a8154816001600160a01b0302191690836001600160a01b0316021790555060208201518160010160006101000a8154816001600160a01b0302191690836001600160a01b0316021790555060408201518160020155606082015181600301556080820151816004015560a08201518160050160006101000a81548160ff021916908315150217905550905050826001600160a01b0316336001600160a01b0316857f578af4d125bb96ec89cd1ade591cb196f35d15047d5b096c478e45e311d84263348686604051610521939291909283526020830191909152604082015260600190565b60405180910390a450505050565b600083815260208190526040902060018101546001600160a01b031633146105885760405162461bcd60e51b815260206004820152600c60248201526b3737ba103932b1b2b4bb32b960a11b6044820152606401610187565b600581015460ff16156105d05760405162461bcd60e51b815260206004820152601060248201526f185b1c9958591e481c99599d5b99195960821b6044820152606401610187565b806004015442111561060e5760405162461bcd60e51b8152602060048201526007602482015266195e1c1a5c995960ca1b6044820152606401610187565b80600201548383604051610623929190610836565b60405180910390201461066b5760405162461bcd60e51b815260206004820152601060248201526f696e76616c696420707265696d61676560801b6044820152606401610187565b60038101805460009182905560018301546040519192916001600160a01b039091169083908381818185875af1925050503d80600081146106c8576040519150601f19603f3d011682016040523d82523d6000602084013e6106cd565b606091505b50509050806107145760405162461bcd60e51b8152602060048201526013602482015272115512081d1c985b9cd9995c8819985a5b1959606a1b6044820152606401610187565b857f4d633d9eb21d9ba40145f6f0d139384447e5d611edeae1a35cb29601e3b7be9186868560405161074893929190610846565b60405180910390a2505050505050565b60006020828403121561076a57600080fd5b5035919050565b6000806000806080858703121561078757600080fd5b8435935060208501356001600160a01b03811681146107a557600080fd5b93969395505050506040820135916060013590565b6000806000604084860312156107cf57600080fd5b83359250602084013567ffffffffffffffff808211156107ee57600080fd5b818601915086601f83011261080257600080fd5b81358181111561081157600080fd5b87602082850101111561082357600080fd5b6020830194508093505050509250925092565b8183823760009101908152919050565b604081528260408201528284606083013760006060848301015260006060601f19601f860116830101905082602083015294935050505056fea2646970667358221220de8d8242332529dc9c2026a0483f76c415be257377733076806fdfa31f42f79c64736f6c63430008140033",
  "linkReferences": {},
  "deployedLinkReferences": {}
}