{
  "_format": "hh-sol-artifact-1",
  "contractName": "EthHTLC",
  "sourceName": "contracts/evm/ETH_HTLC.sol",
  "abi": [
    {
      "anonymous": false,
      "inputs": [
        {
          "indexed": true,
          "internalType": "bytes32",
          "name": "id",
          "type": "bytes32"
        },
        {
          "indexed": true,
          "internalType": "address",
          "name": "maker",
          "type": "address"
        },
        {
          "indexed": false,
          "internalType": "address",
          "name": "token",
          "type": "address"
        },
        {
          "indexed": false,
          "internalType": "uint256",
          "name": "amount",
          "type": "uint256"
        },
        {
          "indexed": false,
          "internalType": "bytes32",
          "name": "hashlock",
          "type": "bytes32"
        },
        {
          "indexed": false,
          "internalType": "uint256",
          "name": "timelock",
          "type": "uint256"
        }
      ],
      "name": "NewSwap",
      "type": "event"
    },
    {
      "anonymous": false,
      "inputs": [
        {
          "indexed": true,
          "internalType": "bytes32",
          "name": "id",
          "type": "bytes32"
        }
      ],
      "name": "Refund",
      "type": "event"
    },
    {
      "anonymous": false,
      "inputs": [
        {
          "indexed": true,
          "internalType": "bytes32",
          "name": "id",
          "type": "bytes32"
        },
        {
          "indexed": false,
          "internalType": "bytes32",
          "name": "preimage",
          "type": "bytes32"
        },
        {
          "indexed": true,
          "internalType": "address",
          "name": "to",
          "type": "address"
        }
      ],
      "name": "Withdraw",
      "type": "event"
    },
    {
      "inputs": [
        {
          "internalType": "bytes32",
          "name": "id",
          "type": "bytes32"
        },
        {
          "internalType": "address",
          "name": "token",
          "type": "address"
        },
        {
          "internalType": "uint256",
          "name": "amount",
          "type": "uint256"
        },
        {
          "internalType": "bytes32",
          "name": "hashlock",
          "type": "bytes32"
        },
        {
          "internalType": "uint256",
          "name": "timelock",
          "type": "uint256"
        }
      ],
      "name": "newSwap",
      "outputs": [],
      "stateMutability": "nonpayable",
      "type": "function"
    },
    {
      "inputs": [
        {
          "internalType": "bytes32",
          "name": "id",
          "type": "bytes32"
        }
      ],
      "name": "refund",
      "outputs": [],
      "stateMutability": "nonpayable",
      "type": "function"
    },
    {
      "inputs": [
        {
          "internalType": "bytes32",
          "name": "",
          "type": "bytes32"
        }
      ],
      "name": "swaps",
      "outputs": [
        {
          "internalType": "address",
          "name": "maker",
          "type": "address"
        },
        {
          "internalType": "address",
          "name": "token",
          "type": "address"
        },
        {
          "internalType": "uint256",
          "name": "amount",
          "type": "uint256"
        },
        {
          "internalType": "bytes32",
          "name": "hashlock",
          "type": "bytes32"
        },
        {
          "internalType": "uint256",
          "name": "timelock",
          "type": "uint256"
        },
        {
          "internalType": "bool",
          "name": "withdrawn",
          "type": "bool"
        }
      ],
      "stateMutability": "view",
      "type": "function"
    },
    {
      "inputs": [
        {
          "internalType": "bytes32",
          "name": "id",
          "type": "bytes32"
        },
        {
          "internalType": "bytes32",
          "name": "preimage",
          "type": "bytes32"
        }
      ],
      "name": "withdraw",
      "outputs": [],
      "stateMutability": "nonpayable",
      "type": "function"
    }
  ],
  "bytecode": "0x6080806040523461001657610667908161001c8239f35b600080fdfe608060408181526004908136101561001657600080fd5b600092833560e01c908163267e6d97146103d45750806363615149146101ec5780637249fbb6146100be5763eb84e7f21461005057600080fd5b346100ba5760203660031901126100ba578060c09383358152806020522060018060a01b039283825416936001830154169260028301549060ff600560038601549486015495015416948151968752602087015285015260608401526080830152151560a0820152f35b8280fd5b50346100ba57602090816003193601126101e8578235928385528483528185206005810180546100f160ff8216156105f1565b8383015442106101b95760ff191660019081179091558101548154600290920154845163a9059cbb60e01b81526001600160a01b039384169481019485526020850191909152939285928592169082908990829060400103925af19081156101b05750610182575b50507f3fbd469ec3a5ce074f975f76ce27e727ba21c99176917b97ae2e713695582a128280a280f35b816101a192903d106101a9575b610199818361059c565b8101906105d4565b503880610159565b503d61018f565b513d86823e3d90fd5b845162461bcd60e51b81528085018790526009602482015268746f6f206561726c7960b81b6044820152606490fd5b8380fd5b509190346103d057826003193601126103d05780356024359181845260209084825285852060058101805461022460ff8216156105f1565b885187868201528581528981019080821067ffffffffffffffff8311176103bd57818a9188938d528c8151845b8181106103a357508490830191820152039060025afa1561039957875160038401540361036357838301544210156103335760ff19166001908117909155810154600290910154875163a9059cbb60e01b815233938101938452602084019190915295969183918791604090839003019082908a906001600160a01b03165af1948515610329577f10d00ecccaed0cce03368ed746d35d162eafc64858df0bda1575f055eef07a1b93949561030c575b50519384523393a380f35b61032290833d85116101a957610199818361059c565b5038610301565b81513d88823e3d90fd5b885162461bcd60e51b8152808501869052600a6024820152691d1a5b595b1bd8dad95960b21b6044820152606490fd5b885162461bcd60e51b8152808501869052601060248201526f696e76616c696420707265696d61676560801b6044820152606490fd5b88513d89823e3d90fd5b808401808801519301929092528a958e95508f9201610251565b634e487b7160e01b8a526041865260248afd5b5080fd5b91929050346101e85760a03660031901126101e8576001600160a01b0360243581811694833594909186900361059857604435906064359360843595878a526020928a845282868c20541661056b575084516323b872dd60e01b815233828201523060248201526044810185905283816064818e8e5af1801561056157610544575b5084519160c0830183811067ffffffffffffffff821117610531579188888d8d8d97956005978c52338752898701918252808c808901948d865260608a0196875260808a0197885260a08a019b818d528152808d5220975116906bffffffffffffffffffffffff60a01b918289541617885560018801925116908254161790555160028501555160038401555190820155019051151560ff80198354169116179055825196875286015284015260608301527f9a28a6867cb98cb878d32dff82f780ffdab8c2c739daeb18f416835dcf7276c660803393a380f35b634e487b7160e01b8c526041835260248cfd5b61055a90843d86116101a957610199818361059c565b5038610456565b86513d8d823e3d90fd5b8360649262461bcd60e51b8352820152600b60248201526a737761702065786973747360a81b6044820152fd5b8680fd5b90601f8019910116810190811067ffffffffffffffff8211176105be57604052565b634e487b7160e01b600052604160045260246000fd5b908160209103126105ec575180151581036105ec5790565b600080fd5b156105f857565b60405162461bcd60e51b815260206004820152601160248201527030b63932b0b23c903bb4ba34323930bbb760791b6044820152606490fdfea2646970667358221220a1d999c4252814a873720cd549277757b88af97f10c96fa86fb9eed4b3c5b50264736f6c63430008170033",
  "linkReferences": {},
  "deployedLinkReferences": {}
}