{
  "_format": "hh-sol-artifact-1",
  "contractName": "ApprovalPreInteraction",
  "sourceName": "contracts/1inch/extensions/ApprovalPreInteraction.sol",
  "abi": [
    {
      "inputs": [
        {
          "internalType": "address",
          "name": "_immutableOwner",
          "type": "address"
        },
        {
          "internalType": "address",
          "name": "_maker",
          "type": "address"
        }
      ],
      "stateMutability": "nonpayable",
      "type": "constructor"
    },
    {
      "inputs": [],
      "name": "IOAccessDenied",
      "type": "error"
    },
    {
      "inputs": [],
      "name": "UnathorizedMaker",
      "type": "error"
    },
    {
      "inputs": [],
      "name": "IMMUTABLE_OWNER",
      "outputs": [
        {
          "internalType": "address",
          "name": "",
          "type": "address"
        }
      ],
      "stateMutability": "view",
      "type": "function"
    },
    {
      "inputs": [
        {
          "internalType": "bytes32",
          "name": "orderHash",
          "type": "bytes32"
        },
        {
          "internalType": "bytes",
          "name": "signature",
          "type": "bytes"
        }
      ],
      "name": "isValidSignature",
      "outputs": [
        {
          "internalType": "bytes4",
          "name": "",
          "type": "bytes4"
        }
      ],
      "stateMutability": "view",
      "type": "function"
    },
    {
      "inputs": [
        {
          "components": [
            {
              "internalType": "uint256",
              "name": "salt",
              "type": "uint256"
            },
            {
              "internalType": "Address",
              "name": "maker",
              "type": "uint256"
            },
            {
              "internalType": "Address",
              "name": "receiver",
              "type": "uint256"
            },
            {
              "internalType": "Address",
              "name": "makerAsset",
              "type": "uint256"
            },
            {
              "internalType": "Address",
              "name": "takerAsset",
              "type": "uint256"
            },
            {
              "internalType": "uint256",
              "name": "makingAmount",
              "type": "uint256"
            },
            {
              "internalType": "uint256",
              "name": "takingAmount",
              "type": "uint256"
            },
            {
              "internalType": "MakerTraits",
              "name": "makerTraits",
              "type": "uint256"
            }
          ],
          "internalType": "struct IOrderMixin.Order",
          "name": "order",
          "type": "tuple"
        },
        {
          "internalType": "bytes",
          "name": "",
          "type": "bytes"
        },
        {
          "internalType": "bytes32",
          "name": "",
          "type": "bytes32"
        },
        {
          "internalType": "address",
          "name": "",
          "type": "address"
        },
        {
          "internalType": "uint256",
          "name": "makingAmount",
          "type": "uint256"
        },
        {
          "internalType": "uint256",
          "name": "",
          "type": "uint256"
        },
        {
          "internalType": "uint256",
          "name": "",
          "type": "uint256"
        },
        {
          "internalType": "bytes",
          "name": "",
          "type": "bytes"
        }
      ],
      "name": "preInteraction",
      "outputs": [],
      "stateMutability": "nonpayable",
      "type": "function"
    }
  ],
  "bytecode": "0x60c03461008057601f61050838819003918201601f19168301916001600160401b0383118484101761008557808492604094855283398101031261008057610052602061004b8361009b565b920161009b565b9060805260a05260405161045890816100b0823960805181818160590152610156015260a0518161028e0152f35b600080fd5b634e487b7160e01b600052604160045260246000fd5b51906001600160a01b03821682036100805756fe608060408181526004918236101561001657600080fd5b600092833560e01c9182630986bdd5146100e1575081631626ba7e1461008c575063f3d1372f1461004657600080fd5b34610088578160031936011261008857517f00000000000000000000000000000000000000000000000000000000000000006001600160a01b03168152602090f35b5080fd5b8284346100de57816003193601126100de576024359067ffffffffffffffff82116100de57506020926100c56100cc9236908301610253565b9135610286565b90516001600160e01b03199091168152f35b80fd5b8482853461024b5736600319016101e0811261024f576101001361024b5767ffffffffffffffff9061010435828111610247576101219036908501610253565b506001600160a01b039590506101443586811603610247576101c435838111610243576101519036908601610253565b5050857f00000000000000000000000000000000000000000000000000000000000000001633036102355750308560243516036102265760208495604483518097819363095ea7b360e01b83523389840152610164356024840152606435165af1801561021c576101c0578480f35b6020923d602011610214575b601f8401601f19168501928311858410176102015750526020908201829003126100885751801515036100de57818080808480f35b634e487b7160e01b865260419052602485fd5b3d93506101cc565b81513d87823e3d90fd5b5163da30ae4b60e01b81529050fd5b63497131ed60e01b81528390fd5b8580fd5b8480fd5b8280fd5b8380fd5b9181601f840112156102815782359167ffffffffffffffff8311610281576020838186019501011161028157565b600080fd5b906102b292917f00000000000000000000000000000000000000000000000000000000000000006102ce565b156102c257630b135d3f60e11b90565b6001600160e01b031990565b919290916001600160a01b0380821692919083156104175760409384841491821561040c575b82610353575b505061034957602092826000938497835193630b135d3f60e11b98898652600486015260248501528160448501526064840137606401915afa61033b575090565b600051143d60201416919050565b5050505050600190565b9091506000855185806041146103f4576040146103c8575080805b61037d575b50161438806102fa565b817f7fffffffffffffffffffffffffffffff5d576e7357a4501ddfe92f46681b20a16060830151106103b0575b50610373565b6080828a6020945282805260015afa505138816103aa565b8060208a01358060ff1c601b01602083015260208b8a8401376001600160ff1b0316606082015261036e565b5086890135821a602082015280878a8183013761036e565b6041851492506102f4565b50505050505060009056fea264697066735822122081466adc60c330a764e6e836d0421f5e668435370a7d65ad1ee846875f9fc28864736f6c63430008170033",
  "linkReferences": {},
  "deployedLinkReferences": {}
}