{
  "_format": "hh-sol-artifact-1",
  "contractName": "ETHOrders",
  "sourceName": "contracts/1inch/extensions/ETHOrders.sol",
  "abi": [
    {
      "inputs": [
        {
          "internalType": "contract IWETH",
          "name": "weth",
          "type": "address"
        },
        {
          "internalType": "address",
          "name": "limitOrderProtocol",
          "type": "address"
        },
        {
          "internalType": "contract IERC20",
          "name": "accessToken",
          "type": "address"
        }
      ],
      "stateMutability": "nonpayable",
      "type": "constructor"
    },
    {
      "inputs": [],
      "name": "AccessDenied",
      "type": "error"
    },
    {
      "inputs": [],
      "name": "CancelOrderByResolverIsForbidden",
      "type": "error"
    },
    {
      "inputs": [],
      "name": "EthDepositRejected",
      "type": "error"
    },
    {
      "inputs": [],
      "name": "ExistingOrder",
      "type": "error"
    },
    {
      "inputs": [],
      "name": "InvalidOrder",
      "type": "error"
    },
    {
      "inputs": [],
      "name": "NotEnoughBalance",
      "type": "error"
    },
    {
      "inputs": [],
      "name": "OrderNotExpired",
      "type": "error"
    },
    {
      "inputs": [],
      "name": "RewardIsTooBig",
      "type": "error"
    },
    {
      "anonymous": false,
      "inputs": [
        {
          "indexed": false,
          "internalType": "bytes32",
          "name": "orderHash",
          "type": "bytes32"
        },
        {
          "indexed": false,
          "internalType": "uint256",
          "name": "amount",
          "type": "uint256"
        }
      ],
      "name": "ETHDeposited",
      "type": "event"
    },
    {
      "anonymous": false,
      "inputs": [
        {
          "indexed": false,
          "internalType": "bytes32",
          "name": "orderHash",
          "type": "bytes32"
        },
        {
          "indexed": false,
          "internalType": "uint256",
          "name": "amount",
          "type": "uint256"
        }
      ],
      "name": "ETHOrderCancelled",
      "type": "event"
    },
    {
      "anonymous": false,
      "inputs": [
        {
          "indexed": false,
          "internalType": "bytes32",
          "name": "orderHash",
          "type": "bytes32"
        },
        {
          "indexed": false,
          "internalType": "uint256",
          "name": "amount",
          "type": "uint256"
        },
        {
          "indexed": false,
          "internalType": "uint256",
          "name": "reward",
          "type": "uint256"
        }
      ],
      "name": "ETHOrderCancelledByThirdParty",
      "type": "event"
    },
    {
      "inputs": [
        {
          "internalType": "MakerTraits",
          "name": "makerTraits",
          "type": "uint256"
        },
        {
          "internalType": "bytes32",
          "name": "orderHash",
          "type": "bytes32"
        }
      ],
      "name": "cancelOrder",
      "outputs": [],
      "stateMutability": "nonpayable",
      "type": "function"
    },
    {
      "inputs": [
        {
          "internalType": "MakerTraits",
          "name": "makerTraits",
          "type": "uint256"
        },
        {
          "internalType": "bytes32",
          "name": "orderHash",
          "type": "bytes32"
        }
      ],
      "name": "cancelOrderByResolver",
      "outputs": [],
      "stateMutability": "nonpayable",
      "type": "function"
    },
    {
      "inputs": [
        {
          "components": [
            {
              "internalType": "uint256",
              "name": "salt",
              "type": "uint256"
            },
            {
              "internalType": "Address",
              "name": "maker",
              "type": "uint256"
            },
            {
              "internalType": "Address",
              "name": "receiver",
              "type": "uint256"
            },
            {
              "internalType": "Address",
              "name": "makerAsset",
              "type": "uint256"
            },
            {
              "internalType": "Address",
              "name": "takerAsset",
              "type": "uint256"
            },
            {
              "internalType": "uint256",
              "name": "makingAmount",
              "type": "uint256"
            },
            {
              "internalType": "uint256",
              "name": "takingAmount",
              "type": "uint256"
            },
            {
              "internalType": "MakerTraits",
              "name": "makerTraits",
              "type": "uint256"
            }
          ],
          "internalType": "struct IOrderMixin.Order",
          "name": "order",
          "type": "tuple"
        },
        {
          "internalType": "bytes",
          "name": "extension",
          "type": "bytes"
        },
        {
          "internalType": "uint16",
          "name": "maximumPremium",
          "type": "uint16"
        },
        {
          "internalType": "uint32",
          "name": "auctionDuration",
          "type": "uint32"
        }
      ],
      "name": "ethOrderDeposit",
      "outputs": [
        {
          "internalType": "bytes32",
          "name": "orderHash",
          "type": "bytes32"
        }
      ],
      "stateMutability": "payable",
      "type": "function"
    },
    {
      "inputs": [
        {
          "internalType": "bytes32[]",
          "name": "orderHashes",
          "type": "bytes32[]"
        }
      ],
      "name": "ethOrdersBatch",
      "outputs": [
        {
          "components": [
            {
              "internalType": "address",
              "name": "maker",
              "type": "address"
            },
            {
              "internalType": "uint96",
              "name": "balance",
              "type": "uint96"
            },
            {
              "internalType": "uint16",
              "name": "maximumPremium",
              "type": "uint16"
            },
            {
              "internalType": "uint32",
              "name": "auctionDuration",
              "type": "uint32"
            }
          ],
          "internalType": "struct ETHOrders.ETHOrder[]",
          "name": "ethOrders",
          "type": "tuple[]"
        }
      ],
      "stateMutability": "view",
      "type": "function"
    },
    {
      "inputs": [
        {
          "internalType": "bytes32",
          "name": "orderHash",
          "type": "bytes32"
        },
        {
          "internalType": "bytes",
          "name": "signature",
          "type": "bytes"
        }
      ],
      "name": "isValidSignature",
      "outputs": [
        {
          "internalType": "bytes4",
          "name": "",
          "type": "bytes4"
        }
      ],
      "stateMutability": "view",
      "type": "function"
    },
    {
      "inputs": [
        {
          "internalType": "bytes32",
          "name": "orderHash",
          "type": "bytes32"
        }
      ],
      "name": "ordersMakersBalances",
      "outputs": [
        {
          "internalType": "address",
          "name": "maker",
          "type": "address"
        },
        {
          "internalType": "uint96",
          "name": "balance",
          "type": "uint96"
        },
        {
          "internalType": "uint16",
          "name": "maximumPremium",
          "type": "uint16"
        },
        {
          "internalType": "uint32",
          "name": "auctionDuration",
          "type": "uint32"
        }
      ],
      "stateMutability": "view",
      "type": "function"
    },
    {
      "inputs": [
        {
          "components": [
            {
              "internalType": "uint256",
              "name": "salt",
              "type": "uint256"
            },
            {
              "internalType": "Address",
              "name": "maker",
              "type": "uint256"
            },
            {
              "internalType": "Address",
              "name": "receiver",
              "type": "uint256"
            },
            {
              "internalType": "Address",
              "name": "makerAsset",
              "type": "uint256"
            },
            {
              "internalType": "Address",
              "name": "takerAsset",
              "type": "uint256"
            },
            {
              "internalType": "uint256",
              "name": "makingAmount",
              "type": "uint256"
            },
            {
              "internalType": "uint256",
              "name": "takingAmount",
              "type": "uint256"
            },
            {
              "internalType": "MakerTraits",
              "name": "makerTraits",
              "type": "uint256"
            }
          ],
          "internalType": "struct IOrderMixin.Order",
          "name": "",
          "type": "tuple"
        },
        {
          "internalType": "bytes",
          "name": "",
          "type": "bytes"
        },
        {
          "internalType": "bytes32",
          "name": "orderHash",
          "type": "bytes32"
        },
        {
          "internalType": "address",
          "name": "",
          "type": "address"
        },
        {
          "internalType": "uint256",
          "name": "makingAmount",
          "type": "uint256"
        },
        {
          "internalType": "uint256",
          "name": "",
          "type": "uint256"
        },
        {
          "internalType": "uint256",
          "name": "",
          "type": "uint256"
        },
        {
          "internalType": "bytes",
          "name": "",
          "type": "bytes"
        }
      ],
      "name": "postInteraction",
      "outputs": [],
      "stateMutability": "nonpayable",
      "type": "function"
    },
    {
      "stateMutability": "payable",
      "type": "receive"
    }
  ],
  "bytecode": "0x610100806040523462000154576060816200116b803803809162000024828562000159565b833981010312620001545780516001600160a01b038082169291838103620001545760208301519082821693848303620001545760400151928316830362000154578460805260c05260a05260e0526040519063095ea7b360e01b825260048201526000196024820152602081604481600080965af18015620001495762000103575b604051610fd79081620001948239608051816020015260a05181818160e5015281816102b001528181610435015261094b015260c05181818161017801528181610523015281816105570152610a25015260e0518161038c0152f35b6020813d60201162000140575b816200011f6020938362000159565b810103126200013c575180151503620001395780620000a7565b80fd5b5080fd5b3d915062000110565b6040513d84823e3d90fd5b600080fd5b601f909101601f19168101906001600160401b038211908210176200017d57604052565b634e487b7160e01b600052604160045260246000fdfe608060408181526004918236101561005d575b50361561001e57600080fd5b7f00000000000000000000000000000000000000000000000000000000000000006001600160a01b0316330361005057005b51631b10b0f960e01b8152fd5b600090813560e01c90816310cab65f1461081b575080631626ba7e146107ca5780631ae773731461062e57806320d0fbee14610354578063462ebde214610236578063880d9bda146101de5763b68fb02003610012579190346101da576100c336610b99565b908185528460205260018060a01b039384848720541633036101cc57908591857f00000000000000000000000000000000000000000000000000000000000000001691823b156101be576044849283885195869485936305b47d8160e51b85528401528860248401525af180156101c2576101aa575b5092817f397f19dc09129d410bbc6c72733c013795df7df235e104118bd69cbfd7bfad509452846020528285208054918260a01c9216905561019c33827f0000000000000000000000000000000000000000000000000000000000000000610ef9565b82519182526020820152a180f35b6101b390610be1565b6101be578338610139565b8380fd5b84513d84823e3d90fd5b835163af61069360e01b8152fd5b8280fd5b5091346101da5760203660031901126101da578160809363ffffffff92358152806020522091600183549301549080519360018060a01b038116855260a01c602085015261ffff82169084015260101c166060820152f35b5090346103505736600319016101e081126101da57610100136103505767ffffffffffffffff90610104358281116101be576102759036908601610b66565b5050610124356001600160a01b03610144358181160361034c5761016435936101c435908111610348576102ac9036908801610b66565b50507f00000000000000000000000000000000000000000000000000000000000000001633036103385780845283602052828285205460a01c106103285783526020839052822080546001600160a01b0381166001600160601b039390931660a091821c03901b6001600160a01b031916919091179055905080f35b815163569d45cf60e11b81528590fd5b8151634ca8886760e01b81528590fd5b8580fd5b8480fd5b5080fd5b5091346101da5761036436610b99565b83516370a0823160e01b8152338185015290936001600160a01b0393909260209283816024817f00000000000000000000000000000000000000000000000000000000000000008a165afa9081156106245788916105f3575b50156105e45764ffffffffff8160501c1690811515806105db575b156105cb57868852878452848820918551916103f383610baf565b8354936001898616918286528886019660a01c8752015461ffff9163ffffffff8a870192848116845260101c166060870152156105bb575116156105ab5789887f00000000000000000000000000000000000000000000000000000000000000001691823b156103505760448b91838b5195869485936305b47d8160e51b85528c85015260248401525af180156105a15761058e575b5061753061049a6103e89284610e9c565b820148020204956001600160601b039384845116881161058057509183918795936060987fe01427a86d75c55186c27ab04be40d64e36a9377dca115ce92c5a5122b8a384e9a989684511691898d528c8752878d2081815416905581610550575b818303610519575b505050505116908251948552840152820152a180f35b61054793511691037f0000000000000000000000000000000000000000000000000000000000000000610ef9565b38808681610503565b61057b33837f0000000000000000000000000000000000000000000000000000000000000000610ef9565b6104fb565b86516355269ea760e11b8152fd5b61059a90999199610be1565b9738610489565b87513d8c823e3d90fd5b8651630f839fd760e41b81528590fd5b885163af61069360e01b81528790fd5b845163796c85f360e01b81528390fd5b504282106103d8565b508251634ca8886760e01b8152fd5b90508381813d831161061d575b61060a8183610bf5565b810103126106195751386103bd565b8780fd5b503d610600565b85513d8a823e3d90fd5b50823461035057602091826003193601126107c75781359167ffffffffffffffff908184116101da57366023850112156101da578301359081116103505760246005933660248460051b830101116101be5761068983610c57565b9461069688519687610bf5565b8386526106a284610c57565b601f190187865b82811061079b57505050845b848110610733575050505050835192808401908085528351809252808686019401925b8281106106e55785850386f35b835180516001600160a01b03168652808301516001600160601b0316868401528781015161ffff168887015260609081015163ffffffff1690860152608090940193928101926001016106d8565b8084600192841b85010135875286895289872063ffffffff838c519261075884610baf565b8054828060a01b038116855260a01c8d850152015461ffff81168d84015260101c166060820152610789828a610c6f565b526107948189610c6f565b50016106b5565b8a516107a681610baf565b8881528883820152888c82015288606082015282828b0101520188906106a9565b80fd5b50346107c757816003193601126107c7576024359067ffffffffffffffff82116107c757506020926108026108099236908301610b66565b9135610c17565b90516001600160e01b03199091168152f35b929190503660031901610160811261035057610100136107c75761010493843567ffffffffffffffff81116101da576108579036908301610b66565b959094610124359161ffff9081841680940361034857610144359263ffffffff8416809403610b625760e43590600160fb1b821615610b54575061089b8a8a610c99565b9015610b4e57506001600160a01b039960243599908b8b16308103610b37576044359c94939291908d8616908115610b4757505b8533911603610b375760a43591348303610b2757906108ed91610f56565b6014811491821592610ae3575b5050610ad35789519b8c9b63802b2ef160e01b8d528c8a803591015260248d015260448c015260643560648c015260843560848c015260a48b015260c43560c48b015260e48a01526020998a9181847f0000000000000000000000000000000000000000000000000000000000000000165afa978815610ac9578698610a9a575b50878652858952808787205416610a8a5791859492916001896109f68c8b8a99978a6001600160601b03938351966109b288610baf565b3388523486168289019081529488019b8c52606088019a8b528252528d8b20945191516001600160a01b039190921616911660a01b6001600160a01b031916178255565b0192511665ffffffff00008354925160101b169165ffffffffffff191617179055630d0e30db60e41b825281347f00000000000000000000000000000000000000000000000000000000000000005af115610a7f57507f60ce4f4b6bd3ed41b0d13b82f0db1e0fa45c1316d7e982ae5e02d683e929d7cb8180518481523486820152a151908152f35b9051903d90823e3d90fd5b8651633046a0f560e11b81528590fd5b9097508881813d8311610ac2575b610ab28183610bf5565b810103126103485751963861097b565b503d610aa8565b87513d88823e3d90fd5b895163af61069360e01b81528890fd5b6bffffffffffffffffffffffff199250358281169160148110610b12575b505060601c301415905038806108fa565b8391925060140360031b1b1616803880610b01565b8b5163af61069360e01b81528a90fd5b8a51634ca8886760e01b81528990fd5b90506108cf565b87528587fd5b63af61069360e01b81528690fd5b8680fd5b9181601f84011215610b945782359167ffffffffffffffff8311610b945760208381860195010111610b9457565b600080fd5b6040906003190112610b94576004359060243590565b6080810190811067ffffffffffffffff821117610bcb57604052565b634e487b7160e01b600052604160045260246000fd5b67ffffffffffffffff8111610bcb57604052565b90601f8019910116810190811067ffffffffffffffff821117610bcb57604052565b600081815260208190526040902054610c3b939291906001600160a01b0316610d48565b15610c4b57630b135d3f60e11b90565b6001600160e01b031990565b67ffffffffffffffff8111610bcb5760051b60200190565b8051821015610c835760209160051b010190565b634e487b7160e01b600052603260045260246000fd5b9060e435600160f91b1615610d33578015610d235767ffffffffffffffff8111610bcb5760405190610cd5601f8201601f191660200183610bf5565b80825260208201923682820111610b9457816000926020928637830101525190206001600160a01b0390811660043590911603610d15575b600190600090565b60009063dc11ee6b60e01b90565b5060009163b2d25e4960e01b9150565b905015610d0d576000906374896a7b60e01b90565b919290916001600160a01b038082169291908315610e9157604093848414918215610e86575b82610dcd575b5050610dc357602092826000938497835193630b135d3f60e11b98898652600486015260248501528160448501526064840137606401915afa610db5575090565b600051143d60201416919050565b5050505050600190565b909150600085518580604114610e6e57604014610e42575080805b610df7575b5016143880610d74565b817f7fffffffffffffffffffffffffffffff5d576e7357a4501ddfe92f46681b20a1606083015110610e2a575b50610ded565b6080828a6020945282805260015afa50513881610e24565b8060208a01358060ff1c601b01602083015260208b8a8401376001600160ff1b03166060820152610de8565b5086890135821a602082015280878a81830137610de8565b604185149250610d6e565b505050505050600090565b9080421115610ef257420363ffffffff6060830151169182821015610ee4576040015161ffff16028115610ece570490565b634e487b7160e01b600052601260045260246000fd5b6040015161ffff1692915050565b5050600090565b916024926000809481808094632e1a7d4d60e01b8252876004525af115610f4b57306001600160a01b03821603610f2f57505050565b8280809381935af115610f3f5750565b604051903d90823e3d90fd5b6040513d84823e3d90fd5b91909160208310610f985780359063ffffffff8260c01c169160e01c93601f19018411610f87578101602001920390565b6309605a0160e41b60005260046000fd5b5060009150819056fea2646970667358221220e6b4559da95bde5ab00a94df035972b7f36658d48d35c61720d04d814a503d6b64736f6c63430008170033",
  "linkReferences": {},
  "deployedLinkReferences": {}
}