{
  "_format": "hh-sol-artifact-1",
  "contractName": "EscrowSrc",
  "sourceName": "contracts/1inch/EscrowSrc.sol",
  "abi": [
    {
      "inputs": [
        {
          "internalType": "uint32",
          "name": "rescueDelay",
          "type": "uint32"
        },
        {
          "internalType": "contract IERC20",
          "name": "accessToken",
          "type": "address"
        }
      ],
      "stateMutability": "nonpayable",
      "type": "constructor"
    },
    {
      "inputs": [],
      "name": "InvalidCaller",
      "type": "error"
    },
    {
      "inputs": [],
      "name": "InvalidImmutables",
      "type": "error"
    },
    {
      "inputs": [],
      "name": "InvalidSecret",
      "type": "error"
    },
    {
      "inputs": [],
      "name": "InvalidTime",
      "type": "error"
    },
    {
      "inputs": [],
      "name": "NativeTokenSendingFailure",
      "type": "error"
    },
    {
      "inputs": [],
      "name": "SafeTransferFailed",
      "type": "error"
    },
    {
      "anonymous": false,
      "inputs": [],
      "name": "EscrowCancelled",
      "type": "event"
    },
    {
      "anonymous": false,
      "inputs": [
        {
          "indexed": false,
          "internalType": "bytes32",
          "name": "secret",
          "type": "bytes32"
        }
      ],
      "name": "EscrowWithdrawal",
      "type": "event"
    },
    {
      "anonymous": false,
      "inputs": [
        {
          "indexed": false,
          "internalType": "address",
          "name": "token",
          "type": "address"
        },
        {
          "indexed": false,
          "internalType": "uint256",
          "name": "amount",
          "type": "uint256"
        }
      ],
      "name": "FundsRescued",
      "type": "event"
    },
    {
      "inputs": [],
      "name": "FACTORY",
      "outputs": [
        {
          "internalType": "address",
          "name": "",
          "type": "address"
        }
      ],
      "stateMutability": "view",
      "type": "function"
    },
    {
      "inputs": [],
      "name": "PROXY_BYTECODE_HASH",
      "outputs": [
        {
          "internalType": "bytes32",
          "name": "",
          "type": "bytes32"
        }
      ],
      "stateMutability": "view",
      "type": "function"
    },
    {
      "inputs": [],
      "name": "RESCUE_DELAY",
      "outputs": [
        {
          "internalType": "uint256",
          "name": "",
          "type": "uint256"
        }
      ],
      "stateMutability": "view",
      "type": "function"
    },
    {
      "inputs": [
        {
          "components": [
            {
              "internalType": "bytes32",
              "name": "orderHash",
              "type": "bytes32"
            },
            {
              "internalType": "bytes32",
              "name": "hashlock",
              "type": "bytes32"
            },
            {
              "internalType": "Address",
              "name": "maker",
              "type": "uint256"
            },
            {
              "internalType": "Address",
              "name": "taker",
              "type": "uint256"
            },
            {
              "internalType": "Address",
              "name": "token",
              "type": "uint256"
            },
            {
              "internalType": "uint256",
              "name": "amount",
              "type": "uint256"
            },
            {
              "internalType": "uint256",
              "name": "safetyDeposit",
              "type": "uint256"
            },
            {
              "internalType": "Timelocks",
              "name": "timelocks",
              "type": "uint256"
            },
            {
              "internalType": "bytes",
              "name": "parameters",
              "type": "bytes"
            }
          ],
          "internalType": "struct IBaseEscrow.Immutables",
          "name": "immutables",
          "type": "tuple"
        }
      ],
      "name": "cancel",
      "outputs": [],
      "stateMutability": "nonpayable",
      "type": "function"
    },
    {
      "inputs": [
        {
          "components": [
            {
              "internalType": "bytes32",
              "name": "orderHash",
              "type": "bytes32"
            },
            {
              "internalType": "bytes32",
              "name": "hashlock",
              "type": "bytes32"
            },
            {
              "internalType": "Address",
              "name": "maker",
              "type": "uint256"
            },
            {
              "internalType": "Address",
              "name": "taker",
              "type": "uint256"
            },
            {
              "internalType": "Address",
              "name": "token",
              "type": "uint256"
            },
            {
              "internalType": "uint256",
              "name": "amount",
              "type": "uint256"
            },
            {
              "internalType": "uint256",
              "name": "safetyDeposit",
              "type": "uint256"
            },
            {
              "internalType": "Timelocks",
              "name": "timelocks",
              "type": "uint256"
            },
            {
              "internalType": "bytes",
              "name": "parameters",
              "type": "bytes"
            }
          ],
          "internalType": "struct IBaseEscrow.Immutables",
          "name": "immutables",
          "type": "tuple"
        }
      ],
      "name": "publicCancel",
      "outputs": [],
      "stateMutability": "nonpayable",
      "type": "function"
    },
    {
      "inputs": [
        {
          "internalType": "bytes32",
          "name": "secret",
          "type": "bytes32"
        },
        {
          "components": [
            {
              "internalType": "bytes32",
              "name": "orderHash",
              "type": "bytes32"
            },
            {
              "internalType": "bytes32",
              "name": "hashlock",
              "type": "bytes32"
            },
            {
              "internalType": "Address",
              "name": "maker",
              "type": "uint256"
            },
            {
              "internalType": "Address",
              "name": "taker",
              "type": "uint256"
            },
            {
              "internalType": "Address",
              "name": "token",
              "type": "uint256"
            },
            {
              "internalType": "uint256",
              "name": "amount",
              "type": "uint256"
            },
            {
              "internalType": "uint256",
              "name": "safetyDeposit",
              "type": "uint256"
            },
            {
              "internalType": "Timelocks",
              "name": "timelocks",
              "type": "uint256"
            },
            {
              "internalType": "bytes",
              "name": "parameters",
              "type": "bytes"
            }
          ],
          "internalType": "struct IBaseEscrow.Immutables",
          "name": "immutables",
          "type": "tuple"
        }
      ],
      "name": "publicWithdraw",
      "outputs": [],
      "stateMutability": "nonpayable",
      "type": "function"
    },
    {
      "inputs": [
        {
          "internalType": "address",
          "name": "token",
          "type": "address"
        },
        {
          "internalType": "uint256",
          "name": "amount",
          "type": "uint256"
        },
        {
          "components": [
            {
              "internalType": "bytes32",
              "name": "orderHash",
              "type": "bytes32"
            },
            {
              "internalType": "bytes32",
              "name": "hashlock",
              "type": "bytes32"
            },
            {
              "internalType": "Address",
              "name": "maker",
              "type": "uint256"
            },
            {
              "internalType": "Address",
              "name": "taker",
              "type": "uint256"
            },
            {
              "internalType": "Address",
              "name": "token",
              "type": "uint256"
            },
            {
              "internalType": "uint256",
              "name": "amount",
              "type": "uint256"
            },
            {
              "internalType": "uint256",
              "name": "safetyDeposit",
              "type": "uint256"
            },
            {
              "internalType": "Timelocks",
              "name": "timelocks",
              "type": "uint256"
            },
            {
              "internalType": "bytes",
              "name": "parameters",
              "type": "bytes"
            }
          ],
          "internalType": "struct IBaseEscrow.Immutables",
          "name": "immutables",
          "type": "tuple"
        }
      ],
      "name": "rescueFunds",
      "outputs": [],
      "stateMutability": "nonpayable",
      "type": "function"
    },
    {
      "inputs": [
        {
          "internalType": "bytes32",
          "name": "secret",
          "type": "bytes32"
        },
        {
          "components": [
            {
              "internalType": "bytes32",
              "name": "orderHash",
              "type": "bytes32"
            },
            {
              "internalType": "bytes32",
              "name": "hashlock",
              "type": "bytes32"
            },
            {
              "internalType": "Address",
              "name": "maker",
              "type": "uint256"
            },
            {
              "internalType": "Address",
              "name": "taker",
              "type": "uint256"
            },
            {
              "internalType": "Address",
              "name": "token",
              "type": "uint256"
            },
            {
              "internalType": "uint256",
              "name": "amount",
              "type": "uint256"
            },
            {
              "internalType": "uint256",
              "name": "safetyDeposit",
              "type": "uint256"
            },
            {
              "internalType": "Timelocks",
              "name": "timelocks",
              "type": "uint256"
            },
            {
              "internalType": "bytes",
              "name": "parameters",
              "type": "bytes"
            }
          ],
          "internalType": "struct IBaseEscrow.Immutables",
          "name": "immutables",
          "type": "tuple"
        }
      ],
      "name": "withdraw",
      "outputs": [],
      "stateMutability": "nonpayable",
      "type": "function"
    },
    {
      "inputs": [
        {
          "internalType": "bytes32",
          "name": "secret",
          "type": "bytes32"
        },
        {
          "internalType": "address",
          "name": "target",
          "type": "address"
        },
        {
          "components": [
            {
              "internalType": "bytes32",
              "name": "orderHash",
              "type": "bytes32"
            },
            {
              "internalType": "bytes32",
              "name": "hashlock",
              "type": "bytes32"
            },
            {
              "internalType": "Address",
              "name": "maker",
              "type": "uint256"
            },
            {
              "internalType": "Address",
              "name": "taker",
              "type": "uint256"
            },
            {
              "internalType": "Address",
              "name": "token",
              "type": "uint256"
            },
            {
              "internalType": "uint256",
              "name": "amount",
              "type": "uint256"
            },
            {
              "internalType": "uint256",
              "name": "safetyDeposit",
              "type": "uint256"
            },
            {
              "internalType": "Timelocks",
              "name": "timelocks",
              "type": "uint256"
            },
            {
              "internalType": "bytes",
              "name": "parameters",
              "type": "bytes"
            }
          ],
          "internalType": "struct IBaseEscrow.Immutables",
          "name": "immutables",
          "type": "tuple"
        }
      ],
      "name": "withdrawTo",
      "outputs": [],
      "stateMutability": "nonpayable",
      "type": "function"
    }
  ],
  "bytecode": "0x610100346100fb57601f610b7938819003918201601f19168301916001600160401b038311848410176101005780849260409485528339810103126100fb5780519063ffffffff82168092036100fb5760200151906001600160a01b03821682036100fb573360c05260a0526080526e5af43d82803e903d91602b57fd5bf360205230601152763d602d80600a3d3981f3363d3d373d3d3d363d730000003060881c17600052603760092060e052604051610a629081610117823960805181818161043d01526106cd015260a05181818160a0015261023d015260c0518181816105da0152610900015260e0518181816105a101526108d50152f35b600080fd5b634e487b7160e01b600052604160045260246000fdfe608060408181526004918236101561001657600080fd5b60009260e08435811c928363056fb4771461069a575082632537a347146106095782632dd31000146105c457826334862b6a146105885782633e99ca75146104015782634c345901146102e85782635e504d03146101c957826378a5e1a1146100c757505063f56cd69c1461008a57600080fd5b346100c357816003193601126100c357602090517f00000000000000000000000000000000000000000000000000000000000000008152f35b5080fd5b90929150346101c5576100d9366107c7565b909390916001600160a01b0391906060840135831633036101b65783013561010081610866565b42106101a75761010f90610836565b421015610199576101276101228461087d565b6108cc565b8486526020830135602087200361018b57509161018360c08361017b60209660a07fe346f5c97a360db5188bfa5d3ec5f0583abde420c6ba4d08b6cfe61addc171059997013590339060808501351661094d565b0135336109b6565b51908152a180f35b835163abab6bd760e01b8152fd5b83516337bf561360e11b8152fd5b5083516337bf561360e11b8152fd5b5083516348f5c3ed60e01b8152fd5b8380fd5b838591346102e4576003196060368201126101c5576001600160a01b038535818116939192908490036102e057602435926044359167ffffffffffffffff83116102dc576101209083360301126102d85760648201351633036102c8578061023761012260e4938a0161087d565b0135901c7f00000000000000000000000000000000000000000000000000000000000000000142106102b8577fc4474c2790e13695f6d2b6f1d8e164290b55370f87a542fd7711abe0a1bf40ac93945081156000146102a85761029a81336109b6565b82519182526020820152a180f35b6102b381338461094d565b61029a565b82516337bf561360e11b81528590fd5b84516348f5c3ed60e01b81528790fd5b8680fd5b8780fd5b8580fd5b8280fd5b848285346102e4576003196060368201126101c5578235926001600160a01b03906024359082821682036102d8576044359367ffffffffffffffff85116102dc576101209085360301126102d8578260648501351633036103f35760e484013561035181610866565b42106103e45761036090610836565b4210156103d65761037561012285830161087d565b858752602484013560208820036103c8575060c48361017b602096946101839460a47fe346f5c97a360db5188bfa5d3ec5f0583abde420c6ba4d08b6cfe61addc171059a9801359160848501351661094d565b845163abab6bd760e01b8152fd5b84516337bf561360e11b8152fd5b5084516337bf561360e11b8152fd5b84516348f5c3ed60e01b8152fd5b90849250346102e457610413366107c7565b85516370a0823160e01b815233818501529095602094929390926001600160a01b039286816024817f000000000000000000000000000000000000000000000000000000000000000088165afa90811561057e578891610551575b5015610542578088013580911c63ffffffff82881c16810180911161052f5742106105205761049c90610836565b421015610512576104af6101228861087d565b8386528487013585872003610504575060c08661017b6101839360a07fe346f5c97a360db5188bfa5d3ec5f0583abde420c6ba4d08b6cfe61addc17105999a013590806060850135169060808501351661094d565b825163abab6bd760e01b8152fd5b82516337bf561360e11b8152fd5b5082516337bf561360e11b8152fd5b634e487b7160e01b885260118352602488fd5b5082516348f5c3ed60e01b8152fd5b90508681813d8311610577575b61056881836107fe565b810103126102dc57518961046e565b503d61055e565b85513d8a823e3d90fd5b505050346100c357816003193601126100c357602090517f00000000000000000000000000000000000000000000000000000000000000008152f35b505050346100c357816003193601126100c357517f00000000000000000000000000000000000000000000000000000000000000006001600160a01b03168152602090f35b90929150346101c55761061b3661078f565b926001600160a01b03916060850135831633036105425761063e90850135610836565b421061051257509161017b60c0926106739461065c6101228561087d565b8060a085013592850135169060808501351661094d565b7f6e3be9294e58d10b9c8053cfd5e09871b67e442fe394d6b0870d336b9df984a98180a180f35b849086933461078b576106ac3661078f565b6370a0823160e01b83523382840152936001600160a01b03926020816024817f000000000000000000000000000000000000000000000000000000000000000088165afa90811561078157879161074f575b50156105425763ffffffff8186013580921c9160601c16810180911161073c57421061051257509161017b60c0926106739461065c6101228561087d565b634e487b7160e01b865260118252602486fd5b90506020813d602011610779575b8161076a602093836107fe565b810103126102d85751876106fe565b3d915061075d565b85513d89823e3d90fd5b8480fd5b600319906020818301126107c2576004359167ffffffffffffffff83116107c25782610120920301126107c25760040190565b600080fd5b906003196040818401126107c257600435926024359167ffffffffffffffff83116107c25782610120920301126107c25760040190565b90601f8019910116810190811067ffffffffffffffff82111761082057604052565b634e487b7160e01b600052604160045260246000fd5b63ffffffff8160e01c9160401c1681018091116108505790565b634e487b7160e01b600052601160045260246000fd5b63ffffffff8160e01c911681018091116108505790565b61010080820135601e19833603018112156107c25782019081359167ffffffffffffffff83116107c2576020019180360383136107c25780604051938437822090610120809484378201522090565b600b90604051907f0000000000000000000000000000000000000000000000000000000000000000604083015260208201527f000000000000000000000000000000000000000000000000000000000000000081520160ff8153605590206001600160a01b0316300361093b57565b604051635134a42560e11b8152600490fd5b9160446020926000926040519163a9059cbb60e01b83526004830152602482015282855af19081610993575b501561098157565b60405163fb7f507960e01b8152600490fd5b90503d156109ae5750600160005114601f3d11165b38610979565b3b15156109a8565b60008080809481945af1903d15610a26573d9067ffffffffffffffff8211610a1257604051916109f0601f8201601f1916602001846107fe565b825260203d92013e5b15610a0057565b604051638a0332d560e01b8152600490fd5b634e487b7160e01b81526041600452602490fd5b506109f956fea264697066735822122086ff6e227128538ef1c2dac2a61849d2ed2b7aeaf5027b65fc3f4c4f19821cf664736f6c63430008170033",
  "linkReferences": {},
  "deployedLinkReferences": {}
}