{
  "_format": "hh-sol-artifact-1",
  "contractName": "OwnerManager",
  "sourceName": "@gnosis.pm/safe-contracts/contracts/base/OwnerManager.sol",
  "abi": [
    {
      "anonymous": false,
      "inputs": [
        {
          "indexed": false,
          "internalType": "address",
          "name": "owner",
          "type": "address"
        }
      ],
      "name": "AddedOwner",
      "type": "event"
    },
    {
      "anonymous": false,
      "inputs": [
        {
          "indexed": false,
          "internalType": "uint256",
          "name": "threshold",
          "type": "uint256"
        }
      ],
      "name": "ChangedThreshold",
      "type": "event"
    },
    {
      "anonymous": false,
      "inputs": [
        {
          "indexed": false,
          "internalType": "address",
          "name": "owner",
          "type": "address"
        }
      ],
      "name": "RemovedOwner",
      "type": "event"
    },
    {
      "inputs": [
        {
          "internalType": "address",
          "name": "owner",
          "type": "address"
        },
        {
          "internalType": "uint256",
          "name": "_threshold",
          "type": "uint256"
        }
      ],
      "name": "addOwnerWithThreshold",
      "outputs": [],
      "stateMutability": "nonpayable",
      "type": "function"
    },
    {
      "inputs": [
        {
          "internalType": "uint256",
          "name": "_threshold",
          "type": "uint256"
        }
      ],
      "name": "changeThreshold",
      "outputs": [],
      "stateMutability": "nonpayable",
      "type": "function"
    },
    {
      "inputs": [],
      "name": "getOwners",
      "outputs": [
        {
          "internalType": "address[]",
          "name": "",
          "type": "address[]"
        }
      ],
      "stateMutability": "view",
      "type": "function"
    },
    {
      "inputs": [],
      "name": "getThreshold",
      "outputs": [
        {
          "internalType": "uint256",
          "name": "",
          "type": "uint256"
        }
      ],
      "stateMutability": "view",
      "type": "function"
    },
    {
      "inputs": [
        {
          "internalType": "address",
          "name": "owner",
          "type": "address"
        }
      ],
      "name": "isOwner",
      "outputs": [
        {
          "internalType": "bool",
          "name": "",
          "type": "bool"
        }
      ],
      "stateMutability": "view",
      "type": "function"
    },
    {
      "inputs": [
        {
          "internalType": "address",
          "name": "prevOwner",
          "type": "address"
        },
        {
          "internalType": "address",
          "name": "owner",
          "type": "address"
        },
        {
          "internalType": "uint256",
          "name": "_threshold",
          "type": "uint256"
        }
      ],
      "name": "removeOwner",
      "outputs": [],
      "stateMutability": "nonpayable",
      "type": "function"
    },
    {
      "inputs": [
        {
          "internalType": "address",
          "name": "prevOwner",
          "type": "address"
        },
        {
          "internalType": "address",
          "name": "oldOwner",
          "type": "address"
        },
        {
          "internalType": "address",
          "name": "newOwner",
          "type": "address"
        }
      ],
      "name": "swapOwner",
      "outputs": [],
      "stateMutability": "nonpayable",
      "type": "function"
    }
  ],
  "bytecode": "0x608080604052346100165761083a908161001c8239f35b600080fdfe60406080815260048036101561001457600080fd5b600091823560e01c80630d582f131461058a5780632f54bf6e14610533578063694e80c3146104ce578063a0e67e2b14610398578063e318b52b14610240578063e75235b81461021d5763f8dc5dd91461006d57600080fd5b346102195760603660031901126102195761008661067a565b9161008f610695565b926044359361009c6107ce565b600154600019919082810190811161020657866100ba911015610738565b6001600160a01b03908116928190841515806101fb575b6100da906106ab565b1690818852876020526100f38482888b2054161461079a565b8388528760205285882054169087528487206001600160601b0360a01b918282541617905582875284872090815416905560015480156101e8577ff8d49fc529812e9a7c5c50e69c20f0dccc0db8fa95c98bc58cc9a4f1c1299eaf916020910192836001558551908152a1836002540361016b578480f35b61017f906101776107ce565b841115610738565b600183106101be5750816020917f610f7ff2b304ae8903c3de74c60c6ab1f7d6226b3f52c5161905bb5ad4039c939360025551908152a1388080808480f35b6020606492519162461bcd60e51b8352820152600560248201526423a999181960d91b6044820152fd5b634e487b7160e01b875260118452602487fd5b5060018514156100d1565b634e487b7160e01b885260118552602488fd5b8280fd5b83823461023c578160031936011261023c576020906002549051908152f35b5080fd5b83823461023c57606036600319011261023c5761025b61067a565b90610264610695565b6001600160a01b039160443583811692908690849003610395577f9465fa0c962cc76958e6373a993326400c1c94f8be2fe3a952adfa7f60b2ea26958580807ff8d49fc529812e9a7c5c50e69c20f0dccc0db8fa95c98bc58cc9a4f1c1299eaf956102fd60209a898c986102d66107ce565b8c15158061038a575b80610380575b6102ee906106ab565b8c8152808a52205416156106df565b169283151580610375575b610311906106ab565b1690818a528984526103298382888d2054161461079a565b828a52898452858a20541690868a52858a206001600160601b0360a01b9283825416179055895284892086828254161790558189528489209081541690558351908152a151908152a180f35b506001841415610308565b50308d14156102e5565b5060018d14156102df565b80fd5b509034610219578260031936011261021957600192601f600154916103bc8361076c565b9285519383199384910116840184811067ffffffffffffffff8211176104bb57926103ef8795928995875280845261076c565b95602091828401970136883760018452838252858420546001600160a01b03919085908316875b610456575b505050855195828701938388525180945286019693905b83821061043f5786880387f35b845181168852968201969382019390850190610432565b969896949593948316808a146104af57865182101561049c5790818a92878360051b8a0101528552848652610490848a8720541691610713565b91979996959496610416565b634e487b7160e01b855260328352602485fd5b9896989594939561041b565b634e487b7160e01b835260418652602483fd5b5034610219576020366003190112610219578135916104eb6107ce565b6104f9600154841115610738565b600183106101be5750816020917f610f7ff2b304ae8903c3de74c60c6ab1f7d6226b3f52c5161905bb5ad4039c939360025551908152a180f35b83823461023c57602036600319011261023c576020916001600160a01b038061055a61067a565b169160018314159283610574575b50505090519015158152f35b8492935081528085522054161515838080610568565b50346102195780600319360112610219576105a361067a565b91602435926105b06107ce565b6001600160a01b03908116908115158061066f575b80610665575b6105d4906106ab565b818652856020526105ea818588205416156106df565b600186528560205283862054168186528386206001600160601b0360a01b91828254161790556001865281848720918254161790557f9465fa0c962cc76958e6373a993326400c1c94f8be2fe3a952adfa7f60b2ea26602061064d600154610713565b92836001558551908152a1836002540361016b578480f35b50308214156105cb565b5060018214156105c5565b600435906001600160a01b038216820361069057565b600080fd5b602435906001600160a01b038216820361069057565b156106b257565b60405162461bcd60e51b8152602060048201526005602482015264475332303360d81b6044820152606490fd5b156106e657565b60405162461bcd60e51b815260206004820152600560248201526411d4cc8c0d60da1b6044820152606490fd5b60001981146107225760010190565b634e487b7160e01b600052601160045260246000fd5b1561073f57565b60405162461bcd60e51b8152602060048201526005602482015264475332303160d81b6044820152606490fd5b67ffffffffffffffff81116107845760051b60200190565b634e487b7160e01b600052604160045260246000fd5b156107a157565b60405162461bcd60e51b8152602060048201526005602482015264475332303560d81b6044820152606490fd5b3033036107d757565b60405162461bcd60e51b8152602060048201526005602482015264475330333160d81b6044820152606490fdfea2646970667358221220c3a7067e89bfa4153c2d25af7f7d59b51be845c1f021e76911fe9743ff484a1964736f6c63430008170033",
  "linkReferences": {},
  "deployedLinkReferences": {}
}