{
  "_format": "hh-sol-artifact-1",
  "contractName": "SafeOrderBuilder",
  "sourceName": "contracts/1inch/helpers/SafeOrderBuilder.sol",
  "abi": [
    {
      "inputs": [
        {
          "internalType": "contract IOrderMixin",
          "name": "limitOrderProtocol",
          "type": "address"
        },
        {
          "internalType": "contract IOrderRegistrator",
          "name": "orderRegistrator",
          "type": "address"
        }
      ],
      "stateMutability": "nonpayable",
      "type": "constructor"
    },
    {
      "inputs": [],
      "name": "StaleOraclePrice",
      "type": "error"
    },
    {
      "inputs": [
        {
          "components": [
            {
              "internalType": "uint256",
              "name": "salt",
              "type": "uint256"
            },
            {
              "internalType": "Address",
              "name": "maker",
              "type": "uint256"
            },
            {
              "internalType": "Address",
              "name": "receiver",
              "type": "uint256"
            },
            {
              "internalType": "Address",
              "name": "makerAsset",
              "type": "uint256"
            },
            {
              "internalType": "Address",
              "name": "takerAsset",
              "type": "uint256"
            },
            {
              "internalType": "uint256",
              "name": "makingAmount",
              "type": "uint256"
            },
            {
              "internalType": "uint256",
              "name": "takingAmount",
              "type": "uint256"
            },
            {
              "internalType": "MakerTraits",
              "name": "makerTraits",
              "type": "uint256"
            }
          ],
          "internalType": "struct IOrderMixin.Order",
          "name": "order",
          "type": "tuple"
        },
        {
          "internalType": "bytes",
          "name": "extension",
          "type": "bytes"
        },
        {
          "components": [
            {
              "internalType": "contract AggregatorV3Interface",
              "name": "oracle",
              "type": "address"
            },
            {
              "internalType": "uint256",
              "name": "originalAnswer",
              "type": "uint256"
            },
            {
              "internalType": "uint256",
              "name": "ttl",
              "type": "uint256"
            }
          ],
          "internalType": "struct SafeOrderBuilder.OracleQueryParams",
          "name": "makerAssetOracleParams",
          "type": "tuple"
        },
        {
          "components": [
            {
              "internalType": "contract AggregatorV3Interface",
              "name": "oracle",
              "type": "address"
            },
            {
              "internalType": "uint256",
              "name": "originalAnswer",
              "type": "uint256"
            },
            {
              "internalType": "uint256",
              "name": "ttl",
              "type": "uint256"
            }
          ],
          "internalType": "struct SafeOrderBuilder.OracleQueryParams",
          "name": "takerAssetOracleParams",
          "type": "tuple"
        }
      ],
      "name": "buildAndSignOrder",
      "outputs": [],
      "stateMutability": "nonpayable",
      "type": "function"
    }
  ],
  "bytecode": "0x60c03461008557601f6107a438819003918201601f19168301916001600160401b0383118484101761008a5780849260409485528339810103126100855780516001600160a01b03918282168203610085576020015191821682036100855760805260a05260405161070390816100a18239608051816101d2015260a051816103170152f35b600080fd5b634e487b7160e01b600052604160045260246000fdfe600436101561000d57600080fd5b6000803560e01c6371db20381461002357600080fd5b3461051f5736600319016101e0811261051b5761010080911261051b576080016080811067ffffffffffffffff8211176103d45760405260043560805260243560a05260443560c05260643560e0526084356101005260a4356101205260c43561014090815260e435610160526101049067ffffffffffffffff82351161048e57366023833501121561048e5767ffffffffffffffff8235600401351161048e57366024833560040135843501011161048e5760603661012319011261048e5760603661018319011261048e57610124356001600160a01b038116908190036103f35760405160a081600481633fabe5a360e21b958682525afa801561051057859186916104e6575b5061013b9061016435906105ab565b421161049a578251610151916101443591610619565b8252610184356001600160a01b03811691908290036104e25760a09060046040518094819382525afa801561044557849185916104ac575b5061019942916101c435906105ab565b1061049a576101ae9082516101a43590610619565b905260405163802b2ef160e01b81526101cb6004820160806105ce565b60208183817f00000000000000000000000000000000000000000000000000000000000000006001600160a01b03165afa9081156103e8578391610464575b506040519060208201526020815280604081011067ffffffffffffffff604083011117610450576040818101808252825160208401207f60b3cbf8b4a223d68d641b3b6ddf9a298e7f33710cf3d3a9d1146b5a6150fbca6060850152608084015290815267ffffffffffffffff60a083019081119111176104505760a081016040818152820151606083012063f698da2560e01b825290602090600481305afa91821561044557849261040b575b50604051906020820192601960f81b8452600160f81b60218401526022830152604282015260428152608081019267ffffffffffffffff84119282851084176103f75760408581528351909120865260076020528520600190558491907f00000000000000000000000000000000000000000000000000000000000000006001600160a01b031690813b156103f3578361018487948286946337f2cf8d60e21b86526103686084840160806105ce565b61014084840152803560048101356101c485018190526101e4929160240183860137828282356004013586010152601f801991356004013501168301838103936101a46101608601910152015201925af180156103e8576103c7578280f35b6103d45760405238808280f35b634e487b7160e01b82526041600452602482fd5b6040513d85823e3d90fd5b8380fd5b634e487b7160e01b86526041600452602486fd5b9091506020813d60201161043d575b8161042a60209360a08401610522565b810103126103f35760a0015190386102b8565b3d915061041a565b6040513d86823e3d90fd5b634e487b7160e01b83526041600452602483fd5b90506020813d602011610492575b8161047f60209383610522565b8101031261048e57513861020a565b8280fd5b3d9150610472565b604051631510fe5b60e31b8152600490fd5b90506104d0915060a03d60a0116104db575b6104c88183610522565b810190610576565b509250509038610189565b503d6104be565b8480fd5b61013b9250610504915060a03d60a0116104db576104c88183610522565b5093925050919061012c565b6040513d87823e3d90fd5b5080fd5b80fd5b90601f8019910116810190811067ffffffffffffffff82111761054457604052565b634e487b7160e01b600052604160045260246000fd5b519069ffffffffffffffffffff8216820361057157565b600080fd5b908160a09103126105715761058a8161055a565b916020820151916040810151916105a860806060840151930161055a565b90565b919082018092116105b857565b634e487b7160e01b600052601160045260246000fd5b60e08091805184526020810151602085015260408101516040850152606081015160608501526080810151608085015260a081015160a085015260c081015160c08501520151910152565b909160001983830992808302928380861095039480860395146106a95784831115610690579082910981600003821680920460028082600302188083028203028083028203028083028203028083028203028083028203028092029003029360018380600003040190848311900302920304170290565b82634e487b71600052156003026011186020526024601cfd5b5050809250156106b7570490565b634e487b7160e01b600052601260045260246000fdfea2646970667358221220ddf19bf14e2c48d2318d53a4c4ad5cc67bb03350456b31b9f3b19b1aba86026e64736f6c63430008170033",
  "linkReferences": {},
  "deployedLinkReferences": {}
}